:020000040800F2
:1000000058EA012055020008E5380008A534000828
:10001000D136000801110008BF5A00080000000096
:100020000000000000000000000000009D0100082A
:100030005119000800000000F10100085D5200089D
:100040006F0200086F0200086F0200086F020008CC
:100050006F0200086F0200086F0200086F020008BC
:100060006F0200086F0200086F0200086F020008AC
:100070006F0200086F0200086F0200086F0200089C
:100080006F0200086F0200086F0200086F0200088C
:100090006F0200086F0200086F0200086F0200087C
:1000A0006F0200086F0200086F0200086F0200086C
:1000B0006F0200086F0200086F0200086F0200085C
:1000C0006F0200086F0200086F0200086F0200084C
:1000D0006F020008F9520008C5530008AD56000829
:1000E0006F0200086F0200086F0200086F0200082C
:1000F0006F0200086F0200086F0200086F0200081C
:100100006F020008D54D00086F0200086F0200085A
:100110006F0200086F0200086F0200086F020008FB
:100120006F020008151600086F0200086F02000831
:100130006F020008D52300086F0200086F02000854
:100140006F0200086F0200086F0200086F020008CB
:100150006F0200086F020008291600086F020008ED
:100160006F0200086F0200086F0200086F020008AB
:100170006F0200086F020008651200086F02000895
:100180006F0200086F020008DFF80CD000F08CFC52
:1001900000480047C1A6000858EA01202A4B196808
:1001A0000868B0E8F04F80F30988BFF36F8F4FF015
:1001B000000080F3118870470000000006480068C6
:1001C000006880F3088862B661B6BFF34F8FBFF353
:1001D0006F8F00DF00BF00BF08ED00E0DFF80C000C
:1001E000016841F470010160704700BF88ED00E0D4
:1001F000EFF30980BFF36F8F134B1A681EF0100FD7
:1002000008BF20ED108A20E9F04F106008B44FF0CD
:10021000500080F31188BFF34F8FBFF36F8F0EF044
:1002200055F84FF0000080F3118808BC1968086881
:10023000B0E8F04F1EF0100F08BFB0EC108A80F34A
:100240000988BFF36F8F7047EC000020EFF3058043
:10025000704700000648804706480047FEE7FEE773
:10026000FEE7FEE7FEE7FEE7FEE7FEE7FEE7FEE766
:10027000915200088901000840EA01039B0703D05E
:1002800009E008C9121F08C0042AFAD203E011F8D5
:10029000013B00F8013B521EF9D27047D2B201E097
:1002A00000F8012B491EFBD270470022F6E710B57B
:1002B00013460A4604461946FFF7F0FF204610BDD4
:1002C00030B505462A460B4612F8010B13F8014BD0
:1002D00008B1A042F8D01CB1002802D06D1CF1E793
:1002E000284630BD10B5044604E00B7800F8013B09
:1002F00003B1491C521EF8D2204610BD421C10F812
:10030000011B0029FBD1801A704710B5002200E0C4
:10031000521C835C8C5CA34201D1002BF8D1D8B273
:10032000E1B2401A10BD30B504460020034600E09B
:100330005B1C934203D2E05CCD5C401BF8D030BD27
:1003400030B505460020034600E05B1C934205D211
:10035000EC5CC85C201A01D1002CF6D130BD000045
:100360000FB400B58DB010A909900B9000914FF01B
:10037000FF300A9000200C90054806900548079031
:100380006A4609A80F9900F07DFA0DB05DF814FBDC
:10039000A1080008BF0800082DE9FF5F1D464FF0C7
:1003A000FF3BD5E9014691465F464FF00008A96939
:1003B0007F1C01988847296A824688470028F6D121
:1003C000BAF1FF3F0CD024F4C064002E19DD6006A2
:1003D00014D5BAF12B0F09D0BAF12D0F0ED103E0CD
:1003E000584604B0BDE8F09F44F48064A9697F1CBE
:1003F00001988847761E8246002E02DDBAF1300F42
:1004000003D0B9F1000F26D032E0A969761E44F47A
:1004100000747F1C019888478246002E05DDBAF1E2
:10042000780F06D0BAF1580F03D0B9F1000F10D0F1
:100430001EE0B9F1000F02D0B9F1100F18D1A9696F
:10044000761E24F400747F1C019888478246102091
:1004500002E0082000E00A20814609E008FB0908C4
:10046000A969761E44F400747F1C0198884782466F
:10047000002E05DD4946504600F0F0F90028EDDA7F
:10048000E96901988847A00502D46FF00100A8E748
:10049000E00725D1600613D5600502D5C8F100003C
:1004A00000E0404629680A1D2A600968220501D536
:1004B000087015E0220701D5088011E008600FE000
:1004C0002868011D29600068210502D580F8008098
:1004D00006E0210702D5A0F8008001E0C0F8008006
:1004E00038467EE72DE9FE4F804681EA0300C00FC3
:1004F0000C46009021F0004123F00045B8EB0200CB
:10050000A94105D24046214690461C460B4602466C
:1005100023F00040104347D0270DC7F30A00C3F370
:100520000A510290401A019040286BDAC3F313007D
:1005300040F4801B0098924620B10023D2EB030ABE
:1005400063EB0B0B01985946C0F14002504600F096
:1005500054F906460D4650465946019A00F06CF98A
:1005600010EB08006141002487EA115284EAE77326
:100570001A4340D0009A62B3019A012A4FEA075207
:1005800015DC001B61EB02014FF0004202EA07524A
:10059000CDE90042001C41F5801132462B4600F0A7
:1005A000AEF903B0BDE8F08F40462146F9E7001BE5
:1005B00061EB0201001C41F5801300185B4120181B
:1005C000A2F5001747EB030140EAD570B6196D415B
:1005D00011E06D084FEA360645EAC0754FEA07524A
:1005E000001B61EB0201001C41F5801149084FEA34
:1005F00030000019514132462B4603B0BDE8F04FA0
:1006000000F06EB90098012240000023D0EB0202F6
:1006100063EBE073009821464FEAE074B8EB00000A
:1006200061EB0401E9E783F000435BE781F00041FF
:1006300058E72DE9FE4F81EA030404F0004421F05D
:10064000004100944FF0000B23F0004350EA0104F6
:100650005ED052EA03045BD0C3F30A54C1F30A55D7
:100660002C44A4F2F3340194A0FB0254C1F313010F
:1006700041F48011C3F3130343F4801301FB0244DC
:1006800000FB034E840A970A44EA815447EA8357E1
:10069000A4FB076802958D0A05FB07854FEA932C9A
:1006A00004FB0C542705029D4FEA065847EA16370B
:1006B000B5EB08056EEB070C870E920E47EA811723
:1006C00042EA8312A7FB0201B6EB0B0164EB0004C4
:1006D0002B0D43EA0C335E1844EB1C50DA465146AE
:1006E000E7FB0201C5F313044FEA0B3343EA14534B
:1006F0004FEA0432019C43EA0603A4F10C0402947D
:10070000009CCDE900B400F0FAF803B0BDE8F08F2A
:1007100000200146F9E700F0004230F000400AD026
:10072000C10D01F56071C0F3160042EA0151C20823
:1007300040071143704700200146704730B5041E42
:1007400071F1000404DB4FF00044404264EB01010E
:10075000141E73F1000405DB1C464FF000435242A7
:1007600063EB0403994208BF904230BD30B50B469D
:10077000014600202022012409E021FA02F59D42D1
:1007800005D303FA02F5491B04FA02F52844151EA5
:10079000A2F10102F1DC30BD2DE9F05F0546002039
:1007A00092469B4688460646814640241BE02846E2
:1007B00041464746224600F02FF853465A46C01A93
:1007C000914110D311461846224600F016F82D1A12
:1007D00067EB01084F4622460120002100F00DF88A
:1007E00017EB00094E41201EA4F10104DFDC48464E
:1007F00031462A464346BDE8F09F202A04DB203AD2
:1008000000FA02F1002070479140C2F1200320FA63
:1008100003F3194390407047202A04DB203A21FA61
:1008200002F00021704721FA02F3D040C2F1200209
:100830009140084319467047202A06DBCB17203A1F
:1008400041FA02F043EAE07306E041FA02F3D040D5
:10085000C2F1200291400843194670473A2800D25D
:10086000303820F02002412A01D3A2F1370088421B
:1008700001D34FF0FF3070470268114413780160D4
:1008800018467047D1600449516104491162002142
:100890001161114600F020B979080008CD0A00085E
:1008A000426842B1016811F8013B23B1521EC0E910
:1008B0000012184670470121C160881E70474268C7
:1008C0005AB1C368016843B983688B4205D0491E99
:1008D000521CC0E90012002070474FF0FF307047F3
:1008E00010B5141E73F1000408DA401C41F1000138
:1008F00092185B411A4301D120F0010010BD2DE98F
:10090000F04D92469B4611B1B1FA81F202E0B0FA85
:1009100080F220329046FFF770FF04460F4640EA0F
:100920000A0041EA0B0153465A46084313D01146C8
:1009300053EA010019D0C8F140025046FFF76CFF9E
:1009400005460E46504659464246FFF756FF0843B5
:1009500005D0012004E020463946BDE8F08D002096
:10096000054346EAE0762C4337430A986305E40AD8
:10097000A0EB08000022FD0A44EA47540A3002D5E1
:1009800000200146E9E7010510196941DDE9084544
:1009900000196941BDE8F04DA2E72DE9F04D81EA6B
:1009A000030404F0004B21F0004514464FF0000A08
:1009B00023F0004150EA050220D054EA01021DD084
:1009C000C5F30A570246C5F31303C1F31300C1F37D
:1009D0000A5640F4801543F48013A7EB0608101B59
:1009E000D64608F2FD3873EB050002D308F1010882
:1009F00001E092185B41B8F1000F03DA00200146D4
:100A0000BDE8F08D00204FF48011064684460EE0CC
:100A1000171B73EB050705D3121B63EB0503064396
:100A20004CEA010C49084FEA300092185B4150EA49
:100A30000107EDD152EA030012D082EA040083EAF2
:100A40000501084305D0101BAB4106D2012200234B
:100A500006E000224FF0004302E06FF00102531065
:100A60001AEB06004CEB085110EB0A0041EB0B01AE
:100A7000BDE8F04DFFF734BFC1F30A52C1F31301D3
:100A800040F2FF3341F480119A4202DA002001461D
:100A9000704740F233439A42A2F2334202DC5242A0
:100AA000FFF7BABEFFF7A9BE064C074D06E0E068A7
:100AB00040F0010394E8070098471034AC42F6D3A5
:100AC000FFF766FBA8FD0008C8FD0008C0B24FF4A0
:100AD000F05100F097B900002DE9F34F8BB04FF0C3
:100AE000000801F10C000C464FF0010B46460DF1D9
:100AF000080A01906269012101989047051E2DD0D6
:100B0000252D2CD0216A8847C0B162690121019846
:100B10009047216A88470028F7D1411E62690198F1
:100B2000904700E0761CA1690B988847216A8847A6
:100B30000028F7D1E1690B988847DBE7A1690B989A
:100B400088470746A84201D1761CD3E7E1690B9894
:100B500088477F1C02D1B8F1000F6FD046E1002713
:100B600062693D463946019890472A2804D1626956
:100B70000121019890470125DFF8849262690121E3
:100B800001989047A0F130010A290AD24F45E5DCCF
:100B900007EB870100EB4107303FDFD445F010053C
:100BA000ECE7E90601D46FF000476C280AD04C2826
:100BB00014D0682815D06A280DD074281CD07A2843
:100BC0001AD01DE062690121019890476C2802D07B
:100BD00045F0040514E045F002050DE045F0200560
:100BE0000AE06269012101989047682802D045F027
:100BF000080505E045F40065626901210198904708
:100C0000C4E9015765283DD019DC58287AD00CDC9E
:100C1000452837D004DC252826D0412831D131E0C1
:100C200046282FD047282CD12CE05B2877D061288C
:100C300028D063287CD0642823D15AE0D0E06F28E4
:100C400048D008DC66281DD067281BD0692821D031
:100C50006E2816D127E0702845D0732868D07528F3
:100C600047D078280DD14DE0A1690B9888470546FB
:100C700025283FF469AFE1690B9888476D1C3FF464
:100C80006AAFB3E023466A466FF001000B99AFF3F9
:100C900000809EE045F040006060A80723464FF0CA
:100CA000000236D43EE0E8077FF447AF2068011D1C
:100CB00021600068290501D506701BE7290701D5C9
:100CC000068017E7A90703D5F117C0E9006111E70E
:100CD00006600FE745F040006060A80723464FF02C
:100CE000080216D41EE040F60E0125EA01006060FD
:100CF00016E045F040006060A80723464FF00A0266
:100D000007D40FE045F040006060A80708D52346EF
:100D100010226FF001000B99AFF3008059E007E05B
:100D2000234610226FF001000B99FFF735FB50E0CE
:100D30004FF000094F464B46632802D05B2806D08F
:100D400040E0E80601D40120A06001273AE0626992
:100D50000121019890475E2805D14FF00109626991
:100D6000494601989047216939B900210A465346FE
:100D700043F82120491C0829FADBB0B3216969B97D
:100D8000C11700EBD16253110AEB830122F01F025D
:100D9000821A01200B68904003430B6062690121B5
:100DA000019890475D28E8D1B9F1000F09D00020E3
:100DB000514651F82020D24341F82020401C0828F9
:100DC000F7DB02AB224600976FF001000B99AFF3FF
:100DD000008000280CDA401C08D1BBF1000F05D0C0
:100DE0004FF0FF300DB0BDE8F08FFFE74046F9E768
:100DF000E90701D108F1010806444FF0000B79E63C
:100E0000CCCCCC0C7F2801D9002208E0064A02EBAA
:100E10005002C007127800D1120902F00F0201201F
:100E2000904008407047000010F7000870B58C181B
:100E300010F8015B15F0070301D110F8013B2A11EE
:100E400006D110F8012B03E010F8016B01F8016BDB
:100E50005B1EF9D12B0705D40023521E0DD401F8D7
:100E6000013BFAE710F8013BCB1A921C03E013F8A0
:100E7000015B01F8015B521EF9D5A142D8D30020D5
:100E800070BD21B1826842F00102826003E0826895
:100E900022F00102826070470146C86C80B2704740
:100EA0000246002013680B400BB1012000E0002037
:100EB0007047000030B50246002000235068104CF7
:100EC00020400D790C6844EA052420435060906866
:100ED0000C4C2040D1E903542C438D682C434D79B0
:100EE00044EA450420439060D06A20F470000C7DF1
:100EF000641EE4B2234340EA0350D06230BD0000D8
:100F0000FFFEFFFCFDF7FFC0F0B504460D460020D4
:100F10000021092D11DDE068A5F10A0606EB460760
:100F2000072606FA07F18843A5F10A0606EB4606EE
:100F300003FA06F10843E0600CE0206905EB450781
:100F4000072606FA07F1884305EB450603FA06F182
:100F500008432061072A0FDA606B561E06EB8607EE
:100F60001F2606FA07F18843561E06EB860605FA89
:100F700006F10843606322E00D2A0FDA206BD61FCA
:100F800006EB86071F2606FA07F18843D61F06EBF5
:100F9000860605FA06F10843206310E0E06AA2F134
:100FA0000D0606EB86071F2606FA07F18843A2F115
:100FB0000D0606EB860605FA06F10843E062F0BD71
:100FC000816841F0804181607047000070B52DED6F
:100FD000028B044694F8230028B994F8220010B933
:100FE000E08A012801D1012000E0002005461DB95A
:100FF00004F068FD012820D1032084F8310094F822
:10100000230010B194ED090A01E09FED330A84ED4D
:101010000D0A94ED100A10EE101A0846FFF77BFB3C
:1010200041EC180B9FED2D0B53EC102BFFF786FBBB
:1010300043D200202B4908703FE094ED100A10EED7
:10104000101A0846FFF767FB41EC180B9FED230BC6
:1010500053EC102BFFF772FB0FD394ED110A10EE37
:10106000101A0846FFF757FB41EC180B9FED1E0BBB
:1010700053EC102BFFF762FB0AD2022084F83100F8
:101080009FED1B0A84ED0D0A00201649087014E03C
:1010900094F8200008B1012000E0002084F831001D
:1010A00094F8200010B19FED130A01E09FED120AA1
:1010B00084ED0D0A01200B49087004F003FD04F8CB
:1010C0004C0F0E480078607006480078A0704C3CC9
:1010D000BDEC028B70BD00000000AA4200000000C1
:1010E00000002440510100200000000000004E409C
:1010F0000000B442000070420000C84250010020CD
:1011000000BFFEE770B5044605E01648056805F027
:10111000450000B100E0F8E700BF042003F04EFEF8
:1011200020B1042003F044FE032070BD012003F031
:1011300045FE20B1012003F03BFE0120F5E7094800
:1011400024380068A04201D01020EEE740F2FF50A2
:1011500003F02EFE03482038006808210840C0B282
:10116000E3E70000342C014030B10749096841F041
:101170000101054A116005E00349096821F00101F8
:10118000014A1160704700000000055001494861A4
:10119000704700000000055030B10749096841F46C
:1011A0008041054A116005E00349096821F4804146
:1011B000014A11607047000000000550F0B58FB083
:1011C00004460D4616461F460121880503F094F893
:1011D000144800F087FA00BF124800F02FFB0028E7
:1011E000FAD14FF0007000900F4801900294002057
:1011F0000390049505904FF480600690800007905E
:1012000080000890002009904FF400300A900020E0
:101210000B900C900D900E906946024800F06CFB0C
:101220000FB0F0BD28640240280005500020054999
:101230000860C8601F20486100208861C86108629A
:101240004862704700000550014600200022044B10
:101250001B6903EA01020AB1012000E00020704787
:101260000000055070B53948007830B938A008F052
:1012700097FC01203549087005E035A008F06EFCA8
:101280000020324908700120FFF7DEFF00285CD003
:1012900031480068401C3049086000212F4800F0A8
:1012A00015FA2E4800F0D4FA04464FF4C840A0EBDB
:1012B00084002B490968886003202949096808715E
:1012C000274800682749884201D1274800E025487F
:1012D0000546287910B92248056004E023480068D3
:1012E000401C2249086022480078401C20490870B0
:1012F0000978052901DB012100E0002108460AF0F8
:1013000087FE1B480078052802DB0020184908707A
:101310000120184908701248006800680F490C3114
:1013200008604FF4C8500D49091D086012490B4868
:1013300000F098F91F20114948610121074800F089
:10134000C5F90120FFF722FF00BF70BD6401002036
:101350006C656431000000006001002028640240D8
:1013600050000020280000203C00002070000020D9
:101370006501002080000020400F00100000055093
:1013800029B1074AD2680243054BDA6006E0044AF5
:10139000D268C3439BB21A40014BDA607047000029
:1013A0000000055000210E4A126844F201039A43DE
:1013B0000B4B1A601A46116840F6F272914302888C
:1013C00043881A4383881A43C3881A4303891A43FC
:1013D00043891A4383891A431143014A11607047B4
:1013E0000000055010B50020134908700120134972
:1013F000096808710021124800F068F900BF104820
:1014000000F01CFA0028FAD10C48006800680C496A
:101410000C3108604FF4F0500949091D0860094972
:10142000074800F01FF90121054800F04FF901209D
:10143000FFF79AFE10BD0000690000205000002058
:1014400028640240400F001010B5002400F02AF874
:1014500004E0601CC4B2012005F01CFD4FF4804183
:101460000F4802F012F808B1642CF2DB642C01DBA7
:10147000012010BD002404E0601CC4B2012005F06E
:1014800009FD4FF48041064801F0FFFF08B9642CC4
:10149000F2DB642C01DB0120EBE70020E9E7000030
:1014A000000402401CB54FF48040009000208DF8ED
:1014B000040001208DF807006946024801F07AFF18
:1014C0001CBD0000000402401CB54FF48040009099
:1014D00001208DF8040000208DF8060002208DF810
:1014E000050001208DF807006946024801F062FFFF
:1014F0001CBD00000004024010B50121022002F0D2
:10150000FBFE00F06DF8FFF79FFF10BD10B5002443
:1015100004E0601CC4B2012005F0BCFC4FF4804123
:10152000104801F0B2FF08B1642CF2DB002404E0A3
:10153000601CC4B2012005F0ADFC4FF480410948A5
:1015400001F0A3FF08B9642CF2DB282005F0A2FC0F
:101550004FF48041034801F098FF08B1012010BD0D
:101560000020FCE70004024070B50024002506E0DE
:101570006006040EFFF7CAFF0443681CC5B2082DBD
:10158000F6DB204670BD7CB505460E4600F028F817
:10159000FFF75AFFF8B9002405E0FFF7E5FF0DF863
:1015A0000400601CC4B2052CF7DB9DF800009DF818
:1015B000011008449DF8021008449DF803100844E7
:1015C0009DF80410884208D19DF8000030709DF805
:1015D0000200287001E001207CBD0020FCE7000033
:1015E00010B5FFF771FF00BF4FF48041084801F0CC
:1015F00055FF00BF142005F039FC00BF4FF48041B7
:10160000034801F04DFF00BF1E2005F043FC10BD54
:101610000004024010B50249024800F03DF810BD38
:1016200040FF00902864024010B50A490A4800F0C3
:1016300013F968B10749084800F02EF80021064860
:1016400000F044F8002005490870012004490870A2
:1016500010BD000000800028B86402401A0000207D
:101660001B0000200246094B9A4201D2084801E0C3
:101670000648103801F000531BB1064B0B40C36005
:1016800002E0044B0B40836070470000106402408E
:10169000006002407D0F7D0F0246094B9A4201D245
:1016A000084801E00648103801F000531BB1064B12
:1016B0000B40C36002E0044B0B40836070470000A6
:1016C00010640240006002407D0F7D0F21B102686E
:1016D00042F00102026003E0026822F001020260AF
:1016E00070470000016821F00101016000210160E4
:1016F00041608160C1600161212141614A498842A4
:1017000004D13D21484A103A91608CE04649183195
:10171000884205D14FF47461434A103A916082E0E7
:1017200041493031884205D14FF474113E4A103A94
:10173000916078E03C494831884205D14FF07461AE
:10174000394A103A91606EE037496031884204D1DD
:101750003649354A103AD16065E0334978318842DC
:1017600004D13349304A103AD1605CE02E499031BF
:10177000884204D12F492C4A103AD16053E02A49BB
:10178000A831884205D14FF03D51274A103AD16027
:1017900049E02949884204D13D21274A083A11608D
:1017A00041E025491831884205D14FF47461224A3D
:1017B000083A116037E020493031884205D14FF4B2
:1017C00074111D4A083A11602DE01B4948318842C6
:1017D00005D14FF07461184A083A116023E01649A8
:1017E0006031884204D11149134A121F11601AE076
:1017F00011497831884204D10D490F4A121F1160F6
:1018000011E00D499031884204D10A490A4A121F59
:10181000116008E00849A831884204D14FF03D51D9
:10182000054A121F11607047106002403D00002001
:10183000400F002000003D201064024001460020BF
:101840000A6802F001020AB1012000E0002070479E
:101850000146486880B2704770B5024600200024F7
:101860000025124EB24201D2114B01E00F4B103B4A
:10187000104E0E4036B11E2606EAD124166806EA3E
:10188000040502E0566906F0800501F000560EB12D
:101890005C6800E01C68084E344004EA010616B19A
:1018A0000DB1012000E0002070BD00001064024076
:1018B000006002403C0F3C0F7D0F7D0F10B501F022
:1018C00080034BB122B1436943F08003436103E0DD
:1018D000436923F08003436180290BD02AB1036858
:1018E00001F01E042343036004E0036801F01E04BA
:1018F000A343036010BD000010B500220268134B23
:101900001A40CC680B6823434C6923438C692343FA
:10191000CC6923430C6A23434C6A23438C6A2343D8
:101920004C6B23438C6B23431A430260426922F0C1
:101930000702D1E90B3423431A4342610B69436028
:101940004B6883608B68C36010BD00003F801CF053
:101950007047000010B54FF47A7202A102A000F0A7
:1019600071FB10BD4F4B000041540D0A00000000F8
:1019700010B521A004F0EAF8264927A004F0E6F803
:101980002F4801882FA004F0E1F836A004F0DEF81B
:10199000FFF7E0FF00280FD03DA004F0D7F848A0E3
:1019A00004F0D4F84DA004F0D1F858A004F0CEF81B
:1019B0005FA004F0CBF810BD65A004F0C7F80120CB
:1019C00000F0B6FB18B16DA004F0C0F8F3E773A007
:1019D00004F0BCF84FF47A727AA17BA000F032FBDD
:1019E0007BA004F0B3F8002000F0BCFB86A004F05C
:1019F000ADF800BFDFE700005B45535038323636A4
:101A00005D20496E697469616C697A696E672E2E12
:101A10002E0D0A00C60300205B455350383236367F
:101A20005D2052582062756666657220616464723A
:101A30006573733A203078253038580D0A0000005D
:101A40001E0000205B455350383236365D20525818
:101A5000207374617475733A203078253034580DD2
:101A60000A0000005B455350383236365D2053740F
:101A7000657020313A2054657374696E6720415453
:101A800020636F6D6D616E642E2E2E0D0A000000B6
:101A90005B455350383236365D20496E6974696152
:101AA0006C697A6174696F6E206661696C65642027
:101AB0002D204E6F20726573706F6E73650D0A0076
:101AC0005B455350383236365D20506C6561736526
:101AD00020636865636B3A0D0A0000005B45535054
:101AE000383236365D20312E20486172647761725B
:101AF0006520636F6E6E656374696F6E2028504257
:101B000031302F50423131290D0A00005B455350CE
:101B1000383236365D20322E204553503832363634
:101B200020706F77657220737570706C790D0A0084
:101B30005B455350383236365D20332E20455350A6
:101B400038323636206669726D776172650D0A002B
:101B50005B455350383236365D2053746570203201
:101B60003A2053657474696E672053746174696FA9
:101B70006E206D6F64652E2E2E0D0A005B4553504E
:101B8000383236365D204661696C656420746F209A
:101B9000736574206D6F64650D0A00005B455350DA
:101BA000383236365D205374657020333A204469EC
:101BB0007361626C696E67206563686F2E2E2E0DEF
:101BC0000A0000004F4B0000415445300D0A000050
:101BD0005B455350383236365D205374657020347F
:101BE0003A20456E61626C696E672073696E676C3E
:101BF0006520636F6E6E656374696F6E206D6F64D0
:101C0000652E2E2E0D0A00005B45535038323636B5
:101C10005D20496E697469616C697A6174696F6E7F
:101C200020636F6D706C657465640D0A00000000C0
:101C30001CB50446204602F017FD03F09FFA84ED20
:101C4000070A03F06FFA208394ED070ADFED310AEB
:101C5000B4EEE00AF1EE10FA01DD012000E0002010
:101C6000143420732C480078E0732B48407800EE41
:101C7000100AB8EE400A84ED040A274840886061E3
:101C80002548808820832448C08860832248007AC1
:101C9000207707F019FE606207F010FEA0621F486F
:101CA000408B20801D48007F60801C48407FA073CF
:101CB000143C002001900090694601A8FFF763FCE6
:101CC00078B99DF8000064280BDC9DF804005028CA
:101CD00007DC9DF80400124908709DF800001149C6
:101CE00008700F48007800EE100AB8EE400A84ED44
:101CF000110A0C48007800EE100AB8EE400A84ED94
:101D0000120A094890ED000A84ED100A2046FFF7F8
:101D10005DF91CBD00004842B88601202803002060
:101D200058010020590100205401002010B502A0E4
:101D300003F00CFF10BD00005B45535038323636BF
:101D4000205265706F72745D20536D617274204D06
:101D50005154542047617465776179204D6F6465F3
:101D600020496E697469616C697A65642E0D0A0098
:101D70002DE9F34F2DED068B9DB0044694ED070A37
:101D8000BDEEC00AF0EE40AA94ED070AF8EEEA0AAA
:101D900030EE600ADFED700A20EE200ABDEEC00AC8
:101DA00010EE10BABBF1000F01DACBF1000B94ED8D
:101DB000110ABDEEC08A94ED110AF8EEC80A30EEA1
:101DC000600AF2EE040A20EE200ABDEEC00A10EE10
:101DD000105A002D00DA6D4294ED120AFDEEC08A11
:101DE00094ED120AF8EEE80A30EE600AF2EE040A08
:101DF00020EE200ABDEEC00A10EE106A002E00DAB6
:101E0000764294ED100ABDEEC09A94ED100AF8EEF9
:101E1000C90A30EE600ADFED500A20EE200ABDEE5E
:101E2000C00A10EE107A002F00DA7F4294ED090A02
:101E3000FDEEC09A94ED090AF8EEE90A30EE600A68
:101E4000DFED450A20EE200ABDEEC00A10EE108A32
:101E5000B8F1000F01DAC8F1000894ED0D0ABDEEEB
:101E6000C0AA94ED0D0AF8EECA0A30EE600ADFED62
:101E70003A0A20EE200ABDEEC00A10EE109AB9F11F
:101E8000000F01DAC9F100094FF480612498FEF7D0
:101E90000CFA94F84E0094F84D1094F84C20E36B33
:101EA000CDE91932CDE91B1094F83110A06B1591D2
:101EB0008DED16AACDE9179094F83010E28DA08D23
:101EC000A36ACDE91130CDE9132194F8230008B1BC
:101ED00022A000E023A094F8221009B11FA100E085
:101EE00020A1CDE90D10CDED0F9ACDF84080CDEDBC
:101EF000098A0A968DED0B9A0C9794F8210094F8B4
:101F0000201009B115A100E016A105918DED068AFA
:101F1000CDE90750208BE18ACDE90110CDED03AA70
:101F2000CDF810B0A08A2346104A4FF4806100908B
:101F3000249803F01BFE8246BAF1000F02DD1FFA5F
:101F40008AF000E000202499A1F800041DB0BDEC47
:101F5000068BBDE8FC8F00000000C84274727565F6
:101F60000000000066616C73650000002CF800083A
:101F700010B50E48FFF75CFE0D490C48FFF7F8FE60
:101F80000B48B0F8000400280ADD0948B0F8001436
:101F900003F06EFC0648B0F8001406A002F0E4FF5F
:101FA00012A002F0E1FF002010BD0000C886012051
:101FB000188701205B455350383236362052657001
:101FC0006F72745D20507573686564204A534F4E7C
:101FD00020746F204761746577617920282564201B
:101FE0006279746573290D0A000000005B45535047
:101FF000383236362054696D656F75745D20E69C05
:10200000AAE6A380E6B58BE588B020455350383268
:10201000363620E6A8A1E59D97210D0A00000000B4
:1020200060B10178064A1170417851704188518041
:1020300081889180C188D180017A11727047000037
:10204000B88601202DE9F04104460F461546214689
:1020500023A003F07BFD0020274908804FF4807106
:102060002648FEF722F9204603F020FC002626E051
:102070002148008800281EDD39462048FEF720F957
:1020800050B100201C4908804FF480711B48FEF7B6
:102090000CF90020BDE8F08119A11848FEF710F9ED
:1020A00048B10020144908804FF480711348FEF7AE
:1020B000FCF80120EEE70A2004F0D8FE0A36AE4212
:1020C000D6D30E4910A003F041FD00200A49088034
:1020D0004FF480710948FEF7E8F80220DAE70000C3
:1020E0005B455350383236365D2053656E64696EF9
:1020F000673A2025730000001E000020C603002060
:102100004552524F520000005B455350383236362C
:102110005D2054696D656F757421204C6173742066
:102120006275666665723A2025730D0A000000002C
:1021300010B588B00446224605A1684603F02EFD7E
:102140004FF47A7206A16846FFF77CFF08B010BD15
:1021500041542B43574D4F44453D25640D0A000023
:102160004F4B000010B588B00446224607A16846D0
:1021700003F014FD214609A003F0E8FC4FF4FA62D5
:1021800010A16846FFF75EFF08B010BD41542B4315
:1021900049504D55583D25640D0A00005B4553508C
:1021A000383236365D2053657474696E67204D553C
:1021B00058206D6F646520746F2025642E2E2E0DBF
:1021C0000A0000004F4B000008B53D208DF80000CC
:1021D00007208DF8010000208DF8020001208DF805
:1021E0000300684601F080FB08BD0000014948611A
:1021F000704700000090024029B1064AD2690243AC
:10220000044BDA6104E0034AD2698243014BDA618C
:10221000704700000090024030B10749896941F0E1
:102220000201054A916105E00349896921F0020133
:10223000014A9161704700000090024070B50C4661
:1022400013460021124D286000BF18E000EB411238
:102250004FF00045156044F2F4555560C1EBC115CF
:1022600005EB450504EB850595605D1E8D4204D99F
:1022700000EB41152035D56000E0D060491C994243
:10228000E4D3044DE860044D044E356070BD000099
:102290001802002000900240AC8C01201C0200209B
:1022A00030B10749896941F40051054A916105E05F
:1022B0000349896921F40051014A91617047000086
:1022C0000090024030B50C46134600210F4D2860A7
:1022D00000BF15E000EB41124FF480151560C1EB13
:1022E000C11505EB450504EB850595605D1E8D4226
:1022F00004D900EB41152035D56000E0D060491CC1
:102300009942E7D3024D286130BD0000140200203D
:102310000090024002680A430260704710B5012134
:10232000480601F0F9FF00214FF0007001F0F4FFC2
:1023300010BD01B581B0002000900198009002E02E
:102340000098401E009000980028F9D10CBD0000B4
:1023500008B5002000900848806940F480100649C4
:1023600088610846806900904FF6FF70FFF7E1FF33
:1023700001490098886108BD00900240014800684A
:10238000806870471402002001460868C0F30D40C1
:10239000704700B502460023106800F0004058B9AD
:1023A000106800F4004038B9106800F4807018B16B
:1023B0001046FFF7E9FF0346184600BD0020044918
:1023C000096801F0010109B1012000E00020704717
:1023D0000090024038B500BF5021EFF3118081F327
:1023E0001188BFF34F8FBFF36F8F00BF04461148B2
:1023F0000068FFF7CEFF88B10020009069460E48C4
:1024000000680CF0C0F9009838B14FF080500B49CB
:102410000860BFF34F8FBFF36F8F00BF4020FFF7FF
:10242000E5FE4FF48030FFF7E1FE00BF84F3118832
:1024300000BF38BD18020020FC01002004ED00E0C0
:102440002DE9F04188B004460F464FF00008002502
:1024500000200790B94E029001200190B84805690C
:1024600025F01C0503A801F0A7FF049EB54886428D
:1024700005D3B548864202D245F008051AE0B248B5
:10248000864205D3AD48864202D245F00C0511E0E4
:10249000AA48864203D3AD48864200D20AE0AB4840
:1024A000864205D3AA48864202D245F0040501E0DF
:1024B00045F01005A24805614FF40042002138465E
:1024C00000F072FB10B9002001906AE0A148FFF70C
:1024D00030FF2068002850D000BF0298401C0290B6
:1024E0000121384600F034FA00F0040018B99A4986
:1024F00002988842F1D398490298884202D100207C
:1025000001904EE0002002904FF4805200213846A6
:1025100000F04AFB08B90020019000BF0298401C5F
:1025200002900121384600F013FA00F0200018B99B
:10253000894902988842F1D387490298884202D19A
:10254000002001902DE0002002901F21384600F06D
:10255000FFF9804608F0100018B14FF400602062C7
:1025600001E00020206208F0040010B1002060614A
:1025700016E04FF48040606112E0206AC0F3CF00A3
:102580006169C1F34F0140EA01020021384600F0C1
:102590000BFB08B9002001906FF07F40FFF7C9FEE8
:1025A00000BF019820B94FF400602062C000606154
:1025B0006348056869480540D4E901010843E168BA
:1025C00008432169084361690843A1690843E16937
:1025D0000843216A0843616A0843A16A0843E16A23
:1025E0000843216B0843616B084305435448056069
:1025F00005684FF6FF70FFF79CFE51480560D4E96F
:102600000E010843216C0843616C0843A16C084328
:10261000E16C0843216D0843616D084348494860F7
:10262000084645684FF6FF70FFF783FE4448456053
:102630004349A06D8860E06DC860084685694FF623
:1026400041700540B4F86010606E40EA0140A16E30
:102650000843E16E0843216F0843616F0843054357
:102660003748856185694FF6FF70FFF762FE344891
:102670008561D4E91E0108433149C8610846C5692E
:102680004FF6FF70FFF755FE2D48C5613448856948
:1026900034480540D4E920010843D4F888100843A1
:1026A000D4F88C100843D4F890100843D4F8941050
:1026B0000843D4F898100843D4F89C100843D4F881
:1026C000A010084305432648856185694FF6FF70D1
:1026D000FFF72FFE22488561D4E929010843D4F889
:1026E000AC100843D4F8B0100843D4F8B41040EA52
:1026F0008100D4F8B810084340F40000184908607D
:10270000084605684FF6FF70FFF713FE1448056092
:10271000006840F0800012490860084605684FF6DE
:10272000FF70FFF706FE0E4805600198012802D1F0
:1027300008B0BDE8F0810020FAE7000000879303AD
:1027400000800240002D3101C00E160200E1F505A7
:1027500080D1F008FFFF0F00FFFF04000F8120FF72
:1027600000900240233FDEF810B50B794C7943EA24
:102770000422094B03441A64CB781B068C7843EA85
:1027800004434C7843EA04230C7843EA0402024BE6
:1027900003445A6410BD00000080024010B5B0B080
:1027A00001214FF0606001F0A7FDFFF7B7FD00F0D9
:1027B00053F900BFFFF702FE0128FBD001A800F08B
:1027C00065F901200190002008904FF400700B90F3
:1027D00000200C900F90129014901590169021905C
:1027E0004FF0007022900011249000202690279036
:1027F00004202990C0052A9040122B9080012C9033
:1028000040122D9040002F90012101A8FFF718FEE3
:10281000C4B2012C03D101210248FFF7EDFC204690
:1028200030B010BD4000010038B5044600200090D3
:1028300034B10C48006840F004000A49086005E023
:102840000848006820F00400064908600548006850
:1028500000904FF6FF70FFF76CFD0249009808608A
:1028600038BD00000080024038B5044600200090CA
:1028700034B10C48006840F008000A49086005E0DF
:102880000848006820F0080006490860054800680C
:1028900000904FF6FF70FFF74CFD0249009808606A
:1028A00038BD00000080024010B50A4801680020D1
:1028B00008F0A4FD08480168002008F09FFD0748C3
:1028C0000168002008F09AFD05480168002008F022
:1028D00095FD10BD24020020280200202C020020BB
:1028E0003002002010B58021002008F099FD144925
:1028F00008608021002008F093FD1249086041F231
:10290000D071002008F08CFD0F49086041F2D071B1
:10291000002008F085FD0D4908600948006840B1B5
:102920000848006828B10848006810B108460068E7
:1029300018B9FFF7B9FF012010BD0020FCE7000027
:1029400024020020280200202C0200203002002057
:1029500018B502460B460021002000901548016979
:1029600001F01C014FF4784000EAC22001434FF40B
:10297000F86000EA8310014321F0020141F00101F7
:102980000C48016100BF0098401C00900948016993
:1029900001F0010018B1084C0098A042F3D3064C96
:1029A0000098A04201D1002018BD0248406980B2C1
:1029B000FAE7000000800240FFFF04001EB500217E
:1029C0000022009201920292214A1268126802F0DB
:1029D000004282B1002200921E4A526902F0800237
:1029E00022B180221B4B5A6100229A609DE81C0094
:1029F00080E81C001EBD164A1268126802F40042EC
:102A0000B2B9134A1268126802F4807282B1104A95
:102A10001268126802F4007252B10D4A126812680C
:102A2000C2F30D42111F0A4A12689268019200E037
:102A300000210091064A12680292054A1268D26883
:102A4000034B1A609DE81C0080E81C0000BFD1E722
:102A500018020020009002400348006840F0010086
:102A600001490860704700000090024010B5012045
:102A7000FFF7FAFE0120FFF7D7FEFFF769FC012000
:102A8000FFF70EFC0120FFF7C7FB10BD012101601D
:102A9000002141608160C16001614FF4804141616A
:102AA00000218161C1614FF4006101620021416236
:102AB0008162C162016341638163C163402101643A
:102AC0002021416400218164C16401654165816503
:102AD000C16501668021416600218166C16601678A
:102AE00041678167C1674FF08061C0F8801049106D
:102AF000C0F884100021C0F888104FF40011C0F80D
:102B00008C100021C0F89010C0F89410C0F89810F4
:102B1000C0F89C10C0F8A0104FF00071C0F8A410CD
:102B20004912C0F8A8108901C0F8AC104912C0F8C9
:102B3000B0100021C0F8B410C0F8B8107047000001
:102B4000014617480068006800F0004008B1002006
:102B50007047C1F30C00124A1268506010480068B8
:102B6000006840F040500E4A126810600C4800683F
:102B7000006840F000400A4A126810600948406945
:102B800000F0040020B10420064A5061002050608B
:102B900003480068C068024A10600120D8E70000BE
:102BA000140200200090024038B503460C46002174
:102BB000002000901448016901F01C014FF4784096
:102BC00000EAC32001434FF4F86000EA8410014397
:102BD00041F0020141F001010B484261016100BF77
:102BE0000098401C00900848016901F0010018B1EC
:102BF000064D0098A842F3D3044D0098A84201D195
:102C0000002038BD0120FCE700800240FFFF0400E7
:102C10002DE9F04F2DED048B8FB004468A4694EDDC
:102C2000070ABDEEC00AB0EE409A94ED070AF8EE2E
:102C3000C90A30EE600ADFED470A20EE200ABDEE39
:102C4000C00A10EE10BABBF1000F01DACBF1000B95
:102C500094ED110ABDEEC00A10EE105AD4ED110A1F
:102C600000EE105AB8EEC00A30EEC00AF2EE040AC6
:102C700020EE200ABDEEC00A10EE106A002E00DA27
:102C8000764294ED120ABDEEC08A94ED120AF8EE77
:102C9000C80A30EE600AF2EE040A20EE200ABDEE09
:102CA000C00A10EE107A002F00DA7F4294ED100A6D
:102CB000FDEEC08A94ED100AF8EEE80A30EE600AE4
:102CC000DFED240A20EE200ABDEEC00A10EE108AC5
:102CD000B8F1000F01DAC8F100084FF480615046E6
:102CE000FDF7E3FA94F84E0094F84D1094F84C2058
:102CF00094F83130CDE90B32CDE90D1094F8210074
:102D0000218BE28AA38ACDE90732CDE909108DED46
:102D1000039ACDF810B0CDED058ACDF81880009655
:102D20008DED018A2B460C4A4FF480615046029784
:102D300002F01CFF8146B9F1000F02DD1FFA89F095
:102D400000E00020AAF800040FB0BDEC048BBDE841
:102D5000F08F00000000C84228FC000870B5ADF5F7
:102D6000087D374802F0F2FE3648FEF761FF36492B
:102D70003448FFF74DFF3448B0F8000410B90DF5A2
:102D8000087D70BD00220121022007F013FC0446DB
:102D9000002C00DAF3E701200690002007900820BD
:102DA00006AB41F20502911F0090204607F0EEFAB3
:102DB00002208DF8090040F25B7007F006FAADF8CA
:102DC0000A0022A006F0FCF80390102202A9204677
:102DD00007F090F9002806DA20A002F0B7FE20469E
:102DE00006F0DBFFCBE708AB2A4A2BA12DA000F0B1
:102DF00071FC06460023324608A9204607F002FA75
:102E000032200BF015F91048B0F8002408AB014649
:102E100028A000F0A1FC06460023324608A920465F
:102E200007F0F0F90546002D05DD0748B0F800145D
:102E30002D4802F08BFE204606F0AFFF00BF9EE754
:102E400058FB000800E2012050E201203138332E07
:102E50003233302E34302E33390000002D3E205BCB
:102E600045746865726E6574204572726F725D207C
:102E7000E697A0E6B395E8BF9EE68EA5E588B0206C
:102E80004F6E654E657420E4BA91E7ABAFEFBC813D
:102E90005C720A00A0FB0008504773373344343794
:102EA0005A66000073746D3332663430377A677453
:102EB00036000000247379732F504773373344343E
:102EC000375A662F73746D3332663430377A6774CD
:102ED000362F7468696E672F70726F7065727479BF
:102EE0002F706F737400000010FB000800B599B0DC
:102EF000B2A002F02BFE01217A2001F0FDF90121A0
:102F0000084601F029FA4FF40040179001208DF88F
:102F1000600000208DF8620002208DF86100012021
:102F20008DF8630017A9AD4800F044FA4FF63370EE
:102F3000179002208DF8600000208DF862000320B9
:102F40008DF8610001208DF8630017A9A44800F0F6
:102F500031FA4FF68370179002208DF86000002040
:102F60008DF8620003208DF8610001208DF8630068
:102F700017A99C4800F01EFA4FF23F00179002205C
:102F80008DF8600000208DF8620003208DF861004C
:102F900001208DF8630017A9934800F00BFA40F266
:102FA0003F40179002208DF8600000208DF86200ED
:102FB00003208DF8610001208DF8630017A98B486C
:102FC00000F0F8F90C220021854800F03BFA0C22B1
:102FD0000121834800F036FA0C220421804800F0D9
:102FE00031FA0C2205217E4800F02CFA0C2208212F
:102FF0007B4800F027FA0C220921794800F022FAD8
:103000000C220A21764800F01DFA0C220B2174488C
:1030100000F018FA0C221146714800F013FA0C2245
:103020000D216F4800F00EFA0C220E216C4800F0C2
:1030300009FA0C220F216A4800F004FA0C22002140
:10304000684800F0FFF90C220121664800F0FAF907
:103050000C220721634800F0F5F90C220821614891
:1030600000F0F0F90C2209215E4800F0EBF90C2287
:103070000A215C4800F0E6F90C220B21594800F0C7
:10308000E1F90C221146574800F0DCF90C220D2121
:10309000544800F0D7F90C220E21524800F0D2F922
:1030A0000C220F214F4800F0CDF90C2200214E4890
:1030B00000F0C8F90C2201214B4800F0C3F90C22A2
:1030C0000221494800F0BEF90C220321464800F0D5
:1030D000B9F90C220421444800F0B4F90C2205216E
:1030E000414800F0AFF90C2211463F4800F0AAF920
:1030F0000C220D213C4800F0A5F90C220E213A4883
:1031000000F0A0F90C220F21374800F09BF90C22A7
:103110000021364800F096F90C220121334800F0D6
:1031200091F90C220221314800F08CF90C22032184
:103130002E4800F087F90C2204212C4800F082F977
:103140000C220521294800F07DF90C220A2127488C
:1031500000F078F9002001900290082003900020F0
:103160000490059006900790042008900020099094
:103170000A9010200B9000200C900E900D900F9054
:1031800010904FF4805011900020129013901490E2
:1031900001A81590169016A002F0D8FC08A800F01F
:1031A00077F81CA002F0D2FC0121042000F056F8B0
:1031B00020A002F0CBFC19B000BD00005B45787484
:1031C0007372616D5D20456E61626C696E6720632C
:1031D0006C6F636B732E2E2E0D0A000000040240EC
:1031E000000C02400010024000140240001802408F
:1031F0005B4578747372616D5D20496E69746961B5
:103200006C697A696E672046534D432E2E2E0D0A47
:10321000000000005B4578747372616D5D20456E3F
:1032200061626C696E672046534D432E2E2E0D0A47
:10323000000000005B4578747372616D5D20496E1B
:10324000697469616C697A6174696F6E20636F6D0E
:10325000706C657465210D0A0000000051B1820098
:10326000A2F1C042126842F001038200A2F1C04202
:10327000136009E08200A2F1C0421268034B1A40B9
:103280008300A3F1C0431A6070470000FEFF0F00E7
:1032900030B50021002200230468A400A4F1C0443A
:1032A0002168424C2140D0E901452C43C5682C439C
:1032B00005692C4345692C4385692C43C5692C431A
:1032C000056A2C43456A2C43856A2C43C56A2C4306
:1032D000056B2C4321430468A400A4F1C044216081
:1032E0008468082C0BD10468A400A4F1C0442468AD
:1032F00044F040050468A400A4F1C04425600468BB
:10330000641CA400A4F1C044226802F04042446B53
:103310002468456B6D6844EA0514456BAD6844EA62
:103320000524456BAD8944EA0544456B2D8A44EA82
:103330000554456B2D7D44EA0564456BAD692C430E
:1033400022430468641CA400A4F1C0442260C46A3F
:10335000B4F5804F20D10468A400A4F1C044D4F88F
:103360000431134C2340846B2468856B6D6844EAF8
:103370000514856BAD6844EA0524856BAD8944EA84
:103380000544856BAD692C4323430468A400A4F174
:10339000C044C4F8043107E06FF070450468A4002D
:1033A000A4F1C044C4F8045130BD00008000F7FF10
:1033B0000000F0CFF0B50A4600210023002400BF32
:1033C0003DE0012505FA01F3156805EA03049C4276
:1033D00034D105684F000326BE40B543056015791A
:1033E0004E00B5400668354305601579012D02D0C1
:1033F0001579022D16D185684F000326BE40B543CE
:10340000856055794E00B5408668354385604568CE
:1034100001268E40B5434560456896798E40B6B228
:1034200035434560C5684F000326BE40B543C560BF
:10343000D5794E00B540C6683543C560491C102992
:10344000BFD3F0BDF0B5002300244D07ED0E02FA06
:1034500005F3CE1000F1200555F826504E07F70E63
:103460000F26BE40B543CF1000F1200646F8275086
:10347000CE1000F1200555F8265045EA0304CE1081
:1034800000F1200545F82640F0BD024600201369F2
:103490000B400BB1012000E00020704741837047D2
:1034A0000183704700BFFEE71CB50121112000F029
:1034B00023FF1820009000208DF8040003208DF8D1
:1034C000050001208DF8070069460648FFF772FFE6
:1034D0000120009002208DF8070069460248FFF79E
:1034E00069FF1CBD001002400000024010B50446F8
:1034F000012C01D1234908702248007858B31021CB
:103500002148FFF7C2FF50B108211F48FFF7BDFF58
:1035100028B101211D48FFF7B8FF01281BD10A205F
:1035200003F0A4FC00201749087010211648FFF78B
:10353000ACFF08B9012010BD08211348FFF7A5FF13
:1035400008B90220F7E701211048FFF79EFF012884
:1035500015D10320EFE710210B48FFF796FF012854
:103560000DD108210848FFF790FF012807D101215C
:103570000648FFF78AFF10B90120024908700020B1
:10358000D9E700006701002000100240000002405F
:103590001CB5002401214D2000F0AEFE012188035E
:1035A00000F0FAFE012001F0D9FC862000900320F3
:1035B0008DF8050002208DF8040000208DF806002B
:1035C0008DF8070069463048FFF7F4FE0B22012111
:1035D0002D48FFF737FF0B2202212B48FFF732FF60
:1035E0000B2207212848FFF72DFF4FF4D040009011
:1035F00069462648FFF7DEFE0B2211462348FFF7F7
:1036000021FF0B220D212148FFF71CFF0B220E2169
:103610001E48FFF717FF3220009069461C48FFF74D
:10362000C9FE0B2201211A48FFF70CFF0B220421CF
:103630001748FFF707FF0B2205211548FFF702FF88
:103640000820009001208DF8040000208DF806006D
:1036500069461048FFF7AEFE08210E48FFF71EFF2F
:10366000322003F003FC08210A48FFF719FF32203B
:1036700003F0FCFBFEF7A8FDFFF790F804460CB939
:1036800001201CBD0020FCE70000024000180240A1
:1036900000080240000C02401CB50121202000F06F
:1036A0002BFE01208DF8040000208DF806004FF459
:1036B000C060009002208DF8050000208DF8070002
:1036C00069460248FFF776FE1CBD00000014024068
:1036D00000BFFEE72DE9F043C3B007468946904698
:1036E0001E46002403A9081939460AF01FFE0444A7
:1036F00003A9081949460AF019FE044403A9081948
:1037000041460AF013FE044410A207CA8DE80700E0
:103710000025102228466D1C325404F10A0170194C
:1037200003F0EFFC054470190099016001994160B4
:10373000BDF8081001810A357019224603A9FCF76B
:103740009BFD2544284643B0BDE8F08300044D515D
:10375000545404C2003C00002DE9F04780468946DD
:1037600017461D4600244046FCF7C8FD0646B01C1F
:1037700000EB070A30222046641C2A5428195146BF
:1037800003F0BFFC0444C6F307222046641C2A54FD
:103790002046641C2E54281932464146FCF76CFD25
:1037A000344428193A464946FCF766FD3C44204615
:1037B000BDE8F0870EB50121172000F09DFD012125
:1037C000084600F0B9FD5020019002208DF8080055
:1037D00000208DF80A0003208DF8090001208DF8E3
:1037E0000B0001A93A48FFF7E5FDC020019001A9AF
:1037F0003848FFF7DFFD4FF43C60019001A93648DF
:10380000FFF7D8FD6020019001A93448FFF7D2FDF1
:103810000D2204212E48FFF715FE0D2206212C480B
:10382000FFF710FE0D2207212A48FFF70BFE0D229D
:1038300006212948FFF706FE0D2207212648FFF73B
:1038400001FE0D2208212448FFF7FCFD0D2209216D
:103850002148FFF7F7FD0D220B211F48FFF7F2FD6E
:103860000D2206211B48FFF7EDFD0D2205211B4807
:10387000FFF7E8FD0D2206211848FFF7E3FDFDF7ED
:10388000D5FC0020164908804881888108812020C5
:103890008880002048808020C8800846FDF782FD8F
:1038A0000120FDF779FC01210846FDF769FD4E2056
:1038B0008DF8000006208DF8010000208DF8020030
:1038C00001208DF80300684600F00EF80EBD0000E0
:1038D00000000240000402400008024000100240C4
:1038E0001A8B01207047000070B5002100230F22C1
:1038F000C4781CB3174C246804F4E064C4F5E06495
:10390000C4F30721C1F10404E3B20A4144789C40A6
:10391000E1B28478144021430C07210E0E4C057847
:103920006155047804F01F050124AC4005786D1141
:10393000AD0005F1E025C5F8004109E0047804F088
:103940001F050124AC40054D0678761145F8264048
:1039500070BD00000CED00E000E400E080E100E05C
:1039600002490143024A1160704700000000FA0555
:103970000CED00E070B50446042C03DAC4F1040039
:10398000C5B201E0201FC5B2032143F2122000F0AE
:1039900085FC2807010E45F2875000F07FFC042CBF
:1039A00005DA092145F2885000F078FC04E0012195
:1039B00045F2885000F072FC132143F2122000F00F
:1039C0006DFCA32143F2122000F068FC70BD0000E2
:1039D00070B50546062D00DD0625032143F21220B1
:1039E00000F05CFC1E2145F2813000F057FC5B21A9
:1039F00045F2823000F052FC082145F2833000F09D
:103A00004DFC00240CE005EB4502114B03EB420298
:103A1000115D45F28432A01800F040FC601CC4B275
:103A2000062CF0DB982145F28B3000F037FC0121A9
:103A300045F28A3000F032FC132143F2122000F0EC
:103A40002DFCA32143F2122000F028FC70BD0000E1
:103A500048F6000870B5044600252026072C1AD227
:103A6000DFE804F004080C191013160014200546B2
:103A7000064610E01820054606460CE01C200546C8
:103A8000064608E01025242605E01825282602E031
:103A90001C252C2600BF00BF032143F2122000F09A
:103AA000FDFB294645F2855000F0F8FB314645F212
:103AB000865000F0F3FB132143F2122000F0EEFBDE
:103AC000A32143F2122000F0E9FB70BD10B50446BB
:103AD000022143F2160000F0E1FB022143F21C0038
:103AE00000F0DCFB2CB1022143F2190000F0D6FB00
:103AF00004E0002143F2190000F0D0FB10BD0000EB
:103B00001CB50121402000F0F7FB01208DF80400D6
:103B100002208DF8050000208DF8060001208DF8A8
:103B200007004FF40240009069460E48FFF742FC40
:103B30004FF400410B48FFF7B1FC142003F096F955
:103B40004FF400710748FFF7A9FC052003F08EF938
:103B50004FF400410348FFF7A3FC142003F086F95B
:103B60001CBD00000018024010B50446072C7DD291
:103B7000DFE804F0041E38526C88A200FF2145F2F1
:103B8000010000F08BFB01214FF4AB4000F086FBFD
:103B9000802145F2815000F081FB002145F28250E6
:103BA00000F07CFB012145F2885000F077FB9EE09D
:103BB000FF2145F2010000F071FB01214FF4AB4001
:103BC00000F06CFB6F2145F2815000F067FB402153
:103BD00045F2825000F062FB012145F2885000F06E
:103BE0005DFB84E0FF2145F2010000F057FB01215D
:103BF0004FF4AB4000F052FB402145F2815000F001
:103C00004DFB6F2145F2825000F048FB012145F247
:103C1000885000F043FB6AE0FF2145F2010000F00C
:103C20003DFB01214FF4AB4000F038FB002145F291
:103C3000815000F033FB802145F2825000F02EFBD2
:103C4000012145F2885000F029FB50E0FF2145F2A8
:103C5000010000F023FB01214FF4AB4000F01EFBFC
:103C60006F2145F2815000F019FB00E03EE0402159
:103C700045F2825000F012FB022145F2885000F01C
:103C80000DFB34E0FF2145F2010000F007FB0121AC
:103C90004FF4AB4000F002FB402145F2815000F0B0
:103CA000FDFA6F2145F2825000F0F8FA022145F248
:103CB000885000F0F3FA1AE0FF2145F2010000F00D
:103CC000EDFA01214FF4AB4000F0E8FA002145F293
:103CD000815000F0E3FA802145F2825000F0DEFAD4
:103CE000022145F2885000F0D9FA00E000BF00BF81
:103CF00010BD000070B558A001F028FF62A001F0CF
:103D000025FF69A001F022FF73A001F01FFFFFF75C
:103D1000F7FE77A001F01AFF00F040FF052003F046
:103D2000A5F87BA001F012FF00F076FA05462946BF
:103D30007EA001F00BFF45F24060854204D081A0D7
:103D400001F004FF012070BD86A001F0FFFE1121EB
:103D500043F2031000F0A2FA822143F2080000F0BF
:103D60009DFA322003F082F884A001F0EFFE0024D7
:103D70000DE08D4A02EB840291788B4A32F82400E0
:103D800000F08CFA642003F085F8601C84B2CF2C1C
:103D9000EFD386A001F0DAFE0120FFF797FE322074
:103DA00003F064F889A001F0D1FE07F0FFFD322096
:103DB00003F05CF88FA001F0C9FE002000F0A8F924
:103DC0000020FFF705FE0420FFF7D4FD0320FFF7D6
:103DD00041FE0F2000F02FFA322003F047F890A0A8
:103DE00001F0B4FE4FF4F0734FF420720021042070
:103DF00000F0A5F994A001F0A9FE022143F2080009
:103E000000F04CFA322003F031F896A001F09EFE4B
:103E100044F2407000F0D3F90646314699A001F013
:103E200095FE4FF4864000F0CAF9064631469EA042
:103E300001F08CFE43F2080000F0C1F9064631465D
:103E4000A1A001F083FEA8A001F080FE16A001F061
:103E50007DFE002077E700000D0A3D3D3D3D3D3DE4
:103E60003D3D3D3D3D3D3D3D3D3D3D3D3D3D3D3D82
:103E70003D3D3D3D3D3D3D3D3D3D3D3D3D3D3D3D72
:103E80003D3D0D0A000000004F56353634302043CA
:103E9000616D65726120496E697469616C697A61EE
:103EA00074696F6E0D0A00003D3D3D3D3D3D3D3D59
:103EB0003D3D3D3D3D3D3D3D3D3D3D3D3D3D3D3D32
:103EC0003D3D3D3D3D3D3D3D3D3D3D3D3D3D3D3D22
:103ED0000D0A0D0A000000005B315D20486172642C
:103EE000776172652072657365742E2E2E0D0A003F
:103EF0005B325D205343434220696E697469616C93
:103F0000697A6174696F6E2E2E2E0D0A0000000012
:103F10005B335D2052656164696E672063616D6526
:103F200072612049442E2E2E0D0A000020202020F0
:103F300043616D6572612049443A20307825303400
:103F4000580D0A005B4552524F525D2043616D652A
:103F50007261204944206D69736D61746368210D3D
:103F60000A0000005B345D20536F667477617265F0
:103F70002072657365742E2E2E0D0A005B355D2050
:103F800057726974696E6720696E697469616C69DA
:103F90007A6174696F6E2072656769737465727394
:103FA0002E2E2E0D0A000000B4F200085B365D20B4
:103FB000456E61626C696E6720666C617368206C27
:103FC000696768742E2E2E0D0A0000005B385D2094
:103FD00053657474696E67204A504547206D6F645D
:103FE00065202836343078343830292E2E2E0D0AAC
:103FF000000000005B395D2053657474696E6720B2
:10400000696D616765207175616C69747920706193
:1040100072616D65746572732E2E2E0D0A0000009C
:104020005B31305D2053657474696E67206F757401
:104030007075742073697A65202836343078343886
:1040400030292E2E2E0D0A005B31315D20456E6128
:10405000626C696E67206F75747075742E2E2E0DEC
:104060000A0000005B31325D20566572696679692D
:104070006E672073657474696E67732E2E2E0D0A39
:1040800000000000202020203078343734302028F1
:10409000706F6C617269747929203D203078253009
:1040A00032580D0A000000002020202030783433E0
:1040B00030302028666F726D617429203D20307881
:1040C000253032580D0A000020202020307833306F
:1040D00030382028636F6E74726F6C29203D203059
:1040E00078253032580D0A000D0A5B4F56353634AC
:1040F000305D20496E697469616C697A6174696FB9
:104100006E207375636365737366756C210D0A00A9
:1041100010B50446032143F2122000F0BFF82146F7
:1041200045F28F5000F0BAF8132143F2122000F04C
:10413000B5F8A32143F2122000F0B0F810BD2DE92C
:10414000F04104460D4616461F46032143F2122055
:1041500000F0A4F8311243F6080000F09FF8F1B225
:1041600043F6090000F09AF8391243F60A0000F00D
:1041700095F8F9B243F60B0000F090F8211243F6DF
:10418000100000F08BF8E1B243F6110000F086F861
:10419000291243F6120000F081F8E9B243F6130049
:1041A00000F07CF8132143F2122000F077F8A321ED
:1041B00043F2122000F072F80020BDE8F08170B5E3
:1041C0000446002500F06CFD782000F09DFD642081
:1041D00002F060FE201200F097FD642002F05AFE0B
:1041E000E0B200F091FD642002F054FE00F072FD98
:1041F000642002F04FFE00F053FD792000F084FDB2
:10420000642002F047FE00F013FD054600F0F0FCCC
:1042100000F060FD284670BD70B543F20A00FFF75C
:10422000CEFF044643F20B00FFF7C9FF054645EAFF
:104230000426304670BD10B50446212C0ADA6521EB
:1042400045F2083000F02AF8214645F2023000F02D
:1042500025F822E0252145F2083000F01FF808215A
:104260004FF4A64000F01AF8302145F2013000F07A
:1042700015F8102145F2023000F010F8002145F247
:10428000033000F00BF8082145F2093000F006F881
:10429000302145F20A3000F001F810BD70B5044637
:1042A0000D46002600F0FCFC782000F02DFD00B14A
:1042B0000126642002F0EEFD201200F025FD00B181
:1042C0000126642002F0E6FDE0B200F01DFD00B121
:1042D0000126642002F0DEFD284600F015FD00B145
:1042E000012600F0F7FC304670BD0000014908626D
:1042F0007047000000000E4229B1064A12680243CE
:10430000044B1A6004E0034A12688243014B1A60AE
:10431000704700003038024029B1064A1268024353
:10432000044B1A6004E0034A12688243014B1A608E
:10433000704700001038024029B1064A1268024353
:10434000044B1A6004E0034A12688243014B1A606E
:10435000704700003438024029B1064A126802430F
:10436000044B1A6004E0034A12688243014B1A604E
:10437000704700003838024029B1064A12680243EB
:10438000044B1A6004E0034A12688243014B1A602E
:10439000704700004038024029B1064A12680243C3
:1043A000044B1A6004E0034A12688243014B1A600E
:1043B0007047000044380240F0B50021002200247C
:1043C000022500260223324F3F6807F00C0121B17D
:1043D000042905D0082937D105E02E4F076036E0C3
:1043E0002D4F076033E02A4F3F1F3F68C7F38056C9
:1043F000274F3F1F3F6807F03F036EB1264FB7FBC3
:10440000F3F7DFF88CC0ACF1040CDCF800C0CCF39F
:10441000881C07FB0CF40CE01E4FB7FBF3F7DFF82A
:1044200070C0ACF1040CDCF800C0CCF3881C07FBB6
:104430000CF4174F3F1F3F68C7F301477F1C7D00F7
:10444000B4FBF5F7076002E0124F076000BF00BF42
:104450000F4F3F6807F0F0010909104F7A5C0768B9
:10446000D74047600A4F3F6807F4E051890A0B4F75
:104470007A5C4768D7408760054F3F6807F4604122
:10448000490B064F7A5C4768D740C760F0BD000013
:10449000083802400024F40000127A0000000020D6
:1044A00010B501460022002300204A11012A02D142
:1044B0000A4C236808E0022A03D1084C70342368B0
:1044C00002E0064C7434236801F01F02012494407A
:1044D0001C400CB1012000E0002010BD003802405B
:1044E0000149086070470000800E4742014908609A
:1044F000704700003C0E4742002100F44072B2F5C4
:10450000407F08D1094A116821F4F811084A024095
:104510001143064A1160054A68321268C0F30B0362
:104520001A43024B68331A60704700000838024093
:10453000FFFCFF0F014600BF080900EB80004200AE
:1045400001F00F001044C0B270470146002204E0A1
:10455000501CC2B2A1F10A00C1B20A29F8DA100750
:1045600041EA10607047000008B500220092002068
:104570000021104A126802F04002CAB9421E0D4BD7
:104580001A6000BF0B4A126802F04001009A521CE8
:104590000092009AB2F5803F01D00029F2D0054A7E
:1045A000126802F040020AB1012002E0002000E09F
:1045B000012008BD0C2800400348006820F080005E
:1045C00001490860704700000C28004070B506469D
:1045D0000C4600250E4800680E4900EA0105280C2B
:1045E000E070C5F30420607005F03F00A070C5F3D3
:1045F000423020705EB9E078FFF79CFFE070607891
:10460000FFF798FF6070A078FFF794FFA07070BD6F
:10461000042800403FFFFF0070B506460C46002509
:104620000F4800680F4900EA0105C5F305402070F6
:10463000C5F30620607005F07F00A07005F48000CF
:10464000000CE0705EB92078FFF774FF207060788E
:10465000FFF770FF6070A078FFF76CFFA07070BD6F
:10466000002800407F7F7F001FB5044600F066FAF7
:104670000D490020FFF7D0FF0C490020FFF7A6FFEF
:104680000948807808494978074A1278074B9B788F
:10469000CDE90032CDE9021004484378C27804A184
:1046A000204601F07BFA1FBD2000002024000020DE
:1046B0003230253032642D253032642D253032647D
:1046C00020253032643A253032643A253032640095
:1046D00030B504460025CA201549086053200860FB
:1046E000FFF742FF00B91DE011481C38006820F0B8
:1046F00040000F491C3908600846006821680843DB
:104700000B491C3908600A491439A068086008463A
:104710000068A18840EA0140054914390860FFF7A4
:104720004BFF0125FF2002490860284630BD0000EC
:104730002428004000B587B035A001F007FA012118
:104740000807FFF719FE0120FFF7D0FD36A001F0A2
:10475000FDF90120FFF7C4FE00BF6120FFF7A0FEB6
:104760000028FAD03AA001F0F1F94FF40070FFF7F9
:10477000C3FE0120FFF7BAFE3AA001F0E7F900F00E
:10478000DDF940A001F0E2F97F200590FF200690BE
:104790000020049004A8FFF79BFF41A001F0D6F988
:1047A0000020454908704870887000F019F91A20F7
:1047B0004249C870012048708870042008700020A9
:1047C00000F0AAF83EA001F0C1F900F0B7F93A49AB
:1047D0000020FFF721FF39490020FFF7F7FE364898
:1047E000807835494978344A1278CDE90021029021
:1047F000324883784278C1783D4801F0A7F900201B
:10480000FFF774FD3BA001F0A1F907B000BD000067
:104810005B5254435D20496E697469616C697A69C1
:104820006E672E2E2E0D0A005B5254435D205057AA
:104830005220616E64204261636B75702061636316
:1048400065737320656E61626C65640D0A0000001B
:104850005B5254435D204C53492072656164790D6D
:104860000A0000005B5254435D2052544320636CA5
:104870006F636B20656E61626C656420284C5345E4
:10488000290D0A005B5254435D2052544320737932
:104890006E6368726F6E697A65640D0A00000000CD
:1048A0005B5254435D2052544320696E69746961C0
:1048B0006C697A65640D0A00200000202400002045
:1048C0005B5254435D2044656661756C7420746965
:1048D0006D65207365743A20323032362D30312DBB
:1048E00030312030303A30303A30300D0A0000009C
:1048F00050F700085B5254435D20496E697469614A
:104900006C697A6174696F6E20636F6D706C657429
:1049100065640D0A000000002DE9F04105460C46D3
:10492000002600274DB9607800F01000102804D14F
:10493000607820F010000A30607005B908E06078F7
:10494000FFF7F8FD0646A078FFF7F4FD064600BF26
:1049500055B1E0780004617840EA0120A17808436D
:10496000217840EA413611E0E078FFF7EEFD4FEAAA
:1049700000486078FFF7E9FD48EA0028A078FFF7D3
:10498000E4FD48EA0008207848EA4036CA20124987
:10499000086053200860FFF7E7FD08B9002714E01E
:1049A0000E4830400C4920390860FFF705FE0A48E0
:1049B0001C38006800F0200030B900F0BFF808B9DA
:1049C000002702E0012700E00127FF2002490860DC
:1049D0003846BDE8F0810000242800403FFFFF007A
:1049E0002DE9F04105460C46002600274DB92E481A
:1049F000006800F0400000B102E00020E07000BF5D
:104A00000DE02948006800F0400020B12078FFF751
:104A100091FD064602E00020E07000BF00BF55B1E6
:104A200020780004617840EA0120A1780843E17809
:104A300040EA014611E02078FFF787FD4FEA004881
:104A40006078FFF782FD48EA0028A078FFF77DFD37
:104A500048EA0008E07848EA0046CA2012491C31BA
:104A6000086053200860FFF77FFD08B9002713E0B6
:104A70000E4830400C4908390860FFF79DFD0A4890
:104A8000006800F0200030B900F058F808B900279D
:104A900002E0012700E00127FF2003491C310860E4
:104AA0003846BDE8F0810000082800407F7F7F0085
:104AB00010B58AB0044604A805A906AA07ABCDE93B
:104AC0000032CDE9021008AB09AA15A12046FBF778
:104AD00047FC01210807FFF74FFC0120FFF706FC08
:104AE0006421099890FBF1F201FB12001149C87092
:104AF00008984870079888700020FFF70DFF0E494E
:104B00000698087005984870049888700020FFF790
:104B100067FF00F013F80020FFF7E8FB0AB010BDB4
:104B200025642D25642D25642025643A25643A25C5
:104B300064000000240000202000002008B50022AE
:104B4000009200200021CA22134B1A6053221A60DF
:104B5000114A183A126822F0A0020F4B183B1A6053
:104B600000BF0D4A183A126802F02001009A521C48
:104B70000092009AB2F5003F01D00029F1D0064A18
:104B8000183A126802F020020AB1012000E0002069
:104B9000FF22014B1A6008BD242800401CB50121EA
:104BA0000820FFF7A9FBC020009001208DF8040029
:104BB00000208DF8060002208DF8050001208DF8F8
:104BC000070069460948FEF7F5FBC0210748FEF7D4
:104BD00067FC0648006820F4404004490860084625
:104BE000006840F4804008601CBD0000000C0240DA
:104BF00010B5022002F04EF901200B4908600B4964
:104C0000C1F89802022002F045F900200649091F68
:104C10000860022002F03EF900200449C1F89C021D
:104C2000022002F037F910BD9C82414200804142CF
:104C300070B500241748006820F44040154908600A
:104C4000084600680860082515E0022002F022F9F5
:104C50000120114908606006040E1048D0F81C02BB
:104C600008B1601CC4B2022002F014F900200A4905
:104C70000860681EC5B2002DE7DC0648006820F415
:104C80004040044908600846006840F480400860DD
:104C9000204670BD000C0240988241420080414293
:104CA00010B50120094908600949C1F8980202209D
:104CB00002F0F0F8002005490860022002F0EAF84E
:104CC00000200349C1F8980210BD00009C824142B7
:104CD0000080414210B5002009490860022002F01E
:104CE000D9F801200749C1F89802022002F0D2F851
:104CF000012003490860022002F0CCF810BD00003A
:104D00009C8241420080414270B5044600261BE06F
:104D100004F0800018B101202249086002E0002060
:104D2000204908606006040E022002F0B3F801205A
:104D30001C49091F0860022002F0ACF800201A4943
:104D4000C1F89802701CC6B2082EE1DB1748006853
:104D500020F44040154908600846006808600220B9
:104D600002F098F801200F49091F0860022002F0A4
:104D700091F80D48D0F81C0208B1012500E000258B
:104D800000200849091F08600848006820F44040D6
:104D9000064908600846006840F4804008602846DC
:104DA00070BD00009C82414200804142000C0240E4
:104DB0000149086070470000382C0140014600207E
:104DC000034A12680A400AB1012000E0002070473F
:104DD000342C014010B500F017F810BD0021094B2C
:104DE00002681A601A1D11686FF30A01D0E90123E5
:104DF0001A43C3681A4303691A431143014A121D37
:104E000011607047082C014010B54FF48070FFF717
:104E1000D5FF78B34C480078012814D100204B49C5
:104E200008600C204860402088600020C8604FF473
:104E3000806008610846FFF7D1FF0C20FCF762F99B
:104E40004349087002E00020414908704148006869
:104E500040F480703F490860081D00684CF23A3108
:104E600088433C49091D086001203B4908703848C7
:104E7000007810BDFFE70220FFF7A0FF78B1022005
:104E8000FFF796FF3348001D00684CF23A31884323
:104E90003049091D086002202D490870E9E7082003
:104EA000FFF78CFF78B10820FFF782FF2948001D2B
:104EB00000684CF23A3188432649091D08600420F5
:104EC00023490870D5E72020FFF778FF78B120202C
:104ED000FFF76EFF1F48001D00684CF23A3188430F
:104EE0001C49091D0860062019490870C1E71020F7
:104EF000FFF764FF78B11020FFF75AFF1548001D37
:104F000000684CF23A3188431249091D08600520B7
:104F10000F490870ADE74FF40070FFF74FFF80B105
:104F20004FF40070FFF744FF0A48001D00684CF280
:104F30003A3188430749091D086007200449087071
:104F400097E7002095E70000490100201084012028
:104F50004A010020382C01404B0100200149086023
:104F600070470000DC0027420FB408B509F0A6FC2A
:104F7000012810D000235A1E19461248006809F073
:104F800045FA02E0012009F053F80F48006800F0EC
:104F900001000028F6D103A800900099029800F0C3
:104FA00011FE0020009009F089FC012806D00023A2
:104FB0001A4619460348006809F016FB01B05DF86F
:104FC00014FB000098000020B86402400CB50020DB
:104FD000019000903448006840F480303249086005
:104FE00000BF3148006800F4003000900198401C78
:104FF0000190009818B90198B0F5A04FF1D12A4856
:10500000006800F4003010B10120009001E00020A1
:1050100000900098012846D123484030006840F0B5
:1050200080502149403108602048006840F44040E9
:105030001E4908601C48083000681B490831086098
:105040000846006840F4004008600846006840F4E4
:10505000A05008601648091F0860081F006840F04B
:105060008070091F086000BF0F48006800F00070E2
:105070000028F9D040F205700E4908600A4808304F
:10508000006820F0030008490831086008460068FD
:1050900040F00200086000BF03480830006800F0DC
:1050A0000C000828F8D10CBD003802400070004008
:1050B00008544007003C024000B589B00121084671
:1050C000FFF71AF901214802FFF766F9202007903F
:1050D00003208DF8200000208DF8230007A90F4839
:1050E000FEF768F9002001908DF808008DF809009E
:1050F0000390059001208DF8180001A90848FBF7DE
:10510000D9FE0723012205210548FBF7FDFE0121F9
:105110000348FBF7B6FE09B000BD000000000240E6
:105120000021014010B500240B48FBF749FF09E0BE
:10513000641C42F21070844204D908A000F006FDFD
:10514000002010BD02210448FBF7AAFE0028EFD082
:105150000148FBF7A1FEF4E7002101405B536D6FAE
:105160006B655D204144432054696D656F75742003
:105170004572726F72210D0A0000000010B52DED0E
:10518000048BFFF7CFFF09EE900AB8EE690ADFED56
:10519000210A20EE200ADFED200A80EE201AF0EE30
:1051A000418A9FED1E0AF4EEC08AF1EE10FA04D88F
:1051B0009FED1B0ABDEC048B10BD9FED160A30EE6F
:1051C000680A80EE288A9FED169A9FED160AB4EEC3
:1051D000C08AF1EE10FA19DDB2EE040AB4EEC08A0C
:1051E000F1EE10FA12D2B6EE000A38EE400ADFED08
:1051F0000E0A20EE200AB0EE409AB5EEC09AF1EE0B
:1052000010FA03D29FED060AB0EE409AB0EE490ABA
:10521000D0E700003333534000F07F45CDCC4C3D08
:1052200000000000CDCCCC3D0000C84210B5FFF717
:1052300043FF10BD042808D14FF0E021096941F077
:1052400004014FF0E022116107E04FF0E02109690D
:1052500021F004014FF0E0221161704710B500BF4A
:10526000502080F31188BFF34F8FBFF36F8F00BFC3
:1052700009F03AFB18B14FF080500449086000BFB4
:10528000002080F3118800BF10BD000004ED00E095
:1052900010B51548006840F47000134908601348C1
:1052A000006840F001001149086000200F490831F2
:1052B00008600E4800680E4908400C4908600D4817
:1052C000091D0860081F006820F48020091F08607D
:1052D000002006490C310860FFF778FE4FF00060AF
:1052E00001498039086010BD88ED00E000380240B7
:1052F000FFFFF6FE1030002410B540F22551214882
:1053000000F01BFB10B31F4800F0D0FBC4B21E48D6
:10531000008800F40040C8B91B48008800F48040B1
:1053200060B10A2C03D000201749088020E01648FD
:10533000008840F400401449088019E00D2C06D183
:105340001148008840F480400F49088010E00E4862
:105350000088C0F30D000D490C540B480088401C18
:105360000949088008460088C72801DD0020088018
:105370000821044800F0D4FA10B1024800F096FB6E
:1053800010BD000000100140180000206002002045
:1053900008B5012240F22551094800F0F8FA26200C
:1053A0008DF8000007208DF8010000208DF8020024
:1053B00001208DF803006846FEF796FA08BD00004C
:1053C0000044004010B540F22551264800F0B5FADF
:1053D00000283DD0234800F069FBC4B22248008871
:1053E00000F4004010BB0A2C06D11F48008840F48E
:1053F00000401D4908802BE01B48008800F48040D5
:1054000060B10A2C06D11848008840F400401649C3
:1054100008801DE000201449088019E00D2C06D1F9
:105420001148008840F480400F49088010E00E4881
:105430000088C0F30D000D490C540B480088401C37
:1054400009490880084600887F2801DD002008807F
:105450000821044800F064FA10B1024800F026FB6D
:1054600010BD0000004400401C0000204603002046
:1054700010B586B0044601214804FEF77DFF0121E6
:105480000846FEF739FF072202211A48FDF7DAFF26
:10549000072203211748FDF7D5FF0C2004900220B6
:1054A0008DF8140003208DF8150000208DF81600EB
:1054B00001208DF8170004A90E48FDF77BFF00942A
:1054C0000020ADF80400ADF80600ADF80800ADF816
:1054D0000C000C20ADF80A006946074800F07CFA81
:1054E0000121054800F007FA4021034800F0FAF9CD
:1054F00006B010BD00000240004400407FB52848BF
:10550000008800F40040002849D025480088C0F3F6
:105510000D050020234948550C46052222A12046AE
:10552000FAF70EFFA0B91822611D2148FAF7DAFE3A
:1055300000201F49087601204876601DFFF7B8FA61
:10554000611D1CA0FFF710FD22A000F075F81EE001
:10555000092222A12046FAF7F3FEC0B900200390E9
:105560000290019001A802AB03AA1FA1009020465F
:10557000FAF7F6FE032806D10D49039848830298EE
:1055800008770198487713A000F056F800BF002074
:105590000349088080210348FAF787FE00BF7FBDDA
:1055A0001C0000204603002054494D453A000000ED
:1055B000280300205B5254435D2053796E63656479
:1055C00020776974682045535033323A2025730D93
:1055D0000A0000004F4B0D0A00000000464C414DF0
:1055E000455F414F3A000000464C414D455F414FF9
:1055F0003A25642C464C414D455F444F3A25642C76
:10560000464952453A25640010B5044600BF802142
:10561000084800F085F90028F9D02146054800F037
:105620004AFA00BF4021034800F07AF90028F9D077
:1056300010BD00000044004010B5044604B910BD80
:1056400003E02078FFF7E0FF641C20780028F8D101
:1056500000BFF4E708B5012240F225510A4800F0E6
:1056600096F927208DF8000007208DF80100002012
:105670008DF8020001208DF803006846FEF734F92A
:1056800002A000F063FA08BD004800405B5553419A
:105690005254335D20E4B8ADE696ADE9858DE7BDA3
:1056A000AEE5AE8CE688900D0A00000010B540F221
:1056B0002551214800F041F910B31F4800F0F6F9D8
:1056C000C4B21E48008800F40040C8B91B480088D6
:1056D00000F4804060B10A2C03D0002017490880F4
:1056E00020E01648008840F400401449088019E082
:1056F0000D2C06D11148008840F480400F490880E5
:1057000010E00E480088C0F30D000D490C540B4802
:105710000088401C0949088008460088FF2801DDF0
:10572000002008800821044800F0FAF810B102486F
:1057300000F0BCF910BD0000004800401E00002031
:10574000C603002010B586B0044601210220FEF7F2
:10575000D3FD01218804FEF70FFE4FF44060049052
:1057600002208DF814008DF8150000208DF8160029
:1057700001208DF8170004A91648FDF71BFE07222B
:105780000A211448FDF75EFE07220B211148FDF7A0
:1057900059FE00940020ADF80400ADF80600ADF805
:1057A0000800ADF80C000C20ADF80A0069460A4864
:1057B00000F012F90121084800F09DF8214607A0E9
:1057C00000F0C4F910A000F0C1F91CA000F0BEF96F
:1057D00006B010BD00040240004800405B55534134
:1057E0005254335D20E5889DE5A78BE58C96E5AEA8
:1057F0008CE68890EFBC8CE6B3A2E789B9E78E8788
:105800003A20256C750D0A005B5553415254335DA7
:1058100020E8BF9EE68EA53A2053544D33322050E7
:105820004231302028545829202D3E2045535038ED
:105830003236362052580D0A000000005B555341A5
:105840005254335D20E8BF9EE68EA53A2053544D56
:10585000333220504231312028525829202D3E2009
:10586000455350383236362054580D0A0000000097
:1058700070B505460E4600240CE000BF40210A48E2
:1058800000F04EF80028F9D0295D074800F013F920
:10589000601C84B2B442F0DB00BF4021024800F03B
:1058A0003FF80028F9D070BD0048004010B504460C
:1058B0000BE000BF40210A4800F032F80028F9D080
:1058C00014F8011B064800F0F6F820780028F0D103
:1058D00000BF4021024800F023F80028F9D010BD95
:1058E0000048004001F40072B2F5007F00D100BF13
:1058F000CA430280704721B1828942F400528281FA
:1059000004E082894DF6FF731A40828170471AB114
:10591000838A0B43838202E0838A8B4383827047AE
:1059200002460020B1F5007F00D100BF13880B4074
:105930000BB1012000E00020704770B50246002442
:1059400000230025002040F66A16B14200D100BFB6
:10595000C1F3421501F01F03012606FA03F3012DDE
:1059600002D19689334006E0022D02D1168A3340D7
:1059700001E0968A33400C12012606FA04F41688D8
:10598000344013B10CB1012000E0002070BDF0B52F
:105990000346002400260025002040F66A17B9427D
:1059A00000D100BF1846C1F3421401F01F060127C1
:1059B00007FA06F5012C01D10C3004E0022C01D1CC
:1059C000103000E014301AB107682F43076002E07E
:1059D0000768AF430760F0BD2DE9FF4705460E4657
:1059E0000024A14600BFA046B08900B100BF2C8AA8
:1059F00024F44054F08804432C82AC8941F20C60BA
:105A00008443B08831890843718908430443AC81D9
:105A1000AC8A24F44074B0890443AC826846FEF733
:105A2000CBFC2048854202D01F48854202D1DDF8D8
:105A30000C9001E0DDF80890A88900F4004040B126
:105A400009EBC90000EB091031684900B0FBF1F720
:105A500007E009EBC90000EB091031688900B0FBD1
:105A6000F1F76420B7FBF0F004012009642101FB89
:105A70001078A88900F4004040B1322000EBC80043
:105A8000B0FBF1F000F00700044308E0322000EB27
:105A900008106421B0FBF1F000F00F0004432C81EA
:105AA000BDE8FF87001001400014014001468888CE
:105AB000C0F308007047C1F308028280704700BF3E
:105AC000FEE70000014800787047000066010020F2
:105AD0001CB501210420FEF70FFC042000900120DA
