:020000040800F2
:10000000189E012055020008A52C0008292A000886
:10001000712B0008011400083B4F0008000000008D
:100020000000000000000000000000009D0100082A
:10003000651C000800000000F1010008654600088A
:100040006F0200086F0200086F0200086F020008CC
:100050006F0200086F0200086F0200086F020008BC
:100060006F0200086F0200086F0200086F020008AC
:100070006F0200086F0200086F0200086F0200089C
:100080006F0200086F0200086F0200086F0200088C
:100090006F0200086F0200086F0200086F0200087C
:1000A0006F0200086F0200086F0200086F0200086C
:1000B0006F0200086F0200086F0200086F0200085C
:1000C0006F0200086F0200086F0200086F0200084C
:1000D0006F02000801470008CD470008B54A000834
:1000E0006F0200086F0200086F0200086F0200082C
:1000F0006F0200086F0200086F0200086F0200081C
:100100006F020008DD4100086F0200086F0200085E
:100110006F0200086F0200086F0200086F020008FB
:100120006F020008291900086F0200086F0200081A
:100130006F0200086F0200086F0200086F020008DB
:100140006F0200086F0200086F0200086F020008CB
:100150006F0200086F0200083D1900086F020008D6
:100160006F0200086F0200086F0200086F020008AB
:100170006F0200086F020008651500086F02000892
:100180006F0200086F020008DFF80CD000F078FC66
:1001900000480047C1700008189E01202A4B1968CA
:1001A0000868B0E8F04F80F30988BFF36F8F4FF015
:1001B000000080F3118870470000000006480068C6
:1001C000006880F3088862B661B6BFF34F8FBFF353
:1001D0006F8F00DF00BF00BF08ED00E0DFF80C000C
:1001E000016841F470010160704700BF88ED00E0D4
:1001F000EFF30980BFF36F8F134B1A681EF0100FD7
:1002000008BF20ED108A20E9F04F106008B44FF0CD
:10021000500080F31188BFF34F8FBFF36F8F08F04A
:100220008FFD4FF0000080F3118808BC1968086842
:10023000B0E8F04F1EF0100F08BFB0EC108A80F34A
:100240000988BFF36F8F7047BC000020EFF3058073
:10025000704700000648804706480047FEE7FEE773
:10026000FEE7FEE7FEE7FEE7FEE7FEE7FEE7FEE766
:10027000994600088901000840EA01039B0703D062
:1002800009E008C9121F08C0042AFAD203E011F8D5
:10029000013B00F8013B521EF9D27047D2B201E097
:1002A00000F8012B491EFBD270470022F6E710B57B
:1002B00013460A4604461946FFF7F0FF204610BDD4
:1002C00030B505462A460B4612F8010B13F8014BD0
:1002D00008B1A042F8D01CB1002802D06D1CF1E793
:1002E000284630BD10B5044604E00B7800F8013B09
:1002F00003B1491C521EF8D2204610BD10B5002291
:1003000000E0521C835C8C5CA34201D1002BF8D12D
:10031000D8B2E1B2401A10BD30B505460020034600
:1003200000E05B1C934205D2EC5CC85C201A01D152
:10033000002CF6D130BD00000FB400B58DB010A96F
:1003400009900B9000914FF0FF300A9000200C9024
:1003500005480690054807906A4609A80F9900F0DD
:100360007DFA0DB05DF814FB7908000897080008C5
:100370002DE9FF5F1D464FF0FF3BD5E90146914651
:100380005F464FF00008A9697F1C01988847296AD9
:10039000824688470028F6D1BAF1FF3F0CD024F4FA
:1003A000C064002E19DD600614D5BAF12B0F09D0F8
:1003B000BAF12D0F0ED103E0584604B0BDE8F09F0E
:1003C00044F48064A9697F1C01988847761E8246A0
:1003D000002E02DDBAF1300F03D0B9F1000F26D0A4
:1003E00032E0A969761E44F400747F1C01988847A6
:1003F0008246002E05DDBAF1780F06D0BAF1580F0B
:1004000003D0B9F1000F10D01EE0B9F1000F02D0F7
:10041000B9F1100F18D1A969761E24F400747F1C5D
:10042000019888478246102002E0082000E00A2058
:10043000814609E008FB0908A969761E44F40074A6
:100440007F1C019888478246002E05DD49465046AC
:1004500000F0F0F90028EDDAE96901988847A00575
:1004600002D46FF00100A8E7E00725D1600613D59C
:10047000600502D5C8F1000000E0404629680A1D69
:100480002A600968220501D5087015E0220701D508
:10049000088011E008600FE02868011D29600068ED
:1004A000210502D580F8008006E0210702D5A0F8DA
:1004B000008001E0C0F8008038467EE72DE9FE4F5D
:1004C000804681EA0300C00F0C46009021F00041F5
:1004D00023F00045B8EB0200A94105D24046214671
:1004E00090461C460B46024623F00040104347D07E
:1004F000270DC7F30A00C3F30A510290401A019076
:1005000040286BDAC3F3130040F4801B0098924636
:1005100020B10023D2EB030A63EB0B0B0198594681
:10052000C0F14002504600F054F906460D465046D0
:100530005946019A00F06CF910EB08006141002463
:1005400087EA115284EAE7731A4340D0009A62B3F3
:10055000019A012A4FEA075215DC001B61EB0201E8
:100560004FF0004202EA0752CDE90042001C41F57B
:10057000801132462B4600F0AEF903B0BDE8F08F93
:1005800040462146F9E7001B61EB0201001C41F5E2
:10059000801300185B412018A2F5001747EB0301F8
:1005A00040EAD570B6196D4111E06D084FEA360684
:1005B00045EAC0754FEA0752001B61EB0201001CBF
:1005C00041F5801149084FEA300000195141324687
:1005D0002B4603B0BDE8F04F00F06EB90098012241
:1005E00040000023D0EB020263EBE0730098214649
:1005F0004FEAE074B8EB000061EB0401E9E783F037
:1006000000435BE781F0004158E72DE9FE4F81EAA6
:10061000030404F0004421F0004100944FF0000B6B
:1006200023F0004350EA01045ED052EA03045BD099
:10063000C3F30A54C1F30A552C44A4F2F3340194D1
:10064000A0FB0254C1F3130141F48011C3F313035F
:1006500043F4801301FB024400FB034E840A970A13
:1006600044EA815447EA8357A4FB076802958D0A40
:1006700005FB07854FEA932C04FB0C542705029DCC
:100680004FEA065847EA1637B5EB08056EEB070C3C
:10069000870E920E47EA811742EA8312A7FB0201F6
:1006A000B6EB0B0164EB00042B0D43EA0C335E1830
:1006B00044EB1C50DA465146E7FB0201C5F3130434
:1006C0004FEA0B3343EA14534FEA0432019C43EAE6
:1006D0000603A4F10C040294009CCDE900B400F0E0
:1006E000FAF803B0BDE8F08F00200146F9E700F00A
:1006F000004230F000400AD0C10D01F56071C0F336
:10070000160042EA0151C208400711437047002019
:100710000146704730B5041E71F1000404DB4FF050
:100720000044404264EB0101141E73F1000405DB38
:100730001C464FF00043524263EB0403994208BF4A
:10074000904230BD30B50B460146002020220124E6
:1007500009E021FA02F59D4205D303FA02F5491B8F
:1007600004FA02F52844151EA2F10102F1DC30BDA5
:100770002DE9F05F0546002092469B4688460646D6
:10078000814640241BE0284641464746224600F069
:100790002FF853465A46C01A914110D311461846B5
:1007A000224600F016F82D1A67EB01084F46224644
:1007B0000120002100F00DF817EB00094E41201E2A
:1007C000A4F10104DFDC484631462A464346BDE831
:1007D000F09F202A04DB203A00FA02F10020704743
:1007E0009140C2F1200320FA03F31943904070476F
:1007F000202A04DB203A21FA02F00021704721FA76
:1008000002F3D040C2F120029140084319467047DC
:10081000202A06DBCB17203A41FA02F043EAE073C4
:1008200006E041FA02F3D040C2F1200291400843B1
:10083000194670473A2800D2303820F02002412A69
:1008400001D3A2F13700884201D34FF0FF30704747
:10085000026811441378016018467047D16004495A
:1008600051610449116200211161114600F020B963
:1008700051080008A50A0008426842B1016811F851
:10088000013B23B1521EC0E90012184670470121F6
:10089000C160881E704742685AB1C368016843B995
:1008A00083688B4205D0491E521CC0E9001200200B
:1008B00070474FF0FF30704710B5141E73F10004FD
:1008C00008DA401C41F1000192185B411A4301D142
:1008D00020F0010010BD2DE9F04D92469B4611B16C
:1008E000B1FA81F202E0B0FA80F220329046FFF7CE
:1008F00070FF04460F4640EA0A0041EA0B015346E6
:100900005A46084313D0114653EA010019D0C8F1E2
:1009100040025046FFF76CFF05460E4650465946CA
:100920004246FFF756FF084305D0012004E0204669
:100930003946BDE8F08D0020054346EAE0762C43B9
:1009400037430A986305E40AA0EB08000022FD0A79
:1009500044EA47540A3002D500200146E9E7010580
:1009600010196941DDE9084500196941BDE8F04DFC
:10097000A2E72DE9F04D81EA030404F0004B21F0D9
:10098000004514464FF0000A23F0004150EA0502EA
:1009900020D054EA01021DD0C5F30A570246C5F320
:1009A0001303C1F31300C1F30A5640F4801543F456
:1009B0008013A7EB0608101BD64608F2FD3873EB30
:1009C000050002D308F1010801E092185B41B8F17B
:1009D000000F03DA00200146BDE8F08D00204FF43F
:1009E0008011064684460EE0171B73EB050705D3FE
:1009F000121B63EB050306434CEA010C49084FEA5E
:100A0000300092185B4150EA0107EDD152EA030031
:100A100012D082EA040083EA0501084305D0101BC6
:100A2000AB4106D20122002306E000224FF0004332
:100A300002E06FF0010253101AEB06004CEB085174
:100A400010EB0A0041EB0B01BDE8F04DFFF734BF9E
:100A5000C1F30A52C1F3130140F2FF3341F4801194
:100A60009A4202DA00200146704740F233439A422C
:100A7000A2F2334202DC5242FFF7BABEFFF7A9BE30
:100A8000064C074D06E0E06840F0010394E80700DB
:100A900098471034AC42F6D3FFF77AFB28A300083E
:100AA00048A30008C0B24FF4F05100F097B900001D
:100AB0002DE9F34F8BB04FF0000801F10C000C460C
:100AC0004FF0010B46460DF1080A019062690121C1
:100AD00001989047051E2DD0252D2CD0216A8847DE
:100AE000C0B16269012101989047216A88470028B6
:100AF000F7D1411E62690198904700E0761CA16918
:100B00000B988847216A88470028F7D1E1690B983C
:100B10008847DBE7A1690B9888470746A84201D1BF
:100B2000761CD3E7E1690B9888477F1C02D1B8F1A6
:100B3000000F6FD046E1002762693D4639460198B3
:100B400090472A2804D16269012101989047012524
:100B5000DFF884926269012101989047A0F1300189
:100B60000A290AD24F45E5DC07EB870100EB410774
:100B7000303FDFD445F01005ECE7E90601D46FF013
:100B800000476C280AD04C2814D0682815D06A2851
:100B90000DD074281CD07A281AD01DE0626901217A
:100BA000019890476C2802D045F0040514E045F008
:100BB00002050DE045F020050AE062690121019877
:100BC0009047682802D045F0080505E045F4006527
:100BD0006269012101989047C4E9015765283DD019
:100BE00019DC58287AD00CDC452837D004DC2528BD
:100BF00026D0412831D131E046282FD047282CD1AA
:100C00002CE05B2877D0612828D063287CD064282A
:100C100023D15AE0D0E06F2848D008DC66281DD0E8
:100C200067281BD0692821D06E2816D127E07028AC
:100C300045D0732868D0752847D078280DD14DE06D
:100C4000A1690B988847054625283FF469AFE169FB
:100C50000B9888476D1C3FF46AAFB3E023466A46A1
:100C60006FF001000B99AFF300809EE045F040006B
:100C70006060A80723464FF0000236D43EE0E80744
:100C80007FF447AF2068011D21600068290501D568
:100C900006701BE7290701D5068017E7A90703D5CA
:100CA000F117C0E9006111E706600FE745F0400069
:100CB0006060A80723464FF0080216D41EE040F6F5
:100CC0000E0125EA0100606016E045F0400060601A
:100CD000A80723464FF00A0207D40FE045F0400072
:100CE0006060A80708D5234610226FF001000B9919
:100CF000AFF3008059E007E0234610226FF00100B7
:100D00000B99FFF735FB50E04FF000094F464B467B
:100D1000632802D05B2806D040E0E80601D4012019
:100D2000A06001273AE062690121019890475E289E
:100D300005D14FF001096269494601989047216940
:100D400039B900210A46534643F82120491C082995
:100D5000FADBB0B3216969B9C11700EBD162531155
:100D60000AEB830122F01F02821A01200B689040D7
:100D700003430B6062690121019890475D28E8D127
:100D8000B9F1000F09D00020514651F82020D2437C
:100D900041F82020401C0828F7DB02AB22460097D0
:100DA0006FF001000B99AFF3008000280CDA401CB3
:100DB00008D1BBF1000F05D04FF0FF300DB0BDE8FA
:100DC000F08FFFE74046F9E7E90701D108F1010894
:100DD00006444FF0000B79E6CCCCCC0C7F2801D92F
:100DE000002208E0064A02EB5002C007127800D148
:100DF000120902F00F0201209040084070470000E5
:100E000032A0000870B58C1810F8015B15F00703CC
:100E100001D110F8013B2A1106D110F8012B03E093
:100E200010F8016B01F8016B5B1EF9D12B0705D49B
:100E30000023521E0DD401F8013BFAE710F8013BE4
:100E4000CB1A921C03E013F8015B01F8015B521E00
:100E5000F9D5A142D8D3002070BD21B1826842F0FB
:100E60000102826003E0826822F001028260704722
:100E70000146C86C80B270470246002013680B40E0
:100E80000BB1012000E000207047000030B50246A1
:100E9000002000235068104C20400D790C6844EA73
:100EA00005242043506090680C4C2040D1E9035445
:100EB0002C438D682C434D7944EA450420439060CF
:100EC000D06A20F470000C7D641EE4B2234340EA33
:100ED0000350D06230BD0000FFFEFFFCFDF7FFC0F5
:100EE000F0B504460D4600200021092D11DDE06813
:100EF000A5F10A0606EB4607072606FA07F188431E
:100F0000A5F10A0606EB460603FA06F10843E0607F
:100F10000CE0206905EB4507072606FA07F1884330
:100F200005EB450603FA06F108432061072A0FDAAC
:100F3000606B561E06EB86071F2606FA07F18843EC
:100F4000561E06EB860605FA06F10843606322E0AA
:100F50000D2A0FDA206BD61F06EB86071F2606FA2E
:100F600007F18843D61F06EB860605FA06F108430B
:100F7000206310E0E06AA2F10D0606EB86071F264B
:100F800006FA07F18843A2F10D0606EB860605FA7C
:100F900006F10843E062F0BD816841F08041816064
:100FA0007047000010B5012007F01EFF0A490860D5
:100FB00000200A490870012048709FED090A084680
:100FC00080ED010A0020087248729FED060A08466B
:100FD00080ED030A10BD000040010020F8990120B7
:100FE0009A99993F0000C84210B51248006830B184
:100FF00000235A1E19460F48006807F023FF0120FE
:101000000D490870B2EE0E0A084680ED010A03F0A1
:10101000E5FF01200849087208A003F0EDFF05482C
:10102000006830B100231A4619460248006807F0EC
:10103000F7FF10BD40010020F89901200D0A3E3E47
:101040003E205B454D455247454E43595D204D611D
:101050006E75616C204F76657272696465204163BC
:1010600074697661746564212050756D70204F4EEF
:1010700021203C3C3C0D0A0010B504462348006882
:1010800030B100235A1E19462048006807F0DAFEE6
:101090001FA12046FFF714F940B101201F49087035
:1010A00003F09CFF01201D49087224E01CA120468A
:1010B000FFF706F940B101201849087003F080FFDE
:1010C00000201649087216E018A12046FFF7F8F82C
:1010D00030B100201149087017A003F08DFF0AE01D
:1010E0001EA12046FFF7ECF828B101200B4908703B
:1010F0001DA003F081FF0548006830B100231A46A7
:1011000019460248006807F08BFF10BD400100201F
:10111000434D443A50554D503A310000F899012062
:10112000434D443A50554D503A300000434D443AF7
:101130004D4F44453A3000003D3E20E5B7B2E681D0
:10114000A2E5A48D20414920E887AAE58AA8E6897E
:1011500098E7AEA1EFBC815C720A0000434D443AAF
:101160004D4F44453A3100003D3E20E5B7B2E58899
:1011700087E585A5E4BABAE5B7A5E68EA5E7AEA1F1
:10118000E6A8A1E5BC8FEFBC810D0A0070B52DED7E
:10119000028B04465948006830B100235A1E194694
:1011A0005648006807F04EFE554800782034E0703D
:1011B0005348407800EE100AB8EE400A84ED010A68
:1011C0004F484088A0604E488088A0814C48C08825
:1011D000E0814B48007A20744A4890ED010A84ED82
:1011E000080AE078203C28B994F8220010B9E08A77
:1011F000012801D1012000E000200546414890ED82
:10120000010A10EE101A0846FFF771FA41EC180BAC
:101210009FED3D0B53EC102BFFF77CFA11D202200F
:10122000384948729FED3A0A084680ED030A0020CB
:10123000487003F0C5FE0020324908720120087092
:1012400039E001202F494870BDB10320487294F85D
:10125000230010B194ED090A01E09FED2E0A294800
:1012600080ED030A007830BB2648007A18BB03F0F3
:10127000B5FE0120234908721DE094F8200008B152
:10128000012000E000201F49487294F8200010B1AE
:101290009FED210A01E09FED1E0A1A4880ED030A26
:1012A000007840B91748007A012804D103F088FE7D
:1012B00000201449087203F05BFE124908720846C8
:1012C000407A30346070084690ED030A84ED010ADC
:1012D000007A207708460078607708464078A07743
:1012E000303C0648006830B100231A4619460348CE
:1012F000006807F095FEBDEC028B70BD4001002038
:10130000089A0120F8990120000000000000244004
:101310000000C8420000AA420000704210B500243C
:101320000A48006878B100235A1E19460748006829
:1013300007F088FD0648047800231A46194603483A
:10134000006807F06DFE204610BD0000400100203F
:10135000F899012010B504460948006878B10023C7
:101360005A1E19460648006807F06CFD05480470CF
:1013700000231A4619460248006807F051FE10BDC6
:1013800040010020F899012010B52DED028BB0EE40
:10139000408A0B48006880B100235A1E194608484D
:1013A000006807F04FFD074880ED018A00231A46C8
:1013B00019460348006807F033FEBDEC028B10BDF0
:1013C00040010020F899012070B504460A480068E1
:1013D00088B100235A1E19460748006807F032FDFD
:1013E000064894E82E002EC000231A4619460248EB
:1013F000006807F015FE70BD40010020089A01202A
:1014000000BFFEE770B5044605E01648056805F024
:10141000450000B100E0F8E700BF042002F0D2FE72
:1014200020B1042002F0C8FE032070BD012002F0AC
:10143000C9FE20B1012002F0BFFE0120F5E70948F6
:1014400024380068A04201D01020EEE740F2FF509F
:1014500002F0B2FE03482038006808210840C0B2FC
:10146000E3E70000342C014030B10749096841F03E
:101470000101054A116005E00349096821F00101F5
:10148000014A1160704700000000055001494861A1
:10149000704700000000055030B10749096841F469
:1014A0008041054A116005E00349096821F4804143
:1014B000014A11607047000000000550F0B58FB080
:1014C00004460D4616461F460121880502F028F9FC
:1014D000144800F091FA00BF124800F039FB0028D0
:1014E000FAD14FF0007000900F4801900294002054
:1014F0000390049505904FF480600690800007905B
:1015000080000890002009904FF400300A900020DD
:101510000B900C900D900E906946024800F076FBFF
:101520000FB0F0BD28640240280005500020054996
:101530000860C8601F20486100208861C861086297
:101540004862704700000550014600200022044B0D
:101550001B6903EA01020AB1012000E00020704784
:101560000000055038B53D48007830B93CA005F082
:1015700085FD01203949087005E039A005F05CFDC2
:101580000020364908700120FFF7DEFF002864D0F4
:1015900035480068401C344908600021334800F099
:1015A0001FFA00BF3148006800F001000028F9D19F
:1015B0002E4800F0D7FA04464FF4C840A0EB840050
:1015C0002B49096888602A4800682A49884201D165
:1015D000294800E02748054600200090287988B96E
:1015E0000320234909680871214805600120234927
:1015F00008702348006850B169462148006807F028
:101600007DFA04E01F480068401C1E490860184825
:101610000068006815490C3108604FF4C850134940
:10162000091D08601849114800F0A6F91F20174944
:10163000486101210D4800F0D3F90120FFF726FF92
:10164000009848B1009838B14FF0805010490860B8
:10165000BFF34F8FBFF36F8F00BF38BD2C01002049
:101660006C656431000000002801002028640240FD
:10167000540000202C0000204000002084000020A6
:101680003801002074000020400F001000000550B9
:1016900004ED00E029B1074AD2680243054BDA6045
:1016A00006E0044AD268C3439BB21A40014BDA6099
:1016B000704700000000055000210E4A126844F2F5
:1016C00001039A430B4B1A601A46116840F6F272F6
:1016D0009143028843881A4383881A43C3881A4374
:1016E00003891A4343891A4383891A431143014AE0
:1016F000116070470000055010B5002013490870B4
:1017000001201349096808710021124800F068F9A6
:1017100000BF104800F01CFA0028FAD10C480068FD
:1017200000680C490C3108604FF400500949091D4C
:1017300008600949074800F01FF90121054800F039
:101740004FF90120FFF790FE10BD00006D00002052
:101750005400002028640240400F001010B50024FF
:1017600000F02AF804E0601CC4B2012004F0DCFCA4
:101770004FF480410F4801F034F908B1642CF2DBDA
:10178000642C01DB012010BD002404E0601CC4B205
:10179000012004F0C9FC4FF48041064801F021F912
:1017A00008B9642CF2DB642C01DB0120EBE700209C
:1017B000E9E70000000402401CB54FF480400090AF
:1017C00000208DF8040001208DF8070069460248CA
:1017D00001F09CF81CBD0000000402401CB54FF451
:1017E0008040009001208DF8040000208DF8060054
:1017F00002208DF8050001208DF807006946024897
:1018000001F084F81CBD00000004024010B5012165
:10181000022001F085FF00F06DF8FFF79FFF10BD7B
:1018200010B5002404E0601CC4B2012004F07CFC6C
:101830004FF48041104801F0D4F808B1642CF2DB79
:10184000002404E0601CC4B2012004F06DFC4FF4DD
:101850008041094801F0C5F808B9642CF2DB282062
:1018600004F062FC4FF48041034801F0BAF808B17B
:10187000012010BD0020FCE70004024070B50024E8
:10188000002506E06006040EFFF7CAFF0443681C4B
:10189000C5B2082DF6DB204670BD7CB505460E4668
:1018A00000F028F8FFF75AFFF8B9002405E0FFF729
:1018B000E5FF0DF80400601CC4B2052CF7DB9DF8B1
:1018C00000009DF8011008449DF8021008449DF89E
:1018D000031008449DF80410884208D19DF80000C8
:1018E00030709DF80200287001E001207CBD0020CE
:1018F000FCE7000010B5FFF771FF00BF4FF4804117
:10190000084801F077F800BF142004F0F9FB00BF8D
:101910004FF48041034801F06FF800BF1E2004F02F
:1019200003FC10BD0004024010B50249024800F05B
:101930003DF810BD40FF00902864024010B50A49F0
:101940000A4800F013F968B10749084800F02EF87A
:101950000021064800F044F80020054908700120E5
:101960000449087010BD000000800028B8640240DF
:101970001A0000201B0000200246094B9A4201D2A7
:10198000084801E00648103801F000531BB1064B2F
:101990000B40C36002E0044B0B40836070470000C3
:1019A00010640240006002407D0F7D0F0246094B2B
:1019B0009A4201D2084801E00648103801F000536D
:1019C0001BB1064B0B40C36002E0044B0B4083602D
:1019D0007047000010640240006002407D0F7D0FE0
:1019E00021B1026842F00102026003E0026822F0C5
:1019F0000102026070470000016821F001010160EE
:101A00000021016041608160C1600161212141616B
:101A10004A49884204D13D21484A103A91608CE0FD
:101A200046491831884205D14FF47461434A103A4F
:101A3000916082E041493031884205D14FF4741100
:101A40003E4A103A916078E03C494831884205D1DD
:101A50004FF07461394A103A91606EE03749603155
:101A6000884204D13649354A103AD16065E033499D
:101A70007831884204D13349304A103AD1605CE071
:101A80002E499031884204D12F492C4A103AD16016
:101A900053E02A49A831884205D14FF03D51274AE9
:101AA000103AD16049E02949884204D13D21274AB2
:101AB000083A116041E025491831884205D14FF4B8
:101AC0007461224A083A116037E020493031884277
:101AD00005D14FF474111D4A083A11602DE01B49DD
:101AE0004831884205D14FF07461184A083A1160B4
:101AF00023E016496031884204D11149134A121F6C
:101B000011601AE011497831884204D10D490F4A19
:101B1000121F116011E00D499031884204D10A4929
:101B20000A4A121F116008E00849A831884204D10E
:101B30004FF03D51054A121F11607047106002407E
:101B40003D000020400F002000003D2010640240B6
:101B5000014600200A6802F001020AB1012000E0FB
:101B6000002070470146486880B2704770B5024651
:101B7000002000240025124EB24201D2114B01E098
:101B80000F4B103B104E0E4036B11E2606EAD124F4
:101B9000166806EA040502E0566906F0800501F0C1
:101BA00000560EB15C6800E01C68084E344004EA40
:101BB000010616B10DB1012000E0002070BD00004B
:101BC00010640240006002403C0F3C0F7D0F7D0F0F
:101BD00010B501F080034BB122B1436943F080039B
:101BE000436103E0436923F08003436180290BD004
:101BF0002AB1036801F01E042343036004E0036874
:101C000001F01E04A343036010BD000010B50022C4
:101C10000268134B1A40CC680B6823434C6923437A
:101C20008C692343CC6923430C6A23434C6A2343C6
:101C30008C6A23434C6B23438C6B23431A4302600F
:101C4000426922F00702D1E90B3423431A4342616F
:101C50000B6943604B6883608B68C36010BD0000F4
:101C60003F801CF07047000010B54FF47A7202A15B
:101C700002A000F025FB10BD4F4B000041540D0A9F
:101C80000000000010B521A003F0B6F9264927A0F6
:101C900003F0B2F92F4801882FA003F0ADF936A068
:101CA00003F0AAF9FFF7E0FF00280FD03DA003F0F2
:101CB000A3F948A003F0A0F94DA003F09DF958A0A6
:101CC00003F09AF95FA003F097F910BD65A003F047
:101CD00093F9012000F06AFB18B16DA003F08CF9B4
:101CE000F3E773A003F088F94FF47A727AA17BA02E
:101CF00000F0E6FA7BA003F07FF9002000F070FB13
:101D000086A003F079F900BFDFE700005B45535080
:101D1000383236365D20496E697469616C697A695A
:101D20006E672E2E2E0D0A00AA0200205B4553502E
:101D3000383236365D2052582062756666657220EC
:101D4000616464726573733A203078253038580DB9
:101D50000A000000200000205B4553503832363620
:101D60005D205258207374617475733A2030782561
:101D70003034580D0A0000005B4553503832363677
:101D80005D205374657020313A2054657374696E18
:101D90006720415420636F6D6D616E642E2E2E0D91
:101DA0000A0000005B455350383236365D20496EDC
:101DB000697469616C697A6174696F6E20666169C2
:101DC0006C6564202D204E6F20726573706F6E738A
:101DD000650D0A005B455350383236365D20506C35
:101DE0006561736520636865636B3A0D0A000000E6
:101DF0005B455350383236365D20312E20486172B3
:101E0000647761726520636F6E6E656374696F6E6F
:101E10002028504231302F50423131290D0A000024
:101E20005B455350383236365D20322E20455350B4
:101E30003832363620706F77657220737570706C2B
:101E4000790D0A005B455350383236365D20332E0B
:101E50002045535038323636206669726D7761728C
:101E6000650D0A005B455350383236365D20537499
:101E7000657020323A2053657474696E672053741C
:101E80006174696F6E206D6F64652E2E2E0D0A00D1
:101E90005B455350383236365D204661696C656467
:101EA00020746F20736574206D6F64650D0A0000E7
:101EB0005B455350383236365D205374657020339D
:101EC0003A2044697361626C696E67206563686F6C
:101ED0002E2E2E0D0A0000004F4B000041544530BD
:101EE0000D0A00005B455350383236365D2053747E
:101EF000657020343A20456E61626C696E672073AC
:101F0000696E676C6520636F6E6E656374696F6E72
:101F1000206D6F64652E2E2E0D0A00005B45535018
:101F2000383236365D20496E697469616C697A6150
:101F300074696F6E20636F6D706C657465640D0AF3
:101F4000000000001CB50446204601F091FD02F09F
:101F500019FB84ED070A02F0E9FA208394ED070AE1
:101F6000DFED230AB4EEE00AF1EE10FA01DD012004
:101F700000E0002084F8200004F016FFA06304F0C5
:101F80000DFFE0631B48408BA0821A48007FE0826F
:101F90001848407F84F82200002001900090694694
:101FA00001A8FFF77AFC78B99DF8000064280BDCE3
:101FB0009DF80400502807DC9DF804000E490870C5
:101FC0009DF800000D4908700B48007800EE100ADB
:101FD000B8EE400A84ED110A0848007800EE100AB5
:101FE000B8EE400A84ED120A2046FFF7CFF81CBD78
:101FF000000048420C0200202001002021010020A6
:1020000010B502A002F0AEF910BD00005B455350C0
:1020100038323636205265706F72745D20536D61B0
:102020007274204D51545420476174657761792052
:102030004D6F646520496E697469616C697A656485
:102040002E0D0A002DE9F34F2DED068B9DB00446B1
:1020500094ED070ABDEEC00AF0EE40AA94ED070A1F
:10206000F8EEEA0A30EE600ADFED700A20EE200A90
:10207000BDEEC00A10EE10BABBF1000F01DACBF1D1
:10208000000B94ED110ABDEEC08A94ED110AF8EE32
:10209000C80A30EE600AF2EE040A20EE200ABDEE15
:1020A000C00A10EE105A002D00DA6D4294ED120AAB
:1020B000FDEEC08A94ED120AF8EEE80A30EE600AEE
:1020C000F2EE040A20EE200ABDEEC00A10EE106AFD
:1020D000002E00DA764294ED100ABDEEC09A94ED1F
:1020E000100AF8EEC90A30EE600ADFED500A20EE61
:1020F000200ABDEEC00A10EE107A002F00DA7F42EF
:1021000094ED090AFDEEC09A94ED090AF8EEE90A89
:1021100030EE600ADFED450A20EE200ABDEEC00A6F
:1021200010EE108AB8F1000F01DAC8F1000894ED42
:102130000D0ABDEEC0AA94ED0D0AF8EECA0A30EE03
:10214000600ADFED3A0A20EE200ABDEEC00A10EE6A
:10215000109AB9F1000F01DAC9F100094FF480615A
:102160002498FEF7A2F894F84E0094F84D1094F8D5
:102170004C20E36BCDE91932CDE91B1094F83110F6
:10218000A06B15918DED16AACDE9179094F830103B
:10219000E28DA08DA36ACDE91130CDE9132194F829
:1021A000230008B122A000E023A094F8221009B176
:1021B0001FA100E020A1CDE90D10CDED0F9ACDF8C3
:1021C0004080CDED098A0A968DED0B9A0C9794F814
:1021D000210094F8201009B115A100E016A1059185
:1021E0008DED068ACDE90750208BE18ACDE90110FB
:1021F000CDED03AACDF810B0A08A2346104A4FF4C3
:1022000080610090249802F007FF8246BAF1000F27
:1022100002DD1FFA8AF000E000202499A1F80004F2
:102220001DB0BDEC068BBDE8FC8F00000000C8426D
:10223000747275650000000066616C7365000000D3
:10224000C4A0000810B501F04DFA0D48FFF77AFE62
:102250000C490B48FFF7F6FE0A48B0F8000408B92D
:10226000012010BD0748B0F8001402F03FFD0548FA
:10227000B0F8001404A002F075F80120F1E70000A6
:1022800098950120E89501205B4553503832363649
:10229000205265706F72745D20507573686564209C
:1022A0004A534F4E20746F204761746577617920DF
:1022B000282564206279746573290D0A00000000E6
:1022C0002DE9F04104460F461546214623A002F0B1
:1022D00093FE0020274908804FF480712648FDF7BF
:1022E000E4FF204602F020FD002626E02148008879
:1022F00000281EDD39462048FDF7E2FF50B10020DE
:102300001C4908804FF480711B48FDF7CEFF002068
:10231000BDE8F08119A11848FDF7D2FF48B10020AF
:10232000144908804FF480711348FDF7BEFF012067
:10233000EEE70A2003F0E4FE0A36AE42D6D30E4999
:1023400010A002F059FE00200A4908804FF4807165
:102350000948FDF7AAFF0220DAE700005B45535069
:10236000383236365D2053656E64696E673A2025D3
:102370007300000020000020AA0200204552524FA6
:10238000520000005B455350383236365D205469A8
:102390006D656F757421204C61737420627566667B
:1023A00065723A2025730D0A0000000010B588B050
:1023B0000446224605A1684602F046FE4FF47A72B2
:1023C00006A16846FFF77CFF08B010BD41542B43BF
:1023D000574D4F44453D25640D0A00004F4B00000A
:1023E00010B588B00446224607A1684602F02CFECC
:1023F000214609A002F000FE4FF4FA6210A16846DF
:10240000FFF75EFF08B010BD41542B4349504D55B6
:10241000583D25640D0A00005B455350383236366E
:102420005D2053657474696E67204D5558206D6F3B
:10243000646520746F2025642E2E2E0D0A00000086
:102440004F4B000000B599B0B2A002F0D5FD0121BC
:102450007A2001F065F90121084601F081F94FF475
:102460000040179001208DF8600000208DF8620078
:1024700002208DF8610001208DF8630017A9AD4896
:1024800000F044FA4FF63370179002208DF8600088
:1024900000208DF8620003208DF8610001208DF886
:1024A000630017A9A44800F031FA4FF68370179023
:1024B00002208DF8600000208DF8620003208DF866
:1024C000610001208DF8630017A99C4800F01EFAF6
:1024D0004FF23F00179002208DF8600000208DF829
:1024E000620003208DF8610001208DF8630017A9B8
:1024F000934800F00BFA40F23F40179002208DF80D
:10250000600000208DF8620003208DF8610001203A
:102510008DF8630017A98B4800F0F8F90C22002110
:10252000854800F03BFA0C220121834800F036FA7E
:102530000C220421804800F031FA0C2205217E484B
:1025400000F02CFA0C2208217B4800F027FA0C221C
:102550000921794800F022FA0C220A21764800F07D
:102560001DFA0C220B21744800F018FA0C221146B7
:10257000714800F013FA0C220D216F4800F00EFA9A
:102580000C220E216C4800F009FA0C220F216A4837
:1025900000F004FA0C220021684800F0FFF90C2238
:1025A0000121664800F0FAF90C220721634800F087
:1025B000F5F90C220821614800F0F0F90C220921FC
:1025C0005E4800F0EBF90C220A215C4800F0E6F9C5
:1025D0000C220B21594800F0E1F90C221146574812
:1025E00000F0DCF90C220D21544800F0D7F90C2240
:1025F0000E21524800F0D2F90C220F214F4800F072
:10260000CDF90C2200214E4800F0C8F90C2201211E
:102610004B4800F0C3F90C220221494800F0BEF9F2
:102620000C220321464800F0B9F90C220421444849
:1026300000F0B4F90C220521414800F0AFF90C225A
:1026400011463F4800F0AAF90C220D213C4800F049
:10265000A5F90C220E213A4800F0A0F90C220F2116
:10266000374800F09BF90C220021364800F096F91B
:102670000C220121334800F091F90C22022131484B
:1026800000F08CF90C2203212E4800F087F90C226F
:1026900004212C4800F082F90C220521294800F081
:1026A0007DF90C220A21274800F078F900200190DA
:1026B0000290082003900020049005900690079057
:1026C00004200890002009900A9010200B90002010
:1026D0000C900E900D900F9010904FF48050119030
:1026E000002012901390149001A81590169016A037
:1026F00002F082FC08A800F077F81CA002F07CFC35
:102700000121042000F056F820A002F075FC19B059
:1027100000BD00005B4578747372616D5D20456E8D
:1027200061626C696E6720636C6F636B732E2E2E13
:102730000D0A000000040240000C0240001002409C
:1027400000140240001802405B4578747372616D9A
:102750005D20496E697469616C697A696E672046AB
:10276000534D432E2E2E0D0A000000005B45787459
:102770007372616D5D20456E61626C696E672046A3
:10278000534D432E2E2E0D0A000000005B45787439
:102790007372616D5D20496E697469616C697A61FB
:1027A00074696F6E20636F6D706C657465210D0ABE
:1027B0000000000051B18200A2F1C042126842F054
:1027C00001038200A2F1C042136009E08200A2F17D
:1027D000C0421268034B1A408300A3F1C0431A6041
:1027E00070470000FEFF0F0030B5002100220023DB
:1027F0000468A400A4F1C0442168424C2140D0E9FF
:1028000001452C43C5682C4305692C4345692C437D
:1028100085692C43C5692C43056A2C43456A2C43C2
:10282000856A2C43C56A2C43056B2C4321430468FD
:10283000A400A4F1C04421608468082C0BD1046872
:10284000A400A4F1C044246844F040050468A40036
:10285000A4F1C04425600468641CA400A4F1C04431
:10286000226802F04042446B2468456B6D6844EA7C
:102870000514456BAD6844EA0524456BAD8944EA0F
:102880000544456B2D8A44EA0554456B2D7D44EA89
:102890000564456BAD692C4322430468641CA400A5
:1028A000A4F1C0442260C46AB4F5804F20D104680A
:1028B000A400A4F1C044D4F80431134C2340846B29
:1028C0002468856B6D6844EA0514856BAD6844EA3D
:1028D0000524856BAD8944EA0544856BAD692C43BD
:1028E00023430468A400A4F1C044C4F8043107E001
:1028F0006FF070450468A400A4F1C044C4F804510A
:1029000030BD00008000F7FF0000F0CFF0B50A46B0
:1029100000210023002400BF3DE0012505FA01F35A
:10292000156805EA03049C4234D105684F0003266C
:10293000BE40B543056015794E00B5400668354385
:1029400005601579012D02D01579022D16D1856803
:102950004F000326BE40B543856055794E00B54013
:10296000866835438560456801268E40B5434560DD
:10297000456896798E40B6B235434560C5684F00CC
:102980000326BE40B543C560D5794E00B540C66844
:102990003543C560491C1029BFD3F0BDF0B50023F5
:1029A00000244D07ED0E02FA05F3CE1000F12005CC
:1029B00055F826504E07F70E0F26BE40B543CF10F0
:1029C00000F1200646F82750CE1000F1200555F8FA
:1029D000265045EA0304CE1000F1200545F82640B4
:1029E000F0BD0246002013690B400BB1012000E04E
:1029F0000020704741837047018370471CB505482C
:102A0000042100238022CDE9001003A1054806F02F
:102A100005FC1CBD300100207461736B5F686D693B
:102A200000000000E55C000800BFFEE71CB50121C6
:102A3000112000F075FE1C20009000208DF804008D
:102A400003208DF8050001208DF80700694606482F
:102A5000FFF75CFF0120009002208DF80700694617
:102A60000248FFF753FF1CBD001002400000024067
:102A700010B50446012C01D12C4908702B48007870
:102A8000002837D010212A48FFF7ABFF78B1082182
:102A90002748FFF7A6FF50B104212548FFF7A1FF03
:102AA00028B101212348FFF79CFF012822D10A20E9
:102AB00003F026FB00201D49087010211C48FFF779
:102AC00090FF08B9012010BD08211948FFF789FFC0
:102AD00008B90220F7E704211548FFF782FF08B97B
:102AE0000420F0E701211348FFF77BFF01281BD1E9
:102AF0000320E8E710210E48FFF773FF012813D1E8
:102B000008210B48FFF76DFF01280DD1042108486B
:102B1000FFF767FF012807D101210648FFF761FF92
:102B200010B90120014908700020CCE72E010020D7
:102B300000100240000002401CB50121202000F0DE
:102B4000EFFD01208DF8040000208DF806004FF401
:102B5000C060009002208DF8050000208DF807006D
:102B600069460248FFF7D2FE1CBD00000014024077
:102B700000BFFEE70EB50121172000F0D1FD0121B5
:102B8000084600F0DDFD5020019002208DF808007D
:102B900000208DF80A0003208DF8090001208DF82F
:102BA0000B0001A93A48FFF7B1FEC020019001A92E
:102BB0003848FFF7ABFE4FF43C60019001A936485E
:102BC000FFF7A4FE6020019001A93448FFF79EFEA4
:102BD0000D2204212E48FFF7E1FE0D2206212C488C
:102BE000FFF7DCFE0D2207212A48FFF7D7FE0D2252
:102BF00006212948FFF7D2FE0D2207212648FFF7BC
:102C0000CDFE0D2208212448FFF7C8FE0D22092120
:102C10002148FFF7C3FE0D220B211F48FFF7BEFE20
:102C20000D2206211B48FFF7B9FE0D2205211B4886
:102C3000FFF7B4FE0D2206211848FFF7AFFEFEF79E
:102C400075FC002016490880488188810881202071
:102C50008880002048808020C8800846FEF72CFD30
:102C60000120FEF719FC01210846FEF713FD4E2056
:102C70008DF8000006208DF8010000208DF802007C
:102C800001208DF80300684600F00EF80EBD00002C
:102C90000000024000040240000802400010024010
:102CA000EA9901207047000070B5002100230F222F
:102CB000C4781CB3174C246804F4E064C4F5E064E1
:102CC000C4F30721C1F10404E3B20A4144789C40F3
:102CD000E1B28478144021430C07210E0E4C057894
:102CE0006155047804F01F050124AC4005786D118E
:102CF000AD0005F1E025C5F8004109E0047804F0D5
:102D00001F050124AC40054D0678761145F8264094
:102D100070BD00000CED00E000E400E080E100E0A8
:102D200002490143024A1160704700000000FA05A1
:102D30000CED00E01CB50548022100234A02CDE954
:102D4000001003A1054806F069FA1CBD34010020FB
:102D50007265706F72745F7461736B0051840008E8
:102D600070B50446042C03DAC4F10400C5B201E0D6
:102D7000201FC5B2032143F2122000F085FC280772
:102D8000010E45F2875000F07FFC042C05DA092182
:102D900045F2885000F078FC04E0012145F28850AB
:102DA00000F072FC132143F2122000F06DFCA3210D
:102DB00043F2122000F068FC70BD000070B50546BB
:102DC000062D00DD0625032143F2122000F05CFCF5
:102DD0001E2145F2813000F057FC5B2145F2823024
:102DE00000F052FC082145F2833000F04DFC002435
:102DF0000CE005EB4502114B03EB4202115D45F27D
:102E00008432A01800F040FC601CC4B2062CF0DB39
:102E1000982145F28B3000F037FC012145F28A30D1
:102E200000F032FC132143F2122000F02DFCA3210C
:102E300043F2122000F028FC70BD000008A000083A
:102E400070B5044600252026072C1AD2DFE804F0CE
:102E500004080C191013160014200546064610E04D
:102E60001820054606460CE01C200546064608E0EC
:102E70001025242605E01825282602E01C252C26EE
:102E800000BF00BF032143F2122000F0FDFB2946E2
:102E900045F2855000F0F8FB314645F2865000F0CF
:102EA000F3FB132143F2122000F0EEFBA32143F2C7
:102EB000122000F0E9FB70BD10B50446022143F278
:102EC000160000F0E1FB022143F21C0000F0DCFBE5
:102ED0002CB1022143F2190000F0D6FB04E00021DE
:102EE00043F2190000F0D0FB10BD00001CB5012119
:102EF000402000F015FC01208DF8040002208DF820
:102F0000050000208DF8060001208DF807004FF421
:102F10000240009069460E48FFF7F8FC4FF400416C
:102F20000B48FFF767FD142003F0EAF84FF4007137
:102F30000748FFF75FFD052003F0E2F84FF400417A
:102F40000348FFF759FD142003F0DAF81CBD000018
:102F50000018024010B50446072C7DD2DFE804F0CB
:102F6000041E38526C88A200FF2145F2010000F0D7
:102F70008BFB01214FF4AB4000F086FB802145F232
:102F8000815000F081FB002145F2825000F07CFB73
:102F9000012145F2885000F077FB9EE0FF2145F2C9
:102FA000010000F071FB01214FF4AB4000F06CFB1D
:102FB0006F2145F2815000F067FB402145F28250BD
:102FC00000F062FB012145F2885000F05DFB84E0D7
:102FD000FF2145F2010000F057FB01214FF4AB4007
:102FE00000F052FB402145F2815000F04DFB6F2173
:102FF00045F2825000F048FB012145F2885000F074
:1030000043FB6AE0FF2145F2010000F03DFB012196
:103010004FF4AB4000F038FB002145F2815000F046
:1030200033FB802145F2825000F02EFB012145F256
:10303000885000F029FB50E0FF2145F2010000F02C
:1030400023FB01214FF4AB4000F01EFB6F2145F242
:10305000815000F019FB00E03EE0402145F2825033
:1030600000F012FB022145F2885000F00DFB34E025
:10307000FF2145F2010000F007FB01214FF4AB40B6
:1030800000F002FB402145F2815000F0FDFA6F2173
:1030900045F2825000F0F8FA022145F2885000F023
:1030A000F3FA1AE0FF2145F2010000F0EDFA0121E8
:1030B0004FF4AB4000F0E8FA002145F2815000F0F7
:1030C000E3FA802145F2825000F0DEFA022145F257
:1030D000885000F0D9FA00E000BF00BF10BD00002A
:1030E00070B558A001F088FF62A001F085FF69A0CB
:1030F00001F082FF73A001F07FFFFFF7F7FE77A0DA
:1031000001F07AFF00F04EFF052002F0F9FF7BA0EE
:1031100001F072FF00F076FA054629467EA001F024
:103120006BFF45F24060854204D081A001F064FF4E
:10313000012070BD86A001F05FFF112143F2031052
:1031400000F0A2FA822143F2080000F09DFA32203A
:1031500002F0D6FF84A001F04FFF00240DE08D4A5D
:1031600002EB840291788B4A32F8240000F08CFA4A
:10317000642002F0D9FF601C84B2CF2CEFD386A06C
:1031800001F03AFF0120FFF797FE322002F0B8FF6E
:1031900089A001F031FF04F033FB322002F0B0FFD0
:1031A0008FA001F029FF002000F0A8F90020FFF710
:1031B00005FE0420FFF7D4FD0320FFF741FE0F209A
:1031C00000F02FFA322002F09BFF90A001F014FFD4
:1031D0004FF4F0734FF420720021042000F0A5F9A1
:1031E00094A001F009FF022143F2080000F04CFA1C
:1031F000322002F085FF96A001F0FEFE44F24070FE
:1032000000F0D3F90646314699A001F0F5FE4FF4DF
:10321000864000F0CAF9064631469EA001F0ECFE59
:1032200043F2080000F0C1F906463146A1A001F0C2
:10323000E3FEA8A001F0E0FE16A001F0DDFE0020F4
:1032400077E700000D0A3D3D3D3D3D3D3D3D3D3DA7
:103250003D3D3D3D3D3D3D3D3D3D3D3D3D3D3D3D9E
:103260003D3D3D3D3D3D3D3D3D3D3D3D3D3D0D0AF1
:10327000000000004F56353634302043616D6572D2
:103280006120496E697469616C697A6174696F6EF5
:103290000D0A00003D3D3D3D3D3D3D3D3D3D3D3D3B
:1032A0003D3D3D3D3D3D3D3D3D3D3D3D3D3D3D3D4E
:1032B0003D3D3D3D3D3D3D3D3D3D3D3D0D0A0D0A04
:1032C000000000005B315D204861726477617265C7
:1032D0002072657365742E2E2E0D0A005B325D2000
:1032E0005343434220696E697469616C697A617401
:1032F000696F6E2E2E2E0D0A000000005B335D20DC
:1033000052656164696E672063616D657261204911
:10331000442E2E2E0D0A00002020202043616D65D2
:1033200072612049443A203078253034580D0A0023
:103330005B4552524F525D2043616D657261204979
:1033400044206D69736D61746368210D0A0000008B
:103350005B345D20536F66747761726520726573AC
:1033600065742E2E2E0D0A005B355D205772697430
:10337000696E6720696E697469616C697A617469E4
:103380006F6E207265676973746572732E2E2E0DD1
:103390000A000000749C00085B365D20456E616287
:1033A0006C696E6720666C617368206C696768740D
:1033B0002E2E2E0D0A0000005B385D2053657474BC
:1033C000696E67204A504547206D6F646520283636
:1033D000343078343830292E2E2E0D0A00000000AB
:1033E0005B395D2053657474696E6720696D616730
:1033F00065207175616C69747920706172616D65A9
:10340000746572732E2E2E0D0A0000005B31305D44
:103410002053657474696E67206F757470757420BD
:1034200073697A65202836343078343830292E2E66
:103430002E0D0A005B31315D20456E61626C696E54
:1034400067206F75747075742E2E2E0D0A000000A3
:103450005B31325D20566572696679696E672073EB
:10346000657474696E67732E2E2E0D0A00000000BD
:10347000202020203078343734302028706F6C6161
:103480007269747929203D203078253032580D0A30
:1034900000000000202020203078343330302028F5
:1034A000666F726D617429203D2030782530325866
:1034B0000D0A0000202020203078333030382028BA
:1034C000636F6E74726F6C29203D20307825303226
:1034D000580D0A000D0A5B4F56353634305D2049D1
:1034E0006E697469616C697A6174696F6E20737555
:1034F000636365737366756C210D0A0010B504462D
:10350000032143F2122000F0BFF8214645F28F500C
:1035100000F0BAF8132143F2122000F0B5F8A3210D
:1035200043F2122000F0B0F810BD2DE9F04104463E
:103530000D4616461F46032143F2122000F0A4F860
:10354000311243F6080000F09FF8F1B243F609008B
:1035500000F09AF8391243F60A0000F095F8F9B233
:1035600043F60B0000F090F8211243F6100000F033
:103570008BF8E1B243F6110000F086F8291243F609
:10358000120000F081F8E9B243F6130000F07CF875
:10359000132143F2122000F077F8A32143F2122006
:1035A00000F072F80020BDE8F08170B504460025F7
:1035B00000F07AFD782000F0ABFD642002F0B4FD4D
:1035C000201200F0A5FD642002F0AEFDE0B200F094
:1035D0009FFD642002F0A8FD00F080FD642002F051
:1035E000A3FD00F061FD792000F092FD642002F05F
:1035F0009BFD00F021FD054600F0FEFC00F06EFD95
:10360000284670BD70B543F20A00FFF7CEFF0446AE
:1036100043F20B00FFF7C9FF054645EA0426304692
:1036200070BD10B50446212C0ADA652145F2083038
:1036300000F02AF8214645F2023000F025F822E099
:10364000252145F2083000F01FF808214FF4A6406C
:1036500000F01AF8302145F2013000F015F8102181
:1036600045F2023000F010F8002145F2033000F07E
:103670000BF8082145F2093000F006F8302145F238
:103680000A3000F001F810BD70B504460D46002662
:1036900000F00AFD782000F03BFD00B10126642017
:1036A00002F042FD201200F033FD00B1012664203B
:1036B00002F03AFDE0B200F02BFD00B101266420DB
:1036C00002F032FD284600F023FD00B1012600F093
:1036D00005FD304670BD00000149086270470000DA
:1036E00000000E4210B50C48008800F4004088B17C
:1036F000002009490988C1F30D01084A50541046B9
:10370000FDF7BAFC4FF480710448FCF7CEFD0020B1
:103710000149088010BD000020000020AA020020FE
:1037200029B1064A12680243044B1A6004E0034AB6
:1037300012688243014B1A60704700003038024023
:1037400029B1064A12680243044B1A6004E0034A96
:1037500012688243014B1A607047000034380240FF
:1037600029B1064A12680243044B1A6004E0034A76
:1037700012688243014B1A607047000038380240DB
:1037800029B1064A12680243044B1A6004E0034A56
:1037900012688243014B1A607047000040380240B3
:1037A00029B1064A12680243044B1A6004E0034A36
:1037B00012688243014B1A6070470000443802408F
:1037C000F0B5002100220024022500260223324FFA
:1037D0003F6807F00C0121B1042905D0082937D131
:1037E00005E02E4F076036E02D4F076033E02A4F8B
:1037F0003F1F3F68C7F38056274F3F1F3F6807F0C2
:103800003F036EB1264FB7FBF3F7DFF88CC0ACF186
:10381000040CDCF800C0CCF3881C07FB0CF40CE0B3
:103820001E4FB7FBF3F7DFF870C0ACF1040CDCF807
:1038300000C0CCF3881C07FB0CF4174F3F1F3F68F8
:10384000C7F301477F1C7D00B4FBF5F7076002E07A
:10385000124F076000BF00BF0F4F3F6807F0F00135
:103860000909104F7A5C0768D74047600A4F3F68E4
:1038700007F4E051890A0B4F7A5C4768D7408760AC
:10388000054F3F6807F46041490B064F7A5C476873
:10389000D740C760F0BD0000083802400024F400A3
:1038A00000127A000000002010B50146002200231B
:1038B00000204A11012A02D10A4C236808E0022A9A
:1038C00003D1084C7034236802E0064C743423683A
:1038D00001F01F02012494401C400CB1012000E0C3
:1038E000002010BD00380240014908607047000008
:1038F000800E474201490860704700003C0E474275
:10390000002100F44072B2F5407F08D1094A1168E5
:1039100021F4F811084A02401143064A1160054A91
:1039200068321268C0F30B031A43024B68331A6003
:103930007047000008380240FFFCFF0F014600BF3F
:10394000080900EB8000420001F00F001044C0B2F3
:1039500070470146002204E0501CC2B2A1F10A00E7
:10396000C1B20A29F8DA100741EA10607047000076
:1039700008B50022009200200021104A126802F0CF
:103980004002CAB9421E0D4B1A6000BF0B4A1268B2
:1039900002F04001009A521C0092009AB2F5803F5A
:1039A00001D00029F2D0054A126802F040020AB1A3
:1039B000012002E0002000E0012008BD0C280040AA
:1039C0000348006820F0800001490860704700004B
:1039D0000C28004070B506460C4600250E480068CD
:1039E0000E4900EA0105280CE070C5F30420607060
:1039F00005F03F00A070C5F3423020705EB9E0785A
:103A0000FFF79CFFE0706078FFF798FF6070A07888
:103A1000FFF794FFA07070BD042800403FFFFF0037
:103A200070B506460C4600250F4800680F4900EAAD
:103A30000105C5F305402070C5F30620607005F050
:103A40007F00A07005F48000000CE0705EB9207863
:103A5000FFF774FF20706078FFF770FF6070A07848
:103A6000FFF76CFFA07070BD002800407F7F7F00D3
:103A70001FB5044600F066FA0D490020FFF7D0FF9D
:103A80000C490020FFF7A6FF0948807808494978CB
:103A9000074A1278074B9B78CDE90032CDE9021036
:103AA00004484378C27804A1204601F0CDFA1FBD36
:103AB00022000020260000203230253032642D25DF
:103AC0003032642D2530326420253032643A25307E
:103AD00032643A253032640030B504460025CA20ED
:103AE0001549086053200860FFF742FF00B91DE048
:103AF00011481C38006820F040000F491C3908604C
:103B000008460068216808430B491C3908600A49C7
:103B10001439A068086008460068A18840EA01409E
:103B2000054914390860FFF74BFF0125FF200249C2
:103B30000860284630BD00002428004000B587B04A
:103B400035A001F059FA01210807FFF719FE0120FD
:103B5000FFF7C2FD36A001F04FFA0120FFF7C4FEC7
:103B600000BF6120FFF7A0FE0028FAD03AA001F0C4
:103B700043FA4FF40070FFF7C3FE0120FFF7BAFECF
:103B80003AA001F039FA00F0DDF940A001F034FA72
:103B90007F200590FF2006900020049004A8FFF7E6
:103BA0009BFF41A001F028FA0020454908704870A9
:103BB000887000F019F91A204249C8700120487035
:103BC000887004200870002000F0AAF83EA001F0E0
:103BD00013FA00F0B7F93A490020FFF721FF3949FD
:103BE0000020FFF7F7FE3648807835494978344A97
:103BF0001278CDE900210290324883784278C1786A
:103C00003D4801F0F9F90020FFF766FD3BA001F007
:103C1000F3F907B000BD00005B5254435D20496ECC
:103C2000697469616C697A696E672E2E2E0D0A00BF
:103C30005B5254435D2050575220616E64204261B4
:103C4000636B75702061636365737320656E616279
:103C50006C65640D0A0000005B5254435D204C53B8
:103C6000492072656164790D0A0000005B5254437B
:103C70005D2052544320636C6F636B20656E6162FC
:103C80006C656420284C5345290D0A005B5254434F
:103C90005D205254432073796E6368726F6E697A47
:103CA00065640D0A000000005B5254435D205254CD
:103CB0004320696E697469616C697A65640D0A00F4
:103CC00022000020260000205B5254435D20446502
:103CD0006661756C742074696D65207365743A2033
:103CE000323032362D30312D30312030303A3030D4
:103CF0003A30300D0A00000074A000085B525443B3
:103D00005D20496E697469616C697A6174696F6E6E
:103D100020636F6D706C657465640D0A00000000AF
:103D20002DE9F04105460C46002600274DB9607884
:103D300000F01000102804D1607820F010000A3044
:103D4000607005B908E06078FFF7F8FD0646A078D6
:103D5000FFF7F4FD064600BF55B1E0780004617836
:103D600040EA0120A1780843217840EA413611E079
:103D7000E078FFF7EEFD4FEA00486078FFF7E9FDD5
:103D800048EA0028A078FFF7E4FD48EA0008207818
:103D900048EA4036CA201249086053200860FFF7FD
:103DA000E7FD08B9002714E00E4830400C492039DF
:103DB0000860FFF705FE0A481C38006800F0200084
:103DC00030B900F0BFF808B9002702E0012700E091
:103DD0000127FF20024908603846BDE8F081000055
:103DE000242800403FFFFF002DE9F04105460C4626
:103DF000002600274DB92E48006800F0400000B1B1
:103E000002E00020E07000BF0DE02948006800F0EB
:103E1000400020B12078FFF791FD064602E0002027
:103E2000E07000BF00BF55B120780004617840EA1F
:103E30000120A1780843E17840EA014611E02078AA
:103E4000FFF787FD4FEA00486078FFF782FD48EAF8
:103E50000028A078FFF77DFD48EA0008E07848EAEE
:103E60000046CA2012491C31086053200860FFF741
:103E70007FFD08B9002713E00E4830400C4908398F
:103E80000860FFF79DFD0A48006800F0200030B987
:103E900000F058F808B9002702E0012700E00127E8
:103EA000FF2003491C3108603846BDE8F08100005E
:103EB000082800407F7F7F0010B58AB0044604A820
:103EC00005A906AA07ABCDE90032CDE9021008AB7F
:103ED00009AA15A12046FCF72FFA01210807FFF7D0
:103EE0004FFC0120FFF7F8FB6421099890FBF1F2E9
:103EF00001FB12001149C870089848700798887033
:103F00000020FFF70DFF0E490698087005984870CD
:103F1000049888700020FFF767FF00F013F8002076
:103F2000FFF7DAFB0AB010BD25642D25642D25644A
:103F30002025643A25643A2564000000260000200C
:103F40002200002008B50022009200200021CA2291
:103F5000134B1A6053221A60114A183A126822F061
:103F6000A0020F4B183B1A6000BF0D4A183A1268A6
:103F700002F02001009A521C0092009AB2F5003F14
:103F800001D00029F1D0064A183A126802F0200246
:103F90000AB1012000E00020FF22014B1A6008BD99
:103FA000242800401CB501210820FFF7B9FBC020E0
:103FB000009001208DF8040000208DF806000220FA
:103FC0008DF8050001208DF8070069460948FEF7C5
:103FD0009DFCC0210748FEF70FFD0648006820F44D
:103FE0004040044908600846006840F4804008608A
:103FF0001CBD0000000C024010B5022002F094F835
:1040000001200B4908600B49C1F89802022002F018
:104010008BF800200649091F0860022002F084F88E
:1040200000200449C1F89C02022002F07DF810BD76
:104030009C8241420080414270B5002417480068CC
:1040400020F44040154908600846006808600825CB
:1040500015E0022002F068F80120114908606006AE
:10406000040E1048D0F81C0208B1601CC4B2022033
:1040700002F05AF800200A490860681EC5B2002DF7
:10408000E7DC0648006820F4404004490860084620
:10409000006840F480400860204670BD000C02407B
:1040A000988241420080414210B5012009490860D0
:1040B0000949C1F89802022002F036F800200549AB
:1040C0000860022002F030F800200349C1F898028D
:1040D00010BD00009C8241420080414210B500208A
:1040E00009490860022002F01FF801200749C1F8C1
:1040F0009802022002F018F801200349086002200B
:1041000002F012F810BD00009C8241420080414242
:1041100070B5044600261BE004F0800018B10120B1
:104120002249086002E00020204908606006040E71
:10413000022001F0F9FF01201C49091F086002203C
:1041400001F0F2FF00201A49C1F89802701CC6B2B3
:10415000082EE1DB1748006820F44040154908604C
:10416000084600680860022001F0DEFF01200F49C8
:10417000091F0860022001F0D7FF0D48D0F81C028B
:1041800008B1012500E0002500200849091F08604A
:104190000848006820F44040064908600846006866
:1041A00040F480400860284670BD00009C82414277
:1041B00000804142000C0240014908607047000045
:1041C000382C014001460020034A12680A400AB117
:1041D000012000E000207047342C014010B500F0B1
:1041E00017F810BD0021094B02681A601A1D1168EA
:1041F0006FF30A01D0E901231A43C3681A43036924
:104200001A431143014A121D11607047082C0140E6
:1042100010B54FF48070FFF7D5FF78B34C480078A5
:10422000012814D100204B4908600C204860402030
:1042300088600020C8604FF4806008610846FFF77E
:10424000D1FF0C20FDF7DEF84349087002E00020A2
:10425000414908704148006840F480703F49086057
:10426000081D00684CF23A3188433C49091D08603A
:1042700001203B4908703848007810BDFFE7022054
:10428000FFF7A0FF78B10220FFF796FF3348001D2B
:1042900000684CF23A3188433049091D0860022019
:1042A0002D490870E9E70820FFF78CFF78B1082056
:1042B000FFF782FF2948001D00684CF23A3188431D
:1042C0002649091D0860042023490870D5E72020ED
:1042D000FFF778FF78B12020FFF76EFF1F48001D21
:1042E00000684CF23A3188431C49091D08600620D9
:1042F00019490870C1E71020FFF764FF78B110205A
:10430000FFF75AFF1548001D00684CF23A31884308
:104310001249091D086005200F490870ADE74FF4E8
:104320000070FFF74FFF80B14FF40070FFF744FFBC
:104330000A48001D00684CF23A3188430749091DBC
:10434000086007200449087097E7002095E70000FF
:1043500019010020F09201201A010020382C0140A0
:104360001B0100200FB408B504F088FF012818D005
:104370000023012219461548006804F063FD012856
:1043800002D001B05DF814FB1148006800F0010094
:1043900038B100231A4619460C48006804F040FE64
:1043A000EFE703A800900099029800F061FE00205A
:1043B000009004F063FF012806D000231A46194636
:1043C0000248006804F02CFE00BFDAE79C000020E1
:1043D000B86402400CB50020019000903448006899
:1043E00040F480303249086000BF3148006800F472
:1043F000003000900198401C0190009818B9019875
:10440000B0F5A04FF1D12A48006800F4003010B197
:104410000120009001E0002000900098012846D182
:1044200023484030006840F0805021494031086006
:104430002048006840F440401E4908601C4808308D
:1044400000681B49083108600846006840F40040D5
:1044500008600846006840F4A05008601648091F2C
:104460000860081F006840F08070091F086000BFE6
:104470000F48006800F000700028F9D040F2057085
:104480000E4908600A480830006820F00300084917
:10449000083108600846006840F00200086000BF6C
:1044A00003480830006800F00C000828F8D10CBD63
:1044B000003802400070004008544007003C0240B1
:1044C00000B589B001210846FFF72AF90121480209
:1044D000FFF766F92020079003208DF820000020C8
:1044E0008DF8230007A90F48FEF710FA002001906D
:1044F0008DF808008DF809000390059001208DF8D3
:10450000180001A90848FCF7C1FC07230122052176
:104510000548FCF7E5FC01210348FCF79EFC09B0C7
:1045200000BD0000000002400021014010B5002441
:104530000B48FCF731FD09E0641C42F21070844224
:1045400004D908A000F058FD002010BD0221044845
:10455000FCF792FC0028EFD00148FCF789FCF4E757
:10456000002101405B536D6F6B655D20414443202A
:1045700054696D656F7574204572726F72210D0AF2
:104580000000000010B52DED048BFFF7CFFF09EE02
:10459000900AB8EE690ADFED210A20EE200ADFED6D
:1045A000200A80EE201AF0EE418A9FED1E0AF4EEFA
:1045B000C08AF1EE10FA04D89FED1B0ABDEC048B03
:1045C00010BD9FED160A30EE680A80EE288A9FED36
:1045D000169A9FED160AB4EEC08AF1EE10FA19DDB4
:1045E000B2EE040AB4EEC08AF1EE10FA12D2B6EEC0
:1045F000000A38EE400ADFED0E0A20EE200AB0EE87
:10460000409AB5EEC09AF1EE10FA03D29FED060A79
:10461000B0EE409AB0EE490AD0E700003333534081
:1046200000F07F45CDCC4C3D00000000CDCCCC3D12
:104630000000C84210B5FFF743FF10BD042808D1A1
:104640004FF0E021096941F004014FF0E0221161CF
:1046500007E04FF0E021096921F004014FF0E0226A
:104660001161704710B500BF502080F31188BFF36F
:104670004F8FBFF36F8F00BF04F016FE18B14FF0DD
:1046800080500449086000BF002080F3118800BFFB
:1046900010BD000004ED00E010B51548006840F4BE
:1046A0007000134908601348006840F00100114988
:1046B000086000200F49083108600E4800680E4964
:1046C00008400C4908600D48091D0860081F006873
:1046D00020F48020091F0860002006490C31086082
:1046E000FFF778FE4FF0006001498039086010BD87
:1046F00088ED00E000380240FFFFF6FE1030002495
:1047000010B540F22551214800F055FB10B31F4869
:1047100000F00AFCC4B21E48008800F40040C8B98A
:104720001B48008800F4804060B10A2C03D00020B0
:104730001749088020E01648008840F400401449DA
:10474000088019E00D2C06D11148008840F4804003
:104750000F49088010E00E480088C0F30D000D4995
:104760000C540B480088401C094908800846008802
:10477000C72801DD002008800821044800F00EFB56
:1047800010B1024800F0D0FB10BD00000010014045
:10479000180000204401002008B5012240F22551F4
:1047A000094800F032FB26208DF8000007208DF824
:1047B000010000208DF8020001208DF803006846FA
:1047C000FEF772FA08BD00000044004010B540F248
:1047D0002551264800F0EFFA00283DD0234800F08C
:1047E000A3FBC4B22248008800F4004010BB0A2C8E
:1047F00006D11F48008840F400401D4908802BE086
:104800001B48008800F4804060B10A2C06D118488B
:10481000008840F40040164908801DE0002014493B
:10482000088019E00D2C06D11148008840F4804022
:104830000F49088010E00E480088C0F30D000D49B4
:104840000C540B480088401C094908800846008821
:104850007F2801DD002008800821044800F09EFA2E
:1048600010B1024800F060FB10BD000000440040A1
:104870001C0000202A02002010B586B00446012149
:104880004804FEF77DFF01210846FEF749FF072295
:1048900002211A48FEF782F8072203211748FEF783
:1048A0007DF80C20049002208DF8140003208DF870
:1048B000150000208DF8160001208DF8170004A9BE
:1048C0000E48FEF723F800940020ADF80400ADF880
:1048D0000600ADF80800ADF80C000C20ADF80A0099
:1048E0006946074800F0B6FA0121054800F041FA90
:1048F0004021034800F034FA06B010BD0000024029
:10490000004400407FB52848008800F4004000289B
:1049100049D025480088C0F30D050020234948559B
:104920000C46052222A12046FBF7F6FCA0B918226E
:10493000611D2148FBF7D6FC00201F4908760120A5
:104940004876601DFFF7B8FA611D1CA0FFF70AFD4D
:1049500022A000F075F81EE0092222A12046FBF7F4
:10496000DBFCC0B9002003900290019001A802ABCB
:1049700003AA1FA100902046FBF7DEFC032806D106
:104980000D4903984883029808770198487713A047
:1049900000F056F800BF002003490880802103483A
:1049A000FBF783FC00BF7FBD1C0000202A02002013
:1049B00054494D453A0000000C0200205B5254431C
:1049C0005D2053796E636564207769746820455370
:1049D0005033323A2025730D0A0000004F4B0D0A68
:1049E00000000000464C414D455F414F3A00000039
:1049F000464C414D455F414F3A25642C464C414D54
:104A0000455F444F3A25642C464952453A25640097
:104A100010B5044600BF8021084800F0BFF9002807
:104A2000F9D02146054800F084FA00BF4021034830
:104A300000F0B4F90028F9D010BD00000044004097
:104A400010B5044604B910BD03E02078FFF7E0FF7D
:104A5000641C20780028F8D100BFF4E708B50122D3
:104A600040F225510A4800F0D0F927208DF80000C7
:104A700007208DF8010000208DF8020001208DF83C
:104A800003006846FEF710F902A0FFF76BFC08BDB3
:104A9000004800405B5553415254335D20E4B8ADAB
:104AA000E696ADE9858DE7BDAEE5AE8CE688900D66
:104AB0000A00000010B50821344800F06FF910B169
:104AC000324800F031FA40F22551304800F073F9D5
:104AD000002851D02D4800F027FAC4B22C48008895
:104AE00000F40040002847D12948008800F48040A5
:104AF00040B30A2C03D00020254908803CE024481C
:104B0000008840F400402249088000200988C1F351
:104B10000D01204A505420A11046FBF7D1FB18B1DB
:104B200001202049087027E01FA11A48FBF7C8FBA5
:104B300020B920A11748FBF7C3FBE8B102201949AF
:104B4000087019E00D2C06D11148008840F480400F
:104B50000F49088010E00E480088C0F30D000D4991
:104B60000C540B480088401C0949088008460088FE
:104B7000FF2801DD002008800821044800F00EF91C
:104B800010B1024800F0D0F910BD0000004800400C
:104B900020000020AA02002055504C4F41445F4F96
:104BA0004B0000001E00002055504C4F41445F4513
:104BB00052520000574946495F45525200000000DA
:104BC00010B586B0044601210220FEF7A9FD01219F
:104BD0008804FEF7D5FD4FF44060049002208DF864
:104BE00014008DF8150000208DF8160001208DF8B6
:104BF000170004A91648FDF789FE07220A21144868
:104C0000FDF7CCFE07220B211148FDF7C7FE0094EB
:104C10000020ADF80400ADF80600ADF80800ADF8CE
:104C20000C000C20ADF80A0069460A4800F012F9A1
:104C30000121084800F09DF8214607A0FFF792FBEC
:104C400010A0FFF78FFB1CA0FFF78CFB06B010BD78
:104C500000040240004800405B5553415254335D0C
:104C600020E5889DE5A78BE58C96E5AE8CE68890DF
:104C7000EFBC8CE6B3A2E789B9E78E873A20256CB2
:104C8000750D0A005B5553415254335D20E8BF9EB9
:104C9000E68EA53A2053544D333220504231302015
:104CA00028545829202D3E2045535038323636207E
:104CB00052580D0A000000005B5553415254335DB9
:104CC00020E8BF9EE68EA53A2053544D3332205043
:104CD0004231312028525829202D3E20455350384A
:104CE0003236362054580D0A0000000070B50546D3
:104CF0000E4600240CE000BF40210A4800F04EF8A8
:104D00000028F9D0295D074800F013F9601C84B22F
:104D1000B442F0DB00BF4021024800F03FF8002819
:104D2000F9D070BD0048004010B504460BE000BF4C
:104D300040210A4800F032F80028F9D014F8011B8D
:104D4000064800F0F6F820780028F0D100BF402196
:104D5000024800F023F80028F9D010BD00480040B8
:104D600001F40072B2F5007F00D100BFCA43028097
:104D7000704721B1828942F40052828104E0828925
:104D80004DF6FF731A40828170471AB1838A0B4334
:104D9000838202E0838A8B4383827047024600202D
:104DA000B1F5007F00D100BF13880B400BB101208B
:104DB00000E00020704770B5024600240023002563
:104DC000002040F66A16B14200D100BFC1F342157F
:104DD00001F01F03012606FA03F3012D02D1968983
:104DE000334006E0022D02D1168A334001E0968A54
:104DF00033400C12012606FA04F41688344013B12D
:104E00000CB1012000E0002070BDF0B50346002485
:104E100000260025002040F66A17B94200D100BFE5
:104E20001846C1F3421401F01F06012707FA06F5E0
:104E3000012C01D10C3004E0022C01D1103000E033
:104E400014301AB107682F43076002E00768AF43C8
:104E50000760F0BD2DE9FF4705460E460024A14638
:104E600000BFA046B08900B100BF2C8A24F4405492
:104E7000F08804432C82AC8941F20C608443B088F2
:104E800031890843718908430443AC81AC8A24F416
:104E90004074B0890443AC826846FEF791FC204818
:104EA000854202D01F48854202D1DDF80C9001E016
:104EB000DDF80890A88900F4004040B109EBC90072
:104EC00000EB091031684900B0FBF1F707E009EB8E
:104ED000C90000EB091031688900B0FBF1F76420CC
:104EE000B7FBF0F004012009642101FB1078A889C8
:104EF00000F4004040B1322000EBC800B0FBF1F0FC
:104F000000F00700044308E0322000EB08106421A1
:104F1000B0FBF1F000F00F0004432C81BDE8FF87E7
:104F2000001001400014014001468888C0F30800C9
:104F30007047C1F308028280704700BFFEE700009F
:104F40001CB50648032100234FF48062CDE9001010
:104F500003A1064804F062F91CBD000038010020DE
:104F60007461736B5F766973696F6E00615D0008D1
:104F700001480078704700002D0100201CB5012178
:104F80000420FEF7CDFB0420009001208DF80400E2
:104F900000208DF8060002208DF805008DF807002E
:104FA00069460548FDF7B2FC04210348FDF722FDE0
:104FB0000020024908701CBD000802402D0100209D
:104FC00010B504210348FDF715FD002002490870C3
:104FD00010BD0000000802402D01002010B5042182
:104FE0000348FDF709FD01200249087010BD0000CB
:104FF000000802402D0100200FB4054B10B503A995
:10500000044A029800F00EF910BC5DF814FB000091
:10501000E5630008140000200FB41CB50246002010
:1050200007AC00290BD0491ECDE90021054B6A468B
:105030002146069800F0F6F8009A002111701CBC79
:105040005DF814FB535900080FB4084B10B504A9C0
:1050500002AA039800F0E6F8044602A9002000F036
:1050600083FC204610BC5DF814FB00006959000861
:10507000014B024A00F0D6B8E56300081400002096
:1050800002E008C8121F08C1002AFAD17047704711
:10509000002001E001C1121F002AFBD1704700006F
:1050A0002DE9FF5F82B00021DDE90430020DDDF85B
:1050B00040B0034318D044F61050A2F2FF324243EE
:1050C0001514119801281FD0A5EB0B00401C5FEAB6
:1050D000000A4FF000064E4FDFF83891B0465046B8
:1050E00015D5CAF1000413E0119801244AA3012840
:1050F00001D16FEA0B010298119AC0E90031C0E9B1
:10510000024206B0BDE8F09FCBF10000DFE70446A5
:105110000021404A491842EB0450CDE9001012E04A
:10512000E00707D032463B4640464946FBF76DFA5A
:105130008046894632463B4610461946FBF765FADB
:1051400006460F466410002CEAD1DDE90401DDE9D2
:105150000023BAF1000F06DAFBF757FA42464B4636
:10516000FBF753FA05E0FBF704FC42464B46FBF71E
:1051700000FC04460E460022284BFBF7CBFA03D86E
:105180004FF0FF30014607E00022254B2046314614
:10519000FBF794F9FBF75CFC102409E0002C0ADB18
:1051A0000A220023FBF7E4FA039B30321A55641EEF
:1051B00050EA0102F2D1641C039AC4F111031444B1
:1051C000119A012A03D0012208430DD10AE00843B5
:1051D00004D000204FF0110B119072E7A3EB0B05E8
:1051E0006D1E0DE05B4504DD4FF0000205F1010589
:1051F00004E003DA4FF00002A5F10105002AECD02B
:1052000002981199C0E90231C0E9004579E7000030
:10521000000014400000F03F300000000000F043A8
:105220000000E03F2DE9FF4F95B09B4689460646BA
:1052300000250FE2252877D100242746F84A0121CE
:10524000059400E0044316F8013F203B01FA03F007
:105250001042F7D130782A2811D06FF02F03307820
:10526000A0F13002092A16D8059A44F0020402EB94
:10527000820203EB42021044761C0590EFE759F8D6
:10528000042B0592002A03DA504244F4005405909E
:1052900044F00204761C30782E2816D116F8010F3F
:1052A00044F004042A280DD06FF02F023078A0F1CA
:1052B0003003092B09D807EB870302EB4303C71818
:1052C000761CF3E759F8047B761C30786C280FD0F5
:1052D00006DC4C2817D068280DD06A2814D104E0C9
:1052E000742810D07A280FD10DE044F400140AE09D
:1052F00044F4801401E044F440147278824202D1F4
:1053000004F58014761C761C307866280BD013DCEC
:10531000582877D009DC002875D04528F6D04628D3
:10532000F4D047281AD19DE118E0632835D06428CD
:1053300079D0652812D195E1702873D008DC6728F0
:10534000F1D069286FD06E280DD06F2806D1B5E056
:1053500073282CD0752875D0782874D05A461799A0
:1053600090476D1C75E1C4F30250022809D0032850
:105370000DD0D9F8001004280DD00D6009F10409F2
:1053800067E1D9F80010EA17C1E90052F6E7D9F849
:1053900000100D80F2E70D70F0E719F8041B8DF88E
:1053A000001000208DF80100EA46012003E059F8C2
:1053B00004AB4FF0FF3061074FF0000102D40DE065
:1053C00008F101018846B9420FDA8045F8DB1AF886
:1053D00008100029F4D108E008F101018846814253
:1053E000FADB1AF808100029F6D105985B46A0EB05
:1053F000080721463846179A00F094FA284400EB33
:10540000080507E04DE029E10DE01AF8010B5A46C6
:1054100017999047B8F10108F7D25B462146384604
:10542000179A13E142E00A220092C4F302524FF0AD
:10543000000A022A08D059F804CB032A4FEAEC717B
:105440000AD00DE029E02AE009F1070121F0070266
:10545000F2E802C1914609E00FFA8CFC4FEAEC71C8
:10546000042A03D14FFA8CFC4FEAEC71002907DAC9
:105470000A460021DCF1000C61EB02012D2202E062
:10548000220504D52B228DF80420012203E0E20737
:1054900001D02022F7E7904659E00A2102E01022CD
:1054A0000DE010214FF0000A00910BE010224FF0A8
:1054B000000A44F004040827009203E008224FF099
:1054C000000A0092C4F30252022A05D059F804CB14
:1054D0000021032A08D009E009F1070121F00702A1
:1054E000F2E802C1914605E01FFA8CFC042A01D1C2
:1054F0000CF0FF0C4FF00008220728D5702806D0CA
:10550000009B83F0100353EA0A0305D00EE040220B
:105510008DF80420012208E05CEA010206D0302266
:105520008DF804208DF8050002229046009B83F040
:10553000080353EA0A030AD15CEA010201D16207B7
:1055400005D530228DF804204FF001087F1E582821
:1055500004D034A003900EA802900DE036A0F9E725
:1055600053466046009AFBF703F984460398825C31
:105570000298401E029002705CEA0100F0D102988D
:1055800006A9081A00F1200A600702D524F4803425
:1055900000E00127574502DDA7EB0A0000E00020EC
:1055A00000EB0A01009005984144401A0590E00381
:1055B00006D45B462146179A059800F0B3F90544D6
:1055C000002706E001A85A46C05D179990476D1C58
:1055D0007F1C4745F6DBE0030CD55B462146179A56
:1055E000059800F09FF9054404E030205A461799C9
:1055F00090476D1C0099481E00900029F5DC08E0DA
:10560000029802995A460078491C029117999047CE
:105610006D1CBAF10001AAF1010AF1DC65E100009C
:105620000928010030313233343536373839616278
:10563000636465660000000030313233343536373C
:1056400038394142434445460000000000F058F913
:105650000544761C307800287FF4ECAD19B028465C
:10566000BDE8F08F620700D4062709F1070222F097
:10567000070CFCE80223E14603F000485FEA080C4F
:1056800002D00FF2702C0DE05FEA045C02D50FF23D
:10569000682C07E05FEAC47C02D00FF2602C01E0C6
:1056A000AFF2700C4FF0FF3823F00043CDF850C03C
:1056B00065280CD006DC452809D046281DD047288F
:1056C0003DD13DE0662818D067287ED138E0002122
:1056D000112F01DB112000E0781CCDE9000106A9A3
:1056E0000EA8FFF7DDFCDDE90F010E9A0391002102
:1056F000009207F1010A04914DE04FF0004000973D
:10570000CDE9011006A90EA8FFF7CAFCDDE90F02DA
:1057100003920E9B11990022DDF80CA000930492D5
:1057200011B9791C00EB010AB7EB0A0004D4C0F1EF
:10573000FF3007F1010A0490AAEB0700019044E052
:10574000012F00DA01270021112F01DD112000E0D7
:105750003846CDE9000106A90EA8FFF7A1FCDDE956
:105760000F010E9A0391002104910092BA4621077D
:105770000CD40399514500DA8A46BAF1010F05DDD0
:10578000009AAAF10101515C302908D0B84202DA2E
:1057900010F1040F06DA0121CDE9011015E0AAF19C
:1057A0000101E9E7002805DC049901440491AAEB12
:1057B000000102E0411C514500DD8A460499401A6F
:1057C000401C01904FF000400290200704D4019843
:1057D000504501DBCDF8048000208DF84F00029881
:1057E0000DF14F07B0F1004F25D02B200E900298FD
:1057F0004FF0020800280CDA404202902D200E9053
:1058000007E00A210298FAF79DFF3031029007F86D
:10581000011DB8F10001A8F10108F2DC029800288E
:10582000EFD1791E0E980870307800F0200040F01B
:10583000450007F8020D12A8C01B00F107081498D4
:10584000007800B1012000EB0A01019801EBE07142
:1058500005984144401A401E0590E00306D45B467B
:105860002146179A059800F05DF8054414980078D1
:1058700018B15A46179990476D1CE00324D55B4632
:105880002146179A059800F04DF805441CE004984D
:10589000002807DBDDE90301884203DD0098405C56
:1058A000179901E0179930205A469047049805F15E
:1058B0000105401C04900198401E019004D12E2047
:1058C0005A46179990476D1CBAF10001AAF1010AD6
:1058D000DDDC05E017F8010B5A46179990476D1C5F
:1058E000B8F10001A8F10108F4DC5B462146179AE3
:1058F0000598ABE62D0000002B0000002000000002
:105900002DE9F041044600251E461746880404D4BC
:1059100005E039462020B0476D1C641EF9D52846A5
:10592000BDE8F0812DE9F041044600251E46904671
:10593000C80301D5302700E02027880404D505E0FE
:1059400041463846B0476D1C641EF9D52846BDE86F
:10595000F0814A68002A06D00A68531C0B60107058
:105960004868401E486070470A68531C0B601070FE
:10597000704702460020CB1C23F00301D2F8883088
:105980008B4207D3843253685B1A53601068431804
:1059900042F8843970472DE9F05F04460E462768C7
:1059A000D4F804804FF0000B207BC11700EBD161CD
:1059B0004911A0EB41150120A840401E216E01EACB
:1059C000000A2FE094F8640010B14FF0FF0925E0C1
:1059D00077B9D4F808804FF4007241462046D4F8D5
:1059E0008C30984707461FB96FF00100BDE8F09F63
:1059F00018F8019B7F1EBBF1000F09D04FF0000B80
:105A0000B9F1000F01D084F864904FF0FF0905E070
:105A1000B9F1FF0F02D14FF0010B03E049EA0A2A66
:105A2000083500BFB542CDD3C4F860A0A81B2073D1
:105A30002760C4F80480A81B00F01F012AFA01F0B7
:105A4000D4E72DE9F04F87B00C464FF4B55BCDF8A5
:105A500018B041F2511BCDF814B042F6CF1BCDF86F
:105A600010B041F6905BCDF80CB04FF0000BCDF8C4
:105A700000B080E0D0F800C0D0F84080D0F880902E
:105A8000D0F8C0100CEB090AACEB090BCDF808B04C
:105A9000A8EB010B4FF4B55E0BFB0EFB4FEA2B3767
:105AA00041447F1A0AEB010CAAEB0101DDF808B0B2
:105AB00007EB0B08DDF808B0ABEB0709D0F8E050B6
:105AC000036AD0F8A060026EA3EB050A5F19A6EB8B
:105AD000020BCDF808B03244A7EB020B0BFB0EFB18
