:020000040800F2
:1000000060B3012055020008252B0008A92800082C
:10001000F1290008C9120008574B00080000000031
:100020000000000000000000000000009D0100082A
:10003000AD1A000800000000F10100088D42000820
:100040006F0200086F0200086F0200086F020008CC
:100050006F0200086F0200086F0200086F020008BC
:100060006F0200086F0200086F0200086F020008AC
:100070006F0200086F0200086F0200086F0200089C
:100080006F0200086F0200086F0200086F0200088C
:100090006F0200086F0200086F0200086F0200087C
:1000A0006F0200086F0200086F0200086F0200086C
:1000B0006F0200086F0200086F0200086F0200085C
:1000C0006F0200086F0200086F0200086F0200084C
:1000D0006F02000829430008F5430008AD460008F8
:1000E0006F0200086F0200086F0200086F0200082C
:1000F0006F0200086F0200086F0200086F0200081C
:100100006F0200086F0200086F0200086F0200080B
:100110006F0200086F0200086F0200086F020008FB
:100120006F020008711700086F0200086F020008D4
:100130006F0200086F0200086F0200086F020008DB
:100140006F0200086F0200086F0200086F020008CB
:100150006F0200086F020008851700086F02000890
:100160006F0200086F0200086F0200086F020008AB
:100170006F0200086F020008C91300086F02000830
:100180006F0200086F020008DFF80CD000F00AFAD6
:10019000004800473D69000860B301202A4B1968F8
:1001A0000868B0E8F04F80F30988BFF36F8F4FF015
:1001B000000080F3118870470000000006480068C6
:1001C000006880F3088862B661B6BFF34F8FBFF353
:1001D0006F8F00DF00BF00BF08ED00E0DFF80C000C
:1001E000016841F470010160704700BF88ED00E0D4
:1001F000EFF30980BFF36F8F134B1A681EF0100FD7
:1002000008BF20ED108A20E9F04F106008B44FF0CD
:10021000500080F31188BFF34F8FBFF36F8F08F04A
:10022000B1F94FF0000080F3118808BC1968086824
:10023000B0E8F04F1EF0100F08BFB0EC108A80F34A
:100240000988BFF36F8F704788000020EFF30580A7
:10025000704700000648804706480047FEE7FEE773
:10026000FEE7FEE7FEE7FEE7FEE7FEE7FEE7FEE766
:10027000C14200088901000840EA01039B0703D03E
:1002800009E008C9121F08C0042AFAD203E011F8D5
:10029000013B00F8013B521EF9D27047D2B201E097
:1002A00000F8012B491EFBD270470022F6E710B57B
:1002B00013460A4604461946FFF7F0FF204610BDD4
:1002C00030B505462A460B4612F8010B13F8014BD0
:1002D00008B1A042F8D01CB1002802D06D1CF1E793
:1002E000284630BD10B5044604E00B7800F8013B09
:1002F00003B1491C521EF8D2204610BD10B5002291
:1003000000E0521C835C8C5CA34201D1002BF8D12D
:10031000D8B2E1B2401A10BD30B505460020034600
:1003200000E05B1C934205D2EC5CC85C201A01D152
:10033000002CF6D130BD00000FB400B58DB010A96F
:1003400009900B9000914FF0FF300A9000200C9024
:1003500005480690054807906A4609A80F9900F0DD
:10036000F3F80DB05DF814FB65050008830500087F
:100370002DE9FF5F1D464FF0FF3BD5E90146914651
:100380005F464FF00008A9697F1C01988847296AD9
:10039000824688470028F6D1BAF1FF3F0CD024F4FA
:1003A000C064002E19DD600614D5BAF12B0F09D0F8
:1003B000BAF12D0F0ED103E0584604B0BDE8F09F0E
:1003C00044F48064A9697F1C01988847761E8246A0
:1003D000002E02DDBAF1300F03D0B9F1000F26D0A4
:1003E00032E0A969761E44F400747F1C01988847A6
:1003F0008246002E05DDBAF1780F06D0BAF1580F0B
:1004000003D0B9F1000F10D01EE0B9F1000F02D0F7
:10041000B9F1100F18D1A969761E24F400747F1C5D
:10042000019888478246102002E0082000E00A2058
:10043000814609E008FB0908A969761E44F40074A6
:100440007F1C019888478246002E05DD49465046AC
:1004500000F065F80028EDDAE96901988847A00501
:1004600002D46FF00100A8E7E00725D1600613D59C
:10047000600502D5C8F1000000E0404629680A1D69
:100480002A600968220501D5087015E0220701D508
:10049000088011E008600FE02868011D29600068ED
:1004A000210502D580F8008006E0210702D5A0F8DA
:1004B000008001E0C0F8008038467EE72DE9F05F5B
:1004C0000546002092469B468846064681464024C3
:1004D0001BE0284641464746224600F084F8534632
:1004E0005A46C01A914110D311461846224600F0D0
:1004F0006BF82D1A67EB01084F46224601200021B8
:1005000000F062F817EB00094E41201EA4F101042F
:10051000DFDC484631462A464346BDE8F09F3A288C
:1005200000D2303820F02002412A01D3A2F1370056
:10053000884201D34FF0FF30704700000268114439
:100540001378016018467047D1600449516104492D
:10055000116200211161114600F05AB83D050008F2
:1005600007060008426842B1016811F8013B23B157
:10057000521EC0E90012184670470121C160881E52
:10058000704742685AB1C368016843B983688B42B7
:1005900005D0491E521CC0E90012002070474FF0E0
:1005A000FF307047064C074D06E0E06840F001035D
:1005B00094E8070098471034AC42F6D3FFF7E8FD03
:1005C0006C9B00088C9B0008202A04DB203A00FA70
:1005D00002F1002070479140C2F1200320FA03F39A
:1005E000194390407047202A04DB203A21FA02F098
:1005F0000021704721FA02F3D040C2F1200291405D
:10060000084319467047C0B24FF4F05100F096B954
:100610002DE9F34F8BB04FF0000801F10C000C46B0
:100620004FF0010B46460DF1080A01906269012165
:1006300001989047051E2DD0252D2CD0216A884782
:10064000C0B16269012101989047216A884700285A
:10065000F7D1411E62690198904700E0761CA169BC
:100660000B988847216A88470028F7D1E1690B98E1
:100670008847DBE7A1690B9888470746A84201D164
:10068000761CD3E7E1690B9888477F1C02D1B8F14B
:10069000000F6FD046E1002762693D463946019858
:1006A00090472A2804D162690121019890470125C9
:1006B000DFF884926269012101989047A0F130012E
:1006C0000A290AD24F45E5DC07EB870100EB410719
:1006D000303FDFD445F01005ECE7E90601D46FF0B8
:1006E00000476C280AD04C2814D0682815D06A28F6
:1006F0000DD074281CD07A281AD01DE0626901211F
:10070000019890476C2802D045F0040514E045F0AC
:1007100002050DE045F020050AE06269012101981B
:100720009047682802D045F0080505E045F40065CB
:100730006269012101989047C4E9015765283DD0BD
:1007400019DC58287AD00CDC452837D004DC252861
:1007500026D0412831D131E046282FD047282CD14E
:100760002CE05B2877D0612828D063287CD06428CF
:1007700023D15AE0D0E06F2848D008DC66281DD08D
:1007800067281BD0692821D06E2816D127E0702851
:1007900045D0732868D0752847D078280DD14DE012
:1007A000A1690B988847054625283FF469AFE169A0
:1007B0000B9888476D1C3FF46AAFB3E023466A4646
:1007C0006FF001000B99AFF300809EE045F0400010
:1007D0006060A80723464FF0000236D43EE0E807E9
:1007E0007FF447AF2068011D21600068290501D50D
:1007F00006701BE7290701D5068017E7A90703D56F
:10080000F117C0E9006111E706600FE745F040000D
:100810006060A80723464FF0080216D41EE040F699
:100820000E0125EA0100606016E045F040006060BE
:10083000A80723464FF00A0207D40FE045F0400016
:100840006060A80708D5234610226FF001000B99BD
:10085000AFF3008059E007E0234610226FF001005B
:100860000B99FFF785FD50E04FF000094F464B46CE
:10087000632802D05B2806D040E0E80601D40120BE
:10088000A06001273AE062690121019890475E2843
:1008900005D14FF0010962694946019890472169E5
:1008A00039B900210A46534643F82120491C08293A
:1008B000FADBB0B3216969B9C11700EBD1625311FA
:1008C0000AEB830122F01F02821A01200B6890407C
:1008D00003430B6062690121019890475D28E8D1CC
:1008E000B9F1000F09D00020514651F82020D24321
:1008F00041F82020401C0828F7DB02AB2246009775
:100900006FF001000B99AFF3008000280CDA401C57
:1009100008D1BBF1000F05D04FF0FF300DB0BDE89E
:10092000F08FFFE74046F9E7E90701D108F1010838
:1009300006444FF0000B79E6CCCCCC0C7F2801D9D3
:10094000002208E0064A02EB5002C007127800D1EC
:10095000120902F00F020120904008407047000089
:100960007698000870B58C1810F8015B15F0070335
:1009700001D110F8013B2A1106D110F8012B03E038
:1009800010F8016B01F8016B5B1EF9D12B0705D440
:100990000023521E0DD401F8013BFAE710F8013B89
:1009A000CB1A921C03E013F8015B01F8015B521EA5
:1009B000F9D5A142D8D3002070BD21B1826842F0A0
:1009C0000102826003E0826822F0010282607047C7
:1009D0000146C86C80B270470246002013680B4085
:1009E0000BB1012000E000207047000030B5024646
:1009F000002000235068104C20400D790C6844EA18
:100A000005242043506090680C4C2040D1E90354E9
:100A10002C438D682C434D7944EA45042043906073
:100A2000D06A20F470000C7D641EE4B2234340EAD7
:100A30000350D06230BD0000FFFEFFFCFDF7FFC099
:100A4000F0B504460D4600200021092D11DDE068B7
:100A5000A5F10A0606EB4607072606FA07F18843C2
:100A6000A5F10A0606EB460603FA06F10843E06024
:100A70000CE0206905EB4507072606FA07F18843D5
:100A800005EB450603FA06F108432061072A0FDA51
:100A9000606B561E06EB86071F2606FA07F1884391
:100AA000561E06EB860605FA06F10843606322E04F
:100AB0000D2A0FDA206BD61F06EB86071F2606FAD3
:100AC00007F18843D61F06EB860605FA06F10843B0
:100AD000206310E0E06AA2F10D0606EB86071F26F0
:100AE00006FA07F18843A2F10D0606EB860605FA21
:100AF00006F10843E062F0BD816841F08041816009
:100B00007047000010B5012007F090FD0A49086009
:100B100000200A490870012048709FED090A084624
:100B200080ED010A0020087248729FED060A08460F
:100B300080ED030A10BD00001C00002050010020C1
:100B40009A99993F0000000010B51248006830B132
:100B500000235A1E19460F48006807F095FD012032
:100B60000D490870B2EE0E0A084680ED010A04F045
:100B700043F801200849087208A003F03DFA05482F
:100B8000006830B100231A4619460248006807F091
:100B900069FE10BD1C000020500100200D0A3E3EE1
:100BA0003E205B454D455247454E43595D204D61C2
:100BB0006E75616C204F7665727269646520416361
:100BC00074697661746564212050756D70204F4E94
:100BD00021203C3C3C0D0A0010B5044619A12046DA
:100BE000FFF76EFB48B1012019490870087204F044
:100BF00003F818A003F000FA22E022A12046FFF734
:100C00005FFB50B10120124908700020087203F008
:100C1000E5FF1FA003F0F0F912E029A12046FFF73D
:100C20004FFB20B929A12046FFF74AFB40B1002025
:100C300007490870087203F0D1FF28A003F0DCF91F
:100C400010BD0000434D443A50554D503A3100001C
:100C5000500100205B436C6F756420434D445D2060
:100C6000F09F9AA8204D414E55414C204F56455279
:100C7000524944453A2050554D50204F4E210D0ABF
:100C800000000000434D443A50554D503A300000AA
:100C90005B436C6F756420434D445D20F09F9AA8C0
:100CA000204D414E55414C204F56455252494445E6
:100CB0003A2050554D50204F4646210D0A00000065
:100CC000434D443A4D4F44453A3000002273797306
:100CD00074656D5F6D6F6465223A30005B436C6FC5
:100CE000756420434D445D20F09FA4962041492027
:100CF0004155544F204D4F444520524553544F5277
:100D00004544210D0A00000010B52DED048B04466A
:100D1000FA48006830B100235A1E1946F7480068A7
:100D200007F0B2FC9FEDF68AF648007884F82300BD
:100D3000F448407800EE100AB8EE400A84ED090A43
:100D4000F0484088A062EF488088A085ED48C088C0
:100D5000E085EC48007A84F83000EB4890ED010A19
:100D600084ED100A90ED010AF2EE040AB4EEE00AF6
:100D7000F1EE10FA14DD0220E34948729FEDE30A18
:100D8000084680ED030A0020487003F027FF00208A
:100D9000DD49087201200870DDA003F02DF989E11A
:100DA0000120D9494870E74800880A2873DA94ED91
:100DB000110AB5EEC00AF1EE10FA42DD94ED110A07
:100DC000DFEDE10AB4EEE00AF1EE10FA39D294ED6B
:100DD000070ADFEDCE0AB4EEE00AF1EE10FA30D2E7
:100DE000D848008850B994ED110AD84880ED000A1F
:100DF00094ED070AD64880ED000A1DE0D34890ED37
:100E0000000ADFEDD40A20EE200AD4ED110A9FED8E
:100E1000D21A00EE810A80ED000ACD4890ED000A5A
:100E2000DFEDCC0A20EE200AD4ED070A9FEDCA1AA6
:100E300000EE810A80ED000AC2480088401CC149CA
:100E4000088094ED110ADFEDC50AB4EEE00AF1EE78
:100E500010FA0BDA94ED070ADFEDC10AB4EEE00AEE
:100E6000F1EE10FA02DA94F8230000B14CE0002011
:100E7000A54948729FEDA20A084680ED030A007852
:100E800038B90846007A012803D10020087203F01F
:100E9000A5FE0FE1FFE794ED110ADFEDB20AB4EE13
:100EA000E00AF1EE10FA2ED294ED070ADFEDAE0A59
:100EB000B4EEE00AF1EE10FA25D2D4ED110AA348FF
:100EC00090ED001A70EEC10AB0EE600AF8EE000A6A
:100ED000B4EEE00AF1EE10FA14DDF0EE000AB4EE22
:100EE000E00AF1EE10FA0DD2D0ED000A9FED9F1A44
:100EF00060EE810A94ED111ADFED9D1A41EE210A90
:100F0000C0ED000A00BF00BF94F8230070B19FED50
:100F1000990A38EE000AB0EE408A94F8300028B101
:100F2000B3EE040A38EE000AB0EE408A94F82200CC
:100F300010B9E08A012805D19FED8F0A38EE000A2A
:100F4000B0EE408A94ED110A8048D0ED000A70EEB0
:100F5000608A94ED110ADFED810AB4EEE00AF1EE49
:100F600010FA06DB9FED7D0A38EE000AB0EE408AEB
:100F70001AE0B2EE0E0AF4EEC08AF1EE10FA06DDC7
:100F80009FED710A38EE000AB0EE408A0CE0B2EE36
:100F9000000AF4EEC08AF1EE10FA05DDB2EE0E0A98
:100FA00038EE000AB0EE408A94ED070A6848D0EDAA
:100FB000000A30EE609A94ED070ADFED690AB4EE9C
:100FC000E00AF1EE10FA06DB9FED670A38EE000A40
:100FD000B0EE408A1AE09FED4D0AB4EEC09AF1EEF1
:100FE00010FA06DDB3EE0E0A38EE000AB0EE408AC3
:100FF0000CE09FED550AB4EEC09AF1EE10FA05DD53
:10100000B2EE0E0A38EE000AB0EE408A3E4880ED9D
:10101000038A9FED590AB4EEC08AF1EE10FA1FDB85
:1010200000205649087056480078012805DA5448CF
:101030000078401C524908703BE003203249487256
:1010400008460078002834D10846007A002830D1BC
:101050000120087203F0D0FD4AA002F0CDFF28E085
:101060009FED3E0AB4EEC08AF1EE10FA1ED20020C7
:101070004349087041480078012805DA3F48007864
:10108000401C3E49087014E000201F494872084681
:10109000007870B90846007A01280AD10020087249
:1010A00003F09CFD43A002F0A7FF02E002201649D6
:1010B000487200BF03F06AFD134908720846407A7F
:1010C00030346070084690ED030A84ED010A007A1E
:1010D000207708460078607708464078A077303C53
:1010E0000648006830B100231A46194603480068D4
:1010F00007F0B8FBBDEC048B10BD00001C00002005
:101100000000000060010020500100200000C842E3
:101110005B435249544943414C5D204375727265AB
:101120006E74204F7665726C6F616421204D616929
:101130006E20506F77657220547269707065642EEE
:101140000D0A00002800002000002042200000209E
:10115000240000206666663FCDCCCC3D0000704286
:101160000000964300000C420000484277BE7F3FDB
:101170006F12833A00008C420000A0422B00002036
:101180002A0000205B41495D205269736B20434F68
:101190004E4649524D454421204175746F2D74725D
:1011A0006967676572696E672070756D702E0D0ACC
:1011B000000000005B41495D20456E7669726F6EEC
:1011C0006D656E7420737461626C652E2041757458
:1011D0006F2D73746F7070696E672070756D702EEF
:1011E0000D0A000010B500240A48006878B10023F9
:1011F0005A1E19460748006807F046FA0648047860
:1012000000231A4619460348006807F02BFB2046C6
:1012100010BD00001C0000205001002010B5044645
:101220000948006878B100235A1E1946064800682C
:1012300007F02AFA0548047000231A4619460248A6
:10124000006807F00FFB10BD1C00002050010020BB
:1012500010B52DED028BB0EE408A0B48006880B1CE
:1012600000235A1E19460848006807F00DFA07487F
:1012700080ED018A00231A4619460348006807F0EA
:10128000F1FABDEC028B10BD1C00002050010020C3
:1012900070B504460A48006888B100235A1E1946F2
:1012A0000748006807F0F0F9064894E82E002EC0C1
:1012B00000231A4619460248006807F0D3FA70BDA9
:1012C0001C0000206001002000BFFEE730B107498C
:1012D000096841F00101054A116005E00349096808
:1012E00021F00101014A1160704700000000055023
:1012F00001494861704700000000055030B10749BE
:10130000096841F48041054A116005E00349096814
:1013100021F48041014A116070470000000005502F
:10132000F0B58FB004460D4616461F4601218805CC
:1013300002F016F9144800F083FA00BF124800F0DA
:101340002BFB0028FAD14FF0007000900F4801905D
:10135000029400200390049505904FF4806006905D
:101360008000079080000890002009904FF4003022
:101370000A9000200B900C900D900E906946024848
:1013800000F068FB0FB0F0BD286402402800055053
:10139000002005490860C8601F204861002088615E
:1013A000C86108624862704700000550014600208D
:1013B0000022044B1B6903EA01020AB1012000E08C
:1013C000002070470000055038B53848007830B923
:1013D00037A005F091FA01203449087005E034A0E7
:1013E00005F068FA0020314908700120FFF7DEFFA0
:1013F000002859D030480068401C2F49086000215F
:101400002E4800F011FA00BF2C48006800F00100DF
:101410000028F9D1294800F0C9FA04464FF40C40DD
:10142000A0EB8400264909688860254800682549A2
:10143000884201D1244800E022480546002000905F
:1014400003201F49096808711D4805601F4800688E
:1014500020B169461D48006806F072FF1848006810
:10146000006816490C3108604FF40C501349091DEF
:1014700008601749114800F0A3F91F201549486179
:1014800001210E4800F0D0F90120FFF731FF00984C
:1014900048B1009838B14FF080500F490860BFF351
:1014A0004F8FBFF36F8F00BF38BD00006C0000206E
:1014B0006C65643100000000680000202864024070
:1014C00010010020E8000020FC0000203400002073
:1014D000400F00100000055004ED00E029B1074A5C
:1014E000D2680243054BDA6006E0044AD268C3437F
:1014F0009BB21A40014BDA607047000000000550B3
:1015000000210E4A126844F201039A430B4B1A6001
:101510001A46116840F6F2729143028843881A43D2
:1015200083881A43C3881A4303891A4343891A4399
:1015300083891A431143014A116070470000055026
:1015400010B500201349087001201349096808717B
:101550000021124800F068F900BF104800F01CFAA2
:101560000028FAD10C48006800680C490C3108606A
:101570004FF40C500949091D08600949074800F05B
:101580001FF90121054800F04FF90120FFF79EFEE9
:1015900010BD000029010020100100202864024035
:1015A000400F001010B5002400F02AF804E0601C81
:1015B000C4B2012004F0F6F94FF480410F4801F065
:1015C00050F908B1642CF2DB642C01DB012010BD62
:1015D000002404E0601CC4B2012004F0E3F94FF4DD
:1015E0008041064801F03DF908B9642CF2DB642C17
:1015F00001DB0120EBE70020E9E7000000040240E6
:101600001CB54FF48040009000208DF804000120AC
:101610008DF807006946024801F0B8F81CBD0000CB
:10162000000402401CB54FF48040009001208DF86A
:10163000040000208DF8060002208DF8050001202E
:101640008DF807006946024801F0A0F81CBD0000B3
:101650000004024010B50121022001F081FF00F0DA
:101660006DF8FFF79FFF10BD10B5002404E0601C6B
:10167000C4B2012004F096F94FF48041104801F003
:10168000F0F808B1642CF2DB002404E0601CC4B262
:10169000012004F087F94FF48041094801F0E1F896
:1016A00008B9642CF2DB282004F07CF94FF4804167
:1016B000034801F0D6F808B1012010BD0020FCE776
:1016C0000004024070B50024002506E06006040E08
:1016D000FFF7CAFF0443681CC5B2082DF6DB20469D
:1016E00070BD7CB505460E4600F028F8FFF75AFF9E
:1016F000F8B9002405E0FFF7E5FF0DF80400601CD1
:10170000C4B2052CF7DB9DF800009DF801100844D9
:101710009DF8021008449DF8031008449DF8041039
:10172000884208D19DF8000030709DF802002870B2
:1017300001E001207CBD0020FCE7000010B5FFF7B0
:1017400071FF00BF4FF48041084801F093F800BFDB
:10175000142004F013F900BF4FF48041034801F056
:101760008BF800BF1E2004F01DF910BD00040240DC
:1017700010B50249024800F03DF810BD40FF00904E
:101780002864024010B50A490A4800F013F968B10C
:101790000749084800F02EF80021064800F044F8F8
:1017A00000200549087001200449087010BD0000A0
:1017B00000800028B864024052000020530000203E
:1017C0000246094B9A4201D2084801E00648103807
:1017D00001F000531BB1064B0B40C36002E0044B09
:1017E0000B408360704700001064024000600240BC
:1017F0007D0F7D0F0246094B9A4201D2084801E055
:101800000648103801F000531BB1064B0B40C36073
:1018100002E0044B0B4083607047000010640240FC
:10182000006002407D0F7D0F21B1026842F001028D
:10183000026003E0026822F00102026070470000CB
:10184000016821F0010101600021016041608160B7
:10185000C1600161212141614A49884204D13D2191
:10186000484A103A91608CE046491831884205D1C7
:101870004FF47461434A103A916082E0414930313B
:10188000884205D14FF474113E4A103A916078E0D5
:101890003C494831884205D14FF07461394A103AC9
:1018A00091606EE037496031884204D13649354A4B
:1018B000103AD16065E033497831884204D1334928
:1018C000304A103AD1605CE02E499031884204D110
:1018D0002F492C4A103AD16053E02A49A831884256
:1018E00005D14FF03D51274A103AD16049E02949CE
:1018F000884204D13D21274A083A116041E0254938
:101900001831884205D14FF47461224A083A1160B7
:1019100037E020493031884205D14FF474111D4A17
:10192000083A11602DE01B494831884205D14FF03B
:101930007461184A083A116023E016496031884200
:1019400004D11149134A121F11601AE0114978316C
:10195000884204D10D490F4A121F116011E00D4950
:101960009031884204D10A490A4A121F116008E0E6
:101970000849A831884204D14FF03D51054A121F51
:1019800011607047106002403D000020400F0020B1
:1019900000003D2010640240014600200A6802F069
:1019A00001020AB1012000E00020704701464868AA
:1019B00080B2704770B50246002000240025124E08
:1019C000B24201D2114B01E00F4B103B104E0E40C2
:1019D00036B11E2606EAD124166806EA040502E09E
:1019E000566906F0800501F000560EB15C6800E013
:1019F0001C68084E344004EA010616B10DB10120FE
:101A000000E0002070BD0000106402400060024051
:101A10003C0F3C0F7D0F7D0F10B501F080034BB1E3
:101A200022B1436943F08003436103E0436923F03B
:101A30008003436180290BD02AB1036801F01E04A2
:101A40002343036004E0036801F01E04A343036022
:101A500010BD000010B500220268134B1A40CC687C
:101A60000B6823434C6923438C692343CC6923438C
:101A70000C6A23434C6A23438C6A23434C6B2343F5
:101A80008C6B23431A430260426922F00702D1E9BA
:101A90000B3423431A4342610B6943604B688360F4
:101AA0008B68C36010BD00003F801CF070470000D1
:101AB00010B54FF47A7202A102A000F041FB10BDF4
:101AC0004F4B000041540D0A0000000010B521A04A
:101AD00003F0A0F8264927A003F09CF82F480188BE
:101AE0002FA003F097F836A003F094F8FFF7E0FF7B
:101AF00000280FD03DA003F08DF848A003F08AF82D
:101B00004DA003F087F858A003F084F85FA003F01D
:101B100081F810BD65A003F07DF8012000F086FB80
:101B200018B16DA003F076F8F3E773A003F072F834
:101B30004FF47A727AA17BA000F002FB7BA003F045
:101B400069F8002000F08CFB86A003F063F800BF6A
:101B5000DFE700005B455350383236365D20496E72
:101B6000697469616C697A696E672E2E2E0D0A00A0
:101B7000D60200205B455350383236365D2052582D
:101B80002062756666657220616464726573733A7B
:101B9000203078253038580D0A0000005800002009
:101BA0005B455350383236365D205258207374618D
:101BB0007475733A203078253034580D0A000000CF
:101BC0005B455350383236365D2053746570203192
:101BD0003A2054657374696E6720415420636F6DB9
:101BE0006D616E642E2E2E0D0A0000005B45535071
:101BF000383236365D20496E697469616C697A6184
:101C000074696F6E206661696C6564202D204E6F6B
:101C100020726573706F6E73650D0A005B455350DB
:101C2000383236365D20506C6561736520636865B7
:101C3000636B3A0D0A0000005B455350383236366C
:101C40005D20312E20486172647761726520636F78
:101C50006E6E656374696F6E2028504231302F506C
:101C6000423131290D0A00005B4553503832363677
:101C70005D20322E204553503832363620706F7733
:101C8000657220737570706C790D0A005B45535056
:101C9000383236365D20332E2045535038323636B2
:101CA000206669726D776172650D0A005B4553505D
:101CB000383236365D205374657020323A205365D1
:101CC0007474696E672053746174696F6E206D6FF0
:101CD00064652E2E2E0D0A005B4553503832363681
:101CE0005D204661696C656420746F2073657420A3
:101CF0006D6F64650D0A00005B455350383236360F
:101D00005D205374657020333A2044697361626CBE
:101D1000696E67206563686F2E2E2E0D0A00000025
:101D20004F4B0000415445300D0A00005B455350B5
:101D3000383236365D205374657020343A20456E53
:101D400061626C696E672073696E676C6520636F92
:101D50006E6E656374696F6E206D6F64652E2E2ED6
:101D60000D0A00005B455350383236365D20496E0F
:101D7000697469616C697A6174696F6E20636F6DF3
:101D8000706C657465640D0A000000001CB50446A3
:101D9000204601F08DFD02F009FA84ED070A02F0F9
:101DA000D9F9208394ED070ADFED2B0AB4EEE00A9F
:101DB000F1EE10FA01DD012000E0002084F820009F
:101DC00004F02EFCA06304F025FCE0632348408B64
:101DD000A0822248007FE0822048407F84F82200D1
:101DE000002001900090694601A8FFF77AFC78B9BD
:101DF0009DF8000064280BDC9DF80400502807DCE7
:101E00009DF80400164908709DF8000015490870F7
:101E10001348007800EE100AB8EE400A84ED110A6B
:101E20001048007800EE100AB8EE400A84ED120A5D
:101E30002046FEF769FF0C4890ED010A403484ED1E
:101E4000000A4078A0730848007860730648007A5A
:101E50002073403C1CBD00000000484238020020B6
:101E6000DC000020DD0000205001002010B502A0A1
:101E700002F0C2F810BD00005B45535038323636D0
:101E8000205265706F72745D20536D617274204DC5
:101E90005154542047617465776179204D6F6465B2
:101EA00020496E697469616C697A65642E0D0A0057
:101EB0002DE9F34F2DED068B9DB0044694ED070AF6
:101EC000BDEEC00AF0EE40AA94ED070AF8EEEA0A69
:101ED00030EE600ADFED700A20EE200ABDEEC00A87
:101EE00010EE10BABBF1000F01DACBF1000B94ED4C
:101EF000110ABDEEC08A94ED110AF8EEC80A30EE60
:101F0000600AF2EE040A20EE200ABDEEC00A10EECE
:101F1000105A002D00DA6D4294ED120AFDEEC08ACF
:101F200094ED120AF8EEE80A30EE600AF2EE040AC6
:101F300020EE200ABDEEC00A10EE106A002E00DA74
:101F4000764294ED100ABDEEC09A94ED100AF8EEB8
:101F5000C90A30EE600ADFED500A20EE200ABDEE1D
:101F6000C00A10EE107A002F00DA7F4294ED090AC1
:101F7000FDEEC09A94ED090AF8EEE90A30EE600A27
:101F8000DFED450A20EE200ABDEEC00A10EE108AF1
:101F9000B8F1000F01DAC8F1000894ED0D0ABDEEAA
:101FA000C0AA94ED0D0AF8EECA0A30EE600ADFED21
:101FB0003A0A20EE200ABDEEC00A10EE109AB9F1DE
:101FC000000F01DAC9F100094FF480612498FEF78F
:101FD0006CF994F84E0094F84D1094F84C20E36B93
:101FE000CDE91932CDE91B1094F83110A06B159191
:101FF0008DED16AACDE9179094F83010E28DA08DE2
:10200000A36ACDE91130CDE9132194F8230008B17A
:1020100022A000E023A094F8221009B11FA100E043
:1020200020A1CDE90D10CDED0F9ACDF84080CDED7A
:10203000098A0A968DED0B9A0C9794F8210094F872
:10204000201009B115A100E016A105918DED068AB9
:10205000CDE90750208BE18ACDE90110CDED03AA2F
:10206000CDF810B0A08A2346104A4FF4806100904A
:10207000249802F0DFFD8246BAF1000F02DD1FFA5C
:102080008AF000E000202499A1F800041DB0BDEC06
:10209000068BBDE8FC8F00000000C84274727565B5
:1020A0000000000066616C7365000000589900082C
:1020B00010B50E48008800F40040A8B100200B497C
:1020C0000988C1F30D010A4A5054114609A001F0D4
:1020D00093FF0748FEF780FD4FF480710448FEF738
:1020E000E4F800200149088010BD000058000020DD
:1020F000D60200200D0A5B4E45545F52585F44459E
:102100004255475D2025730D0A00000010B50A48AE
:10211000FFF73CFE09490848FFF7CAFE0748B0F838
:10212000000408B9012010BD0448B0F8001402F002
:10213000EBFB0120F7E70000F07E0020407F00204D
:102140002DE9F04104460F461546214623A002F032
:1021500061FD0020274908804FF480712648FEF772
:10216000A4F8204602F0EEFB002626E02148008875
:1021700000281EDD39462048FEF7A2F850B10020A5
:102180001C4908804FF480711B48FEF78EF8002030
:10219000BDE8F08119A11848FEF792F848B1002077
:1021A000144908804FF480711348FEF77EF801202F
:1021B000EEE70A2003F0E2FB0A36AE42D6D30E4920
:1021C00010A002F027FD00200A4908804FF480711A
:1021D0000948FEF76AF80220DAE700005B45535031
:1021E000383236365D2053656E64696E673A202555
:1021F0007300000058000020D60200204552524FC4
:10220000520000005B455350383236365D20546929
:102210006D656F757421204C6173742062756666FC
:1022200065723A2025730D0A0000000010B588B0D1
:102230000446224605A1684602F014FD4FF47A7266
:1022400006A16846FFF77CFF08B010BD41542B4340
:10225000574D4F44453D25640D0A00004F4B00008B
:1022600010B588B00446224607A1684602F0FAFC81
:10227000214609A002F0CEFC4FF4FA6210A1684694
:10228000FFF75EFF08B010BD41542B4349504D5538
:10229000583D25640D0A00005B45535038323636F0
:1022A0005D2053657474696E67204D5558206D6FBD
:1022B000646520746F2025642E2E2E0D0A00000008
:1022C0004F4B000000B599B0B2A002F0A3FC012171
:1022D0007A2001F045F90121084601F061F94FF437
:1022E0000040179001208DF8600000208DF86200FA
:1022F00002208DF8610001208DF8630017A9AD4818
:1023000000F044FA4FF63370179002208DF8600009
:1023100000208DF8620003208DF8610001208DF807
:10232000630017A9A44800F031FA4FF683701790A4
:1023300002208DF8600000208DF8620003208DF8E7
:10234000610001208DF8630017A99C4800F01EFA77
:102350004FF23F00179002208DF8600000208DF8AA
:10236000620003208DF8610001208DF8630017A939
:10237000934800F00BFA40F23F40179002208DF88E
:10238000600000208DF8620003208DF861000120BC
:102390008DF8630017A98B4800F0F8F90C22002192
:1023A000854800F03BFA0C220121834800F036FA00
:1023B0000C220421804800F031FA0C2205217E48CD
:1023C00000F02CFA0C2208217B4800F027FA0C229E
:1023D0000921794800F022FA0C220A21764800F0FF
:1023E0001DFA0C220B21744800F018FA0C22114639
:1023F000714800F013FA0C220D216F4800F00EFA1C
:102400000C220E216C4800F009FA0C220F216A48B8
:1024100000F004FA0C220021684800F0FFF90C22B9
:102420000121664800F0FAF90C220721634800F008
:10243000F5F90C220821614800F0F0F90C2209217D
:102440005E4800F0EBF90C220A215C4800F0E6F946
:102450000C220B21594800F0E1F90C221146574893
:1024600000F0DCF90C220D21544800F0D7F90C22C1
:102470000E21524800F0D2F90C220F214F4800F0F3
:10248000CDF90C2200214E4800F0C8F90C220121A0
:102490004B4800F0C3F90C220221494800F0BEF974
:1024A0000C220321464800F0B9F90C2204214448CB
:1024B00000F0B4F90C220521414800F0AFF90C22DC
:1024C00011463F4800F0AAF90C220D213C4800F0CB
:1024D000A5F90C220E213A4800F0A0F90C220F2198
:1024E000374800F09BF90C220021364800F096F99D
:1024F0000C220121334800F091F90C2202213148CD
:1025000000F08CF90C2203212E4800F087F90C22F0
:1025100004212C4800F082F90C220521294800F002
:102520007DF90C220A21274800F078F9002001905B
:1025300002900820039000200490059006900790D8
:1025400004200890002009900A9010200B90002091
:102550000C900E900D900F9010904FF480501190B1
:10256000002012901390149001A81590169016A0B8
:1025700002F050FB08A800F077F81CA002F04AFB1C
:102580000121042000F056F820A002F043FB19B00E
:1025900000BD00005B4578747372616D5D20456E0F
:1025A00061626C696E6720636C6F636B732E2E2E95
:1025B0000D0A000000040240000C0240001002401E
:1025C00000140240001802405B4578747372616D1C
:1025D0005D20496E697469616C697A696E6720462D
:1025E000534D432E2E2E0D0A000000005B457874DB
:1025F0007372616D5D20456E61626C696E67204625
:10260000534D432E2E2E0D0A000000005B457874BA
:102610007372616D5D20496E697469616C697A617C
:1026200074696F6E20636F6D706C657465210D0A3F
:102630000000000051B18200A2F1C042126842F0D5
:1026400001038200A2F1C042136009E08200A2F1FE
:10265000C0421268034B1A408300A3F1C0431A60C2
:1026600070470000FEFF0F0030B50021002200235C
:102670000468A400A4F1C0442168424C2140D0E980
:1026800001452C43C5682C4305692C4345692C43FF
:1026900085692C43C5692C43056A2C43456A2C4344
:1026A000856A2C43C56A2C43056B2C43214304687F
:1026B000A400A4F1C04421608468082C0BD10468F4
:1026C000A400A4F1C044246844F040050468A400B8
:1026D000A4F1C04425600468641CA400A4F1C044B3
:1026E000226802F04042446B2468456B6D6844EAFE
:1026F0000514456BAD6844EA0524456BAD8944EA91
:102700000544456B2D8A44EA0554456B2D7D44EA0A
:102710000564456BAD692C4322430468641CA40026
:10272000A4F1C0442260C46AB4F5804F20D104688B
:10273000A400A4F1C044D4F80431134C2340846BAA
:102740002468856B6D6844EA0514856BAD6844EABE
:102750000524856BAD8944EA0544856BAD692C433E
:1027600023430468A400A4F1C044C4F8043107E082
:102770006FF070450468A400A4F1C044C4F804518B
:1027800030BD00008000F7FF0000F0CFF0B50A4632
:1027900000210023002400BF3DE0012505FA01F3DC
:1027A000156805EA03049C4234D105684F000326EE
:1027B000BE40B543056015794E00B5400668354307
:1027C00005601579012D02D01579022D16D1856885
:1027D0004F000326BE40B543856055794E00B54095
:1027E000866835438560456801268E40B54345605F
:1027F000456896798E40B6B235434560C5684F004E
:102800000326BE40B543C560D5794E00B540C668C5
:102810003543C560491C1029BFD3F0BDF0B5002376
:1028200000244D07ED0E02FA05F3CE1000F120054D
:1028300055F826504E07F70E0F26BE40B543CF1071
:1028400000F1200646F82750CE1000F1200555F87B
:10285000265045EA0304CE1000F1200545F8264035
:10286000F0BD0246002013690B400BB1012000E0CF
:102870000020704741837047018370471CB50548AD
:10288000042100238022CDE9001003A1054806F0B1
:10289000E7F81CBD2C0000207461736B5F686D69E4
:1028A00000000000A154000800BFFEE71CB5012194
:1028B000112000F055FE1C20009000208DF804002F
:1028C00003208DF8050001208DF8070069460648B1
:1028D000FFF75CFF0120009002208DF80700694699
:1028E0000248FFF753FF1CBD0010024000000240E9
:1028F00010B50446012C01D12C4908702B480078F2
:10290000002837D010212A48FFF7ABFF78B1082103
:102910002748FFF7A6FF50B104212548FFF7A1FF84
:1029200028B101212348FFF79CFF012822D10A206A
:1029300003F024F800201D49087010211C48FFF7FF
:1029400090FF08B9012010BD08211948FFF789FF41
:1029500008B90220F7E704211548FFF782FF08B9FC
:102960000420F0E701211348FFF77BFF01281BD16A
:102970000320E8E710210E48FFF773FF012813D169
:1029800008210B48FFF76DFF01280DD104210848ED
:10299000FFF767FF012807D101210648FFF761FF14
:1029A00010B90120014908700020CCE75A0000202E
:1029B00000100240000002401CB50121202000F060
:1029C000CFFD01208DF8040000208DF806004FF4A3
:1029D000C060009002208DF8050000208DF80700EF
:1029E00069460248FFF7D2FE1CBD000000140240F9
:1029F00000BFFEE70EB50121172000F0B1FD012157
:102A0000084600F0BDFD5020019002208DF808001E
:102A100000208DF80A0003208DF8090001208DF8B0
:102A20000B0001A93A48FFF7B1FEC020019001A9AF
:102A30003848FFF7ABFE4FF43C60019001A93648DF
:102A4000FFF7A4FE6020019001A93448FFF79EFE25
:102A50000D2204212E48FFF7E1FE0D2206212C480D
:102A6000FFF7DCFE0D2207212A48FFF7D7FE0D22D3
:102A700006212948FFF7D2FE0D2207212648FFF73D
:102A8000CDFE0D2208212448FFF7C8FE0D220921A2
:102A90002148FFF7C3FE0D220B211F48FFF7BEFEA2
:102AA0000D2206211B48FFF7B9FE0D2205211B4808
:102AB000FFF7B4FE0D2206211848FFF7AFFEFEF720
:102AC00067FC02201649088000204881888108811F
:102AD00020208880002048808020C8800846FEF79B
:102AE0000FFD0120FEF70AFC01210846FEF7F6FC67
:102AF0004E208DF8000006208DF8010000208DF892
:102B0000020001208DF80300684600F00DF80EBDAC
:102B10000000024000040240000802400010024091
:102B2000D60300207047000070B5002100230F225B
:102B3000C4781CB3174C246804F4E064C4F5E06462
:102B4000C4F30721C1F10404E3B20A4144789C4074
:102B5000E1B28478144021430C07210E0E4C057815
:102B60006155047804F01F050124AC4005786D110F
:102B7000AD0005F1E025C5F8004109E0047804F056
:102B80001F050124AC40054D0678761145F8264016
:102B900070BD00000CED00E000E400E080E100E02A
:102BA00002490143024A1160704700000000FA0523
:102BB0000CED00E01CB50548022100234A02CDE9D6
:102BC000001003A1054805F04BFF1CBD300000209C
:102BD0007265706F72745F7461736B00997C00082A
:102BE00070B50446042C03DAC4F10400C5B201E058
:102BF000201FC5B2032143F2122000F083FC2807F6
:102C0000010E45F2875000F07DFC042C05DA092105
:102C100045F2885000F076FC04E0012145F288502E
:102C200000F070FC132143F2122000F06BFCA32192
:102C300043F2122000F066FC70BD000070B505463E
:102C4000062D00DD0625032143F2122000F05AFC78
:102C50001E2145F2813000F055FC5B2145F28230A7
:102C600000F050FC082145F2833000F04BFC0024BA
:102C70000CE005EB4502114B03EB4202115D45F2FE
:102C80008432A01800F03EFC601CC4B2062CF0DBBD
:102C9000982145F28B3000F035FC012145F28A3055
:102CA00000F030FC132143F2122000F02BFCA32192
:102CB00043F2122000F026FC70BD00008C93000847
:102CC00070B5044600252026072C1AD2DFE804F050
:102CD00004080C191013160014200546064610E0CF
:102CE0001820054606460CE01C200546064608E06E
:102CF0001025242605E01825282602E01C252C2670
:102D000000BF00BF032143F2122000F0FBFB294665
:102D100045F2855000F0F6FB314645F2865000F052
:102D2000F1FB132143F2122000F0ECFBA32143F24C
:102D3000122000F0E7FB70BD10B50446022143F2FB
:102D4000160000F0DFFB022143F21C0000F0DAFB6A
:102D50002CB1022143F2190000F0D4FB04E0002161
:102D600043F2190000F0CEFB10BD00001CB501219C
:102D7000402000F0F5FB01208DF8040002208DF8C2
:102D8000050000208DF8060001208DF807004FF4A3
:102D90000240009069460E48FFF7F8FC4FF40041EE
:102DA0000B48FFF767FD142002F0E8FD4FF40071B7
:102DB0000748FFF75FFD052002F0E0FD4FF40041FA
:102DC0000348FFF759FD142002F0D8FD1CBD000098
:102DD0000018024010B50446072C7DD2DFE804F04D
:102DE000041E38526C88A200FF2145F2010000F059
:102DF00089FB01214FF4AB4000F084FB802145F2B8
:102E0000815000F07FFB002145F2825000F07AFBF8
:102E1000012145F2885000F075FB9EE0FF2145F24C
:102E2000010000F06FFB01214FF4AB4000F06AFBA2
:102E30006F2145F2815000F065FB402145F2825040
:102E400000F060FB012145F2885000F05BFB84E05C
:102E5000FF2145F2010000F055FB01214FF4AB408A
:102E600000F050FB402145F2815000F04BFB6F21F8
:102E700045F2825000F046FB012145F2885000F0F7
:102E800041FB6AE0FF2145F2010000F03BFB01211C
:102E90004FF4AB4000F036FB002145F2815000F0CA
:102EA00031FB802145F2825000F02CFB012145F2DC
:102EB000885000F027FB50E0FF2145F2010000F0B0
:102EC00021FB01214FF4AB4000F01CFB6F2145F2C8
:102ED000815000F017FB00E03EE0402145F28250B7
:102EE00000F010FB022145F2885000F00BFB34E0AB
:102EF000FF2145F2010000F005FB01214FF4AB403A
:102F000000F000FB402145F2815000F0FBFA6F21F8
:102F100045F2825000F0F6FA022145F2885000F0A6
:102F2000F1FA1AE0FF2145F2010000F0EBFA01216D
:102F30004FF4AB4000F0E6FA002145F2815000F07A
:102F4000E1FA802145F2825000F0DCFA022145F2DC
:102F5000885000F0D7FA00E000BF00BF10BD0000AD
:102F600070B557A001F056FE61A001F053FE68A0B5
:102F700001F050FE72A001F04DFEFFF7F7FE76A0C3
:102F800001F048FE00F02EFF052002F0F7FC7AA0C9
:102F900001F040FE00F074FA054629467DA001F0DC
:102FA00039FE45F24060854204D080A001F032FE37
:102FB000012070BD85A001F02DFE112143F2031008
:102FC00000F0A0FA822143F2080000F09BFA3220C0
:102FD00002F0D4FC83A001F01DFE00240DE08C4A19
:102FE00002EB840291788A4A32F8240000F08AFACF
:102FF000642002F0D7FC601C84B2CF2CEFD385A0F4
:1030000001F008FE0120FFF797FE322002F0B6FC27
:1030100088A001F0FFFD04F01FF8322002F0AEFCA2
:103020008EA001F0F7FD002000F0A6F90020FFF7C8
:1030300005FE0420FFF7D4FD0320FFF741FE0F201B
:1030400000F02DFA322002F099FC8FA001F0E2FD91
:10305000F0234FF4A0720021042000F0A4F994A002
:1030600001F0D8FD022143F2080000F04BFA3220B3
:1030700002F084FC95A001F0CDFD44F2407000F018
:10308000D2F90646314699A001F0C4FD4FF48640BE
:1030900000F0C9F9064631469DA001F0BBFD43F2A0
:1030A000080000F0C0F906463146A1A001F0B2FDCB
:1030B000A7A001F0AFFD16A001F0ACFD002078E75D
:1030C0000D0A3D3D3D3D3D3D3D3D3D3D3D3D3D3D93
:1030D0003D3D3D3D3D3D3D3D3D3D3D3D3D3D3D3D20
:1030E0003D3D3D3D3D3D3D3D3D3D0D0A0000000067
:1030F0004F56353634302043616D65726120496E1C
:10310000697469616C697A6174696F6E0D0A000097
:103110003D3D3D3D3D3D3D3D3D3D3D3D3D3D3D3DDF
:103120003D3D3D3D3D3D3D3D3D3D3D3D3D3D3D3DCF
:103130003D3D3D3D3D3D3D3D0D0A0D0A0000000079
:103140005B315D20486172647761726520726573DE
:1031500065742E2E2E0D0A005B325D2053434342D0
:1031600020696E697469616C697A6174696F6E2E29
:103170002E2E0D0A000000005B335D205265616455
:10318000696E672063616D6572612049442E2E2E41
:103190000D0A00002020202043616D6572612049E6
:1031A000443A203078253034580D0A005B4552529D
:1031B0004F525D2043616D657261204944206D6905
:1031C000736D61746368210D0A0000005B345D203B
:1031D000536F6674776172652072657365742E2E05
:1031E0002E0D0A005B355D2057726974696E672089
:1031F000696E697469616C697A6174696F6E207255
:1032000065676973746572732E2E2E0D0A000000B7
:10321000F88F00085B365D20456E61626C696E67F1
:1032200020666C617368206C696768742E2E2E0DA1
:103230000A0000005B385D2053657474696E672076
:103240004A504547206D6F64652028363430783405
:103250003830292E2E2E0D0A000000005B395D202B
:1032600053657474696E6720696D61676520717557
:10327000616C69747920706172616D6574657273D7
:103280002E2E2E0D0A0000005B31305D2053657438
:1032900074696E67206F75747075742073697A65D0
:1032A000202836343078343830292E2E2E0D0A005E
:1032B0005B31315D20456E61626C696E67206F75B0
:1032C000747075742E2E2E0D0A0000005B31325D75
:1032D00020566572696679696E67207365747469D2
:1032E0006E67732E2E2E0D0A000000002020202075
:1032F0003078343734302028706F6C61726974799B
:1033000029203D203078253032580D0A0000000079
:10331000202020203078343330302028666F726DC2
:10332000617429203D203078253032580D0A000084
:10333000202020203078333030382028636F6E749E
:10334000726F6C29203D203078253032580D0A00EC
:103350000D0A5B4F56353634305D20496E6974690D
:10336000616C697A6174696F6E20737563636573EC
:103370007366756C210D0A0010B50446032143F2F3
:10338000122000F0BFF8214645F28F5000F0BAF845
:10339000132143F2122000F0B5F8A32143F21220CA
:1033A00000F0B0F810BD2DE9F04104460D46164678
:1033B0001F46032143F2122000F0A4F8311243F615
:1033C000080000F09FF8F1B243F6090000F09AF807
:1033D000391243F60A0000F095F8F9B243F60B00F3
:1033E00000F090F8211243F6100000F08BF8E1B2E3
:1033F00043F6110000F086F8291243F6120000F09F
:1034000081F8E9B243F6130000F07CF8132143F28F
:10341000122000F077F8A32143F2122000F072F896
:103420000020BDE8F08170B50446002500F05CFD89
:10343000782000F08DFD642002F0B4FA201200F034
:1034400087FD642002F0AEFAE0B200F081FD642056
:1034500002F0A8FA00F062FD642002F0A3FA00F086
:1034600043FD792000F074FD642002F09BFA00F027
:1034700003FD054600F0E0FC00F050FD284670BD5D
:1034800070B543F20A00FFF7CEFF044643F20B008B
:10349000FFF7C9FF054645EA0426304670BD10B562
:1034A0000446212C0ADA652145F2083000F02AF89A
:1034B000214645F2023000F025F822E0252145F2B0
:1034C000083000F01FF808214FF4A64000F01AF869
:1034D000302145F2013000F015F8102145F202309C
:1034E00000F010F8002145F2033000F00BF808213D
:1034F00045F2093000F006F8302145F20A3000F0BC
:1035000001F810BD70B504460D46002600F0ECFC35
:10351000782000F01DFD00B10126642002F042FA7F
:10352000201200F015FD00B10126642002F03AFAE5
:10353000E0B200F00DFD00B10126642002F032FA85
:10354000284600F005FD00B1012600F0E7FC3046FA
:1035500070BD0000014908627047000000000E4283
:1035600029B1064A12680243044B1A6004E0034A78
:1035700012688243014B1A607047000030380240E5
:1035800029B1064A12680243044B1A6004E0034A58
:1035900012688243014B1A607047000034380240C1
:1035A00029B1064A12680243044B1A6004E0034A38
:1035B00012688243014B1A6070470000383802409D
:1035C00029B1064A12680243044B1A6004E0034A18
:1035D00012688243014B1A60704700004038024075
:1035E00029B1064A12680243044B1A6004E0034AF8
:1035F00012688243014B1A60704700004438024051
:10360000F0B5002100220024022500260223324FBB
:103610003F6807F00C0121B1042905D0082937D1F2
:1036200005E02E4F076036E02D4F076033E02A4F4C
:103630003F1F3F68C7F38056274F3F1F3F6807F083
:103640003F036EB1264FB7FBF3F7DFF88CC0ACF148
:10365000040CDCF800C0CCF3881C07FB0CF40CE075
:103660001E4FB7FBF3F7DFF870C0ACF1040CDCF8C9
:1036700000C0CCF3881C07FB0CF4174F3F1F3F68BA
:10368000C7F301477F1C7D00B4FBF5F7076002E03C
:10369000124F076000BF00BF0F4F3F6807F0F001F7
:1036A0000909104F7A5C0768D74047600A4F3F68A6
:1036B00007F4E051890A0B4F7A5C4768D74087606E
:1036C000054F3F6807F46041490B064F7A5C476835
:1036D000D740C760F0BD0000083802400024F40065
:1036E00000127A000000002010B5014600220023DD
:1036F00000204A11012A02D10A4C236808E0022A5C
:1037000003D1084C7034236802E0064C74342368FB
:1037100001F01F02012494401C400CB1012000E084
:10372000002010BD003802400149086070470000C9
:10373000800E474201490860704700003C0E474236
:10374000002100F44072B2F5407F08D1094A1168A7
:1037500021F4F811084A02401143064A1160054A53
:1037600068321268C0F30B031A43024B68331A60C5
:103770007047000008380240FFFCFF0F014600BF01
:10378000080900EB8000420001F00F001044C0B2B5
:1037900070470146002204E0501CC2B2A1F10A00A9
:1037A000C1B20A29F8DA100741EA10607047000038
:1037B00008B50022009200200021104A126802F091
:1037C0004002CAB9421E0D4B1A6000BF0B4A126874
:1037D00002F04001009A521C0092009AB2F5803F1C
:1037E00001D00029F2D0054A126802F040020AB165
:1037F000012002E0002000E0012008BD0C2800406C
:103800000348006820F0800001490860704700000C
:103810000C28004070B506460C4600250E4800688E
:103820000E4900EA0105280CE070C5F30420607021
:1038300005F03F00A070C5F3423020705EB9E0781B
:10384000FFF79CFFE0706078FFF798FF6070A0784A
:10385000FFF794FFA07070BD042800403FFFFF00F9
:1038600070B506460C4600250F4800680F4900EA6F
:103870000105C5F305402070C5F30620607005F012
:103880007F00A07005F48000000CE0705EB9207825
:10389000FFF774FF20706078FFF770FF6070A0780A
:1038A000FFF76CFFA07070BD002800407F7F7F0095
:1038B0001FB5044600F066FA0D490020FFF7D0FF5F
:1038C0000C490020FFF7A6FF09488078084949788D
:1038D000074A1278074B9B78CDE90032CDE90210F8
:1038E00004484378C27804A1204601F0BBF91FBD0B
:1038F0005B0000205F0000203230253032642D252F
:103900003032642D2530326420253032643A25303F
:1039100032643A253032640030B504460025CA20AE
:103920001549086053200860FFF742FF00B91DE009
:1039300011481C38006820F040000F491C3908600D
:1039400008460068216808430B491C3908600A4989
:103950001439A068086008460068A18840EA014060
:10396000054914390860FFF74BFF0125FF20024984
:103970000860284630BD00002428004000B587B00C
:1039800035A001F047F901210807FFF719FE0120D2
:10399000FFF7E0FD36A001F03DF90120FFF7C4FE7E
:1039A00000BF6120FFF7A0FE0028FAD03AA001F086
:1039B00031F94FF40070FFF7C3FE0120FFF7BAFEA4
:1039C0003AA001F027F900F0DDF940A001F022F95A
:1039D0007F200590FF2006900020049004A8FFF7A8
:1039E0009BFF41A001F016F900204549087048707E
:1039F000887000F019F91A204249C87001204870F7
:103A0000887004200870002000F0AAF83EA001F0A1
:103A100001F900F0B7F93A490020FFF721FF3949D1
:103A20000020FFF7F7FE3648807835494978344A58
:103A30001278CDE900210290324883784278C1782B
:103A40003D4801F0E7F80020FFF784FD3BA001F0BE
:103A5000E1F807B000BD00005B5254435D20496EA1
:103A6000697469616C697A696E672E2E2E0D0A0081
:103A70005B5254435D2050575220616E6420426176
:103A8000636B75702061636365737320656E61623B
:103A90006C65640D0A0000005B5254435D204C537A
:103AA000492072656164790D0A0000005B5254433D
:103AB0005D2052544320636C6F636B20656E6162BE
:103AC0006C656420284C5345290D0A005B52544311
:103AD0005D205254432073796E6368726F6E697A09
:103AE00065640D0A000000005B5254435D2052548F
:103AF0004320696E697469616C697A65640D0A00B6
:103B00005B0000205F0000205B5254435D20446551
:103B10006661756C742074696D65207365743A20F4
:103B2000323032362D30312D30312030303A303095
:103B30003A30300D0A000000B89800085B52544338
:103B40005D20496E697469616C697A6174696F6E30
:103B500020636F6D706C657465640D0A0000000071
:103B60002DE9F04105460C46002600274DB9607846
:103B700000F01000102804D1607820F010000A3006
:103B8000607005B908E06078FFF7F8FD0646A07898
:103B9000FFF7F4FD064600BF55B1E07800046178F8
:103BA00040EA0120A1780843217840EA413611E03B
:103BB000E078FFF7EEFD4FEA00486078FFF7E9FD97
:103BC00048EA0028A078FFF7E4FD48EA00082078DA
:103BD00048EA4036CA201249086053200860FFF7BF
:103BE000E7FD08B9002714E00E4830400C492039A1
:103BF0000860FFF705FE0A481C38006800F0200046
:103C000030B900F0BFF808B9002702E0012700E052
:103C10000127FF20024908603846BDE8F081000016
:103C2000242800403FFFFF002DE9F04105460C46E7
:103C3000002600274DB92E48006800F0400000B172
:103C400002E00020E07000BF0DE02948006800F0AD
:103C5000400020B12078FFF791FD064602E00020E9
:103C6000E07000BF00BF55B120780004617840EAE1
:103C70000120A1780843E17840EA014611E020786C
:103C8000FFF787FD4FEA00486078FFF782FD48EABA
:103C90000028A078FFF77DFD48EA0008E07848EAB0
:103CA0000046CA2012491C31086053200860FFF703
:103CB0007FFD08B9002713E00E4830400C49083951
:103CC0000860FFF79DFD0A48006800F0200030B949
:103CD00000F058F808B9002702E0012700E00127AA
:103CE000FF2003491C3108603846BDE8F081000020
:103CF000082800407F7F7F0010B58AB0044604A8E2
:103D000005A906AA07ABCDE90032CDE9021008AB40
:103D100009AA15A12046FCF70FFB01210807FFF7B0
:103D20004FFC0120FFF716FC6421099890FBF1F28B
:103D300001FB12001149C8700898487007988870F4
:103D40000020FFF70DFF0E4906980870059848708F
:103D5000049888700020FFF767FF00F013F8002038
:103D6000FFF7F8FB0AB010BD25642D25642D2564EE
:103D70002025643A25643A25640000005F00002095
:103D80005B00002008B50022009200200021CA221A
:103D9000134B1A6053221A60114A183A126822F023
:103DA000A0020F4B183B1A6000BF0D4A183A126868
:103DB00002F02001009A521C0092009AB2F5003FD6
:103DC00001D00029F1D0064A183A126802F0200208
:103DD0000AB1012000E00020FF22014B1A6008BD5B
:103DE000242800401CB501210820FFF7B9FBC020A2
:103DF000009001208DF8040000208DF806000220BC
:103E00008DF8050001208DF8070069460948FEF786
:103E1000BDFCC0210748FEF72FFD0648006820F4CE
:103E20004040044908600846006840F4804008604B
:103E30001CBD0000000C024010B5022001F0B2FDD4
:103E400001200B4908600B49C1F89802022001F0DB
:103E5000A9FD00200649091F0860022001F0A2FD0B
:103E600000200449C1F89C02022001F09BFD10BD16
:103E70009C8241420080414270B50024174800688E
:103E800020F440401549086008460068086008258D
:103E900015E0022001F086FD01201149086060064E
:103EA000040E1048D0F81C0208B1601CC4B20220F5
:103EB00001F078FD00200A490860681EC5B2002D97
:103EC000E7DC0648006820F44040044908600846E2
:103ED000006840F480400860204670BD000C02403D
:103EE000988241420080414210B501200949086092
:103EF0000949C1F89802022001F054FD002005494B
:103F00000860022001F04EFD00200349C1F898022C
:103F100010BD00009C8241420080414210B500204B
:103F200009490860022001F03DFD01200749C1F860
:103F30009802022001F036FD0120034908600220AA
:103F400001F030FD10BD00009C82414200804142E2
:103F500070B5044600261BE004F0800018B1012073
:103F60002249086002E00020204908606006040E33
:103F7000022001F017FD01201C49091F08600220E2
:103F800001F010FD00201A49C1F89802701CC6B259
:103F9000082EE1DB1748006820F44040154908600E
:103FA000084600680860022001F0FCFC01200F496F
:103FB000091F0860022001F0F5FC0D48D0F81C0232
:103FC00008B1012500E0002500200849091F08600C
:103FD0000848006820F44040064908600846006828
:103FE00040F480400860284670BD00009C82414239
:103FF00000804142000C0240704700000CB50020D8
:10400000019000903448006840F4803032490860E4
:1040100000BF3148006800F4003000900198401C57
:104020000190009818B90198B0F5A04FF1D12A4835
:10403000006800F4003010B10120009001E0002081
:1040400000900098012846D123484030006840F095
:1040500080502149403108602048006840F44040C9
:104060001E4908601C48083000681B490831086078
:104070000846006840F4004008600846006840F4C4
:10408000A05008601648091F0860081F006840F02B
:104090008070091F086000BF0F48006800F00070C2
:1040A0000028F9D040F205700E4908600A4808302F
:1040B000006820F0030008490831086008460068DD
:1040C00040F00200086000BF03480830006800F0BC
:1040D0000C000828F8D10CBD0038024000700040E8
:1040E00008544007003C024000B589B00121084651
:1040F000FFF736FA01214802FFF772FA20200790F5
:1041000003208DF8200000208DF8230007A90F4818
:10411000FEF73CFB002001908DF808008DF80900A7
:104120000390059001208DF8180001A90848FCF7BC
:104130005DFC0723012205210548FCF781FC0121D4
:104140000348FCF73AFC09B000BD00000000024043
:104150000021014010B500240B48FCF7CDFC09E01C
:10416000641C42F21070844204D908A000F052FD91
:10417000002010BD02210448FCF72EFC0028EFD0DF
:104180000148FCF725FCF4E7002101405B536D6F0B
:104190006B655D204144432054696D656F757420E3
:1041A0004572726F72210D0A0000000010B52DEDEE
:1041B000048BFFF7CFFF09EE900AB8EE690ADFED36
:1041C000210A20EE200ADFED200A80EE201AF0EE10
:1041D000418A9FED1E0AF4EEC08AF1EE10FA04D86F
:1041E0009FED1B0ABDEC048B10BD9FED160A30EE4F
:1041F000680A80EE288A9FED169A9FED160AB4EEA3
:10420000C08AF1EE10FA19DDB2EE040AB4EEC08AEB
:10421000F1EE10FA12D2B6EE000A38EE400ADFEDE7
:104220000E0A20EE200AB0EE409AB5EEC09AF1EEEA
:1042300010FA03D29FED060AB0EE409AB0EE490A9A
:10424000D0E700003333534000F07F45CDCC4C3DE8
:1042500000000000CDCCCC3D0000C84210B5FFF7F7
:1042600043FF10BD042808D14FF0E021096941F057
:1042700004014FF0E022116107E04FF0E0210969ED
:1042800021F004014FF0E0221161704710B500BF2A
:10429000502080F31188BFF34F8FBFF36F8F00BFA3
:1042A00004F024FC18B14FF080500449086000BFAE
:1042B000002080F3118800BF10BD000004ED00E075
:1042C00010B51548006840F47000134908601348A1
:1042D000006840F001001149086000200F490831D2
:1042E00008600E4800680E4908400C4908600D48F7
:1042F000091D0860081F006820F48020091F08605D
:10430000002006490C310860FFF778FE4FF000608E
:1043100001498039086010BD88ED00E00038024096
:10432000FFFFF6FE1030002410B540F22551214861
:1043300000F04FFB10B31F4800F004FCC4B21E484D
:10434000008800F40040C8B91B48008800F4804091
:1043500060B10A2C03D000201749088020E01648DD
:10436000008840F400401449088019E00D2C06D163
:104370001148008840F480400F49088010E00E4842
:104380000088C0F30D000D490C540B480088401CF8
:104390000949088008460088C72801DD00200880F8
:1043A0000821044800F008FB10B1024800F0CAFBE5
:1043B00010BD0000001001405000002070010020DE
:1043C00008B5012240F22551094800F02CFB2620B7
:1043D0008DF8000007208DF8010000208DF8020004
:1043E00001208DF803006846FEF79EFB08BD000023
:1043F0000044004010B540F22551264800F0E9FA8B
:1044000000283DD0234800F09DFBC4B2224800881C
:1044100000F4004010BB0A2C06D11F48008840F46D
:1044200000401D4908802BE01B48008800F48040B4
:1044300060B10A2C06D11848008840F400401649A3
:1044400008801DE000201449088019E00D2C06D1D9
:104450001148008840F480400F49088010E00E4861
:104460000088C0F30D000D490C540B480088401C17
:1044700009490880084600887F2801DD002008805F
:104480000821044800F098FA10B1024800F05AFBE5
:1044900010BD0000004400405400002056020020DF
:1044A00010B586B0044601214804FFF789F80121C0
:1044B0000846FFF755F8072202211A48FEF7AEF921
:1044C000072203211748FEF7A9F90C2004900220C7
:1044D0008DF8140003208DF8150000208DF81600CB
:1044E00001208DF8170004A90E48FEF74FF900943B
:1044F0000020ADF80400ADF80600ADF80800ADF8F6
:104500000C000C20ADF80A006946074800F0B0FA2C
:104510000121054800F03BFA4021034800F02EFA43
:1045200006B010BD00000240004400407FB52648A0
:10453000008800F40040002845D023480088C0F3DC
:104540000D050020214948550C46052220A1204692
:10455000FBF7E2FE80B91822611D1F48FBF7C2FE7F
:1045600000201D49087601204876601DFFF7C4FB36
:104570001AA000F065F81EE009221AA12046FBF7F8
:10458000CBFEC0B9002003900290019001A802ABBD
:1045900003AA17A100902046FBF7CEFE032806D100
:1045A0000D490398488302980877019848770BA033
:1045B00000F046F800BF002003490880802103482E
:1045C000FBF773FE00BF7FBD5400002056020020A1
:1045D00054494D453A000000380200204F4B0D0A67
:1045E00000000000464C414D455F414F3A0000003D
:1045F000464C414D455F414F3A25642C464C414D58
:10460000455F444F3A25642C464952453A2564009B
:1046100010B5044600BF8021084800F0CDF90028FD
:10462000F9D02146054800F092FA00BF4021034826
:1046300000F0C2F90028F9D010BD0000004400408D
:1046400010B5044604B910BD03E02078FFF7E0FF81
:10465000641C20780028F8D100BFF4E708B50122D7
:1046600040F225510A4800F0DEF927208DF80000BD
:1046700007208DF8010000208DF8020001208DF840
:1046800003006846FEF750FA02A0FFF7B5FC08BD2C
:10469000004800405B5553415254335D20646F77AE
:1046A0006E2D7375636573730D0A000010B50821D4
:1046B000404800F081F910B13E4800F043FA40F262
:1046C00025513C4800F085F9002869D0394800F0B0
:1046D00039FAC4B23848008800F4004000285FD19D
:1046E0003548008800F4804048B30A2C03D00020ED
:1046F0003149088054E03048008840F400402E4999
:10470000088000200988C1F30D012C4A50542CA1C7
:104710001046FBF7D5FD18B101202C4908703FE089
:104720002BA12648FBF7CCFD28B92CA12348FBF789
:10473000C7FD002834D002202449087030E00D2C39
:1047400006D11D48008840F480401B49088027E0BE
:1047500019480088C0F30D0018490C541648008809
:10476000401C1549088008460088FF2801DD00200C
:1047700008807D2C14D1002010490F4A12888854DB
:1047800019A10E48FBF79CFD20B91AA10B48FBF7B5
:1047900097FD28B10848008840F400400649088089
:1047A0000821044800F008F910B1024800F0CAF9E5
:1047B00010BD00000048004058000020D602002034
:1047C00055504C4F41445F4F4B00000056000020B5
:1047D00055504C4F41445F4552520000574946499D
:1047E0005F4552520000000070756D705F73746118
:1047F0007475730073797374656D5F6D6F646500B4
:1048000010B586B0044601210220FEF7A9FE012161
:104810008804FEF7D5FE4FF44060049002208DF826
:1048200014008DF8150000208DF8160001208DF879
:10483000170004A91648FDF7A9FF07220A2114480A
:10484000FDF7ECFF07220B211148FDF7E7FF00946D
:104850000020ADF80400ADF80600ADF80800ADF892
:104860000C000C20ADF80A0069460A4800F000F977
:104870000121084800F08BF8214607A0FFF7BCFB98
:104880000BA0FFF7B9FB15A0FFF7B6FB06B010BDF4
:1048900000040240004800405B5553415254335DD0
:1048A00020626F756E643A20256C750D0A00000059
:1048B0005B5553415254335D203A2053544D3332AB
:1048C00020504231302028545829202D3E20455375
:1048D00050383236362052580D0A00005B5553418D
:1048E0005254335D203A2053544D333220504231DC
:1048F000312028525829202D3E2045535038323639
:10490000362054580D0A000070B505460E460024A6
:104910000CE000BF40210A4800F04EF80028F9D012
:10492000295D074800F013F9601C84B2B442F0DB43
:1049300000BF4021024800F03FF80028F9D070BDC8
:104940000048004010B504460BE000BF40210A4873
:1049500000F032F80028F9D014F8011B064800F0E6
:10496000F6F820780028F0D100BF4021024800F07E
:1049700023F80028F9D010BD0048004001F400726F
:10498000B2F5007F00D100BFCA430280704721B159
:10499000828942F40052828104E082894DF6FF73DD
:1049A0001A40828170471AB1838A0B43838202E0E6
:1049B000838A8B438382704702460020B1F5007FD3
:1049C00000D100BF13880B400BB1012000E0002094
:1049D000704770B50246002400230025002040F6F1
:1049E0006A16B14200D100BFC1F3421501F01F03A6
:1049F000012606FA03F3012D02D19689334006E021
:104A0000022D02D1168A334001E0968A33400C12FF
:104A1000012606FA04F41688344013B10CB10120C3
:104A200000E0002070BDF0B50346002400260025FC
:104A3000002040F66A17B94200D100BF1846C1F302
:104A4000421401F01F06012707FA06F5012C01D1D7
:104A50000C3004E0022C01D1103000E014301AB107
:104A600007682F43076002E00768AF430760F0BDA7
:104A70002DE9FF4705460E460024A14600BFA0468B
:104A8000B08900B100BF2C8A24F44054F08804435C
:104A90002C82AC8941F20C608443B0883189084390
:104AA000718908430443AC81AC8A24F44074B08912
:104AB0000443AC826846FEF7A3FD2048854202D03D
:104AC0001F48854202D1DDF80C9001E0DDF8089026
:104AD000A88900F4004040B109EBC90000EB0910BF
:104AE00031684900B0FBF1F707E009EBC90000EBC2
:104AF000091031688900B0FBF1F76420B7FBF0F0D2
:104B000004012009642101FB1078A88900F4004009
:104B100040B1322000EBC800B0FBF1F000F007001C
:104B2000044308E0322000EB08106421B0FBF1F0F0
:104B300000F00F0004432C81BDE8FF870010014006
:104B40000014014001468888C0F308007047C1F393
:104B500008028280704700BFFEE700001CB50648CF
:104B6000032100234FF48062CDE9001003A1064821
:104B700003F076FF1CBD0000340000207461736BED
:104B80005F766973696F6E001D55000801480078F3
:104B900070470000630000201CB501210420FEF7CF
:104BA000DFFC0420009001208DF8040000208DF827
:104BB000060002208DF805008DF8070069460548BB
:104BC000FDF7E4FD04210348FDF754FE00200249EF
:104BD00008701CBD000802406300002010B50421CD
:104BE0000348FDF747FE00200249087010BD000091
:104BF000000802406300002010B504210348FDF7BF
:104C00003BFE01200249087010BD00000008024070
:104C1000630000200FB4054B10B503A9044A0298A5
:104C200000F044F810BC5DF814FB0000615C000863
:104C30004C0000200FB41CB50246002007AC002930
:104C40000BD0491ECDE90021054B6A462146069846
:104C500000F02CF8009A002111701CBC5DF814FBC8
:104C60000F5100080FB4084B10B504A902AA03980D
:104C700000F01CF8044602A9002000F053FA204678
:104C800010BC5DF814FB00002551000802E008C8C4
:104C9000121F08C1002AFAD170477047002001E0B6
:104CA00001C1121F002AFBD1704700002DE9FF4F00
:104CB0008DB00F460546002606E025280BD0DDE91D
:104CC0000F1290476D1C761C28780028F5D111B082
:104CD0003046BDE8F08F0024A246A1460122EC49EF
:104CE00000E0044315F8013F203B02FA03F00842BC
:104CF000F7D128782A2810D06FF02F022878A0F159
:104D00003001092914D80AEB8A0102EB410144F071
:104D1000020400EB010A6D1CF0E701CF5FEA000A14
:104D200003D544F40054CAF1000A44F002046D1C97
:104D300028782E2817D115F8010F44F004042A28EA
:104D40000ED06FF02F022878A0F1300109290AD87F
:104D500009EB890102EB410100EB01096D1CF2E74F
:104D600057F8049B6D1C28786C280FD006DC4C2863
:104D700017D068280DD06A2814D104E0742810D008
:104D80007A280FD10DE044F400140AE044F48014B2
:104D900001E044F440146978814202D104F58014A2
:104DA0006D1C6D1C2A786E2A1FD00CDC632A31D052
:104DB00004DC002A8BD0582A11D1A3E0642A68D0E1
:104DC000692A0CD165E0732A2ED004DC6F2A73D0D7
:104DD000702A04D19BE0752A6FD0782A6ED01046D5
:104DE000DDE90F129047761C50E1C4F3025002280F
:104DF00006D0032809D0042801CF09D0066045E178
:104E000001CFF117C0E9006140E101CF06803DE12B
:104E100006703BE117F8040B8DF8000000208DF8B8
:104E20000100EB46012003E057F804BB4FF0FF30D0
:104E300061074FF0000102D40DE008F1010188463E
:104E400049450FDA8045F8DB1BF808100029F4D13A
:104E500008E008F1010188468142FADB1BF80810DE
:104E60000029F6D1DDE90F23AAEB0800814621468F
:104E700000F036F9304400EB080604E0DDE90F12DB
:104E80001BF8010B9047B8F10108F7D221464846BC
:104E9000F7E00A21C4F302534FF0000B0891022BF4
:104EA00004D001CFC117032B09D00AE0FF1D27F062
:104EB0000707F7E8020108E032E01FE020E000B257
:104EC000C117042B01D140B2C117031E71F10003B9
:104ED00007DA4FF0000CD0EB0C006CEB01012D2336
:104EE00002E0230504D52B238DF82430012303E0B1
:104EF000E30701D02023F7E7984658E00A2110E0A5
:104F000010210EE010204FF0000B08900CE0102153
:104F10004FF0000B44F004044FF00809089103E03F
:104F200008214FF0000B0891C4F30253022B04D068
:104F300001CF0021032B06D006E0FF1D27F0070755
:104F4000F7E8020103E080B2042B00D1C0B24FF0B9
:104F5000000823072BD5702A07D0DDF820C08CF07D
:104F6000100C5CEA0B0C05D00EE040238DF82430C9
:104F7000012308E050EA010306D030238DF82430E5
:104F80008DF8252002239846DDF820C08CF0080C0F
:104F90005CEA0B0C0BD150EA010301D1630706D583
:104FA00030238DF824304FF00108A9F10109582A67
:104FB00004D038A20B9208AA0A920BE03AA2F9E7B1
:104FC0005B46089AFBF77AFA0B9B9B5C0A9A521E87
:104FD0000A92137050EA0102F2D10A98ADEB000078
:104FE00000F1200B600702D524F4803401E04FF07B
:104FF0000109D94502DDA9EB0B0000E0002000EB20
:105000000B0141440890AAEB010AE00306D4DDE954
:105010000F232146504600F063F806444FF0000984
:1050200008E009A911F80900DDE90F12904709F11C
:105030000109761CC145F4DBE0030CD5DDE90F2343
:105040002146504600F04CF8064404E0DDE90F121A
:1050500030209047761C0899481E08900029F5DCFE
:1050600008E00A980A990078491C0A91DDE90F12B4
:105070009047761CBBF10001ABF1010BF1DC21463E
:105080005046DDE90F2300F019F806446D1C1BE6BD
:10509000092801003031323334353637383961620E
:1050A00063646566000000003031323334353637D2
:1050B0003839414243444546000000002DE9F041A3
:1050C000044600251E461746880404D405E03946E8
:1050D0002020B0476D1C641EF9D52846BDE8F0813C
:1050E0002DE9F041044600251E469046C80301D52F
:1050F000302700E02027880404D505E041463846E3
:10510000B0476D1C641EF9D52846BDE8F0814A6899
:10511000002A06D00A68531C0B6010704868401EB5
:10512000486070470A68531C0B6010707047024655
:105130000020CB1C23F00301D2F888308B4207D328
:10514000843253685B1A53601068431842F88439FC
:1051500070472DE9F05F04460E462768D4F80480B6
:105160004FF0000B207BC11700EBD1614911A0EB80
:1051700041150120A840401E216E01EA000A2FE0DF
:1051800094F8640010B14FF0FF0925E077B9D4F826
:1051900008804FF4007241462046D4F88C3098477E
:1051A00007461FB96FF00100BDE8F09F18F8019B9A
:1051B0007F1EBBF1000F09D04FF0000BB9F1000FBB
:1051C00001D084F864904FF0FF0905E0B9F1FF0FBA
:1051D00002D14FF0010B03E049EA0A2A083500BF6B
:1051E000B542CDD3C4F860A0A81B20732760C4F8D3
:1051F0000480A81B00F01F012AFA01F0D4E72DE972
:10520000F04F87B00C464FF4B55BCDF818B041F2C3
:10521000511BCDF814B042F6CF1BCDF810B041F6BB
:10522000905BCDF80CB04FF0000BCDF800B080E0F3
:10523000D0F800C0D0F84080D0F88090D0F8C010EE
:105240000CEB090AACEB090BCDF808B0A8EB010B8D
:105250004FF4B55E0BFB0EFB4FEA2B3741447F1A30
:105260000AEB010CAAEB0101DDF808B007EB0B0813
:10527000DDF808B0ABEB0709D0F8E050036AD0F8CE
:10528000A060026EA3EB050A5F19A6EB020BCDF836
:1052900008B03244A7EB020B0BFB0EFB4FEA2B339B
:1052A0003A44DDF808B0D34441F6905E0BFB0EFBA8
:1052B0004FEA2B3BCDF804B041F2511B0AFB0BFE29
:1052C000DDF804B0ABEB2E3542F6CF1EDDF808B0AA
:1052D0000BFB0EFEDDF804B0ABEB2E3BABEB020696
:1052E0009B1BED1A0CEB020BC0F800B0ACEB020BF1
:1052F000C0F8E0B008EB060BC0F820B0A8EB060B36
:10530000C0F8C0B009EB030BC0F840B0A9EB030B29
:10531000C0F8A0B001EB050BC0F860B0A1EB050B25
:10532000C0F880B0001DDDF800B00BF1010BCDF826
:1053300000B0DDF800B0BBF1080FFFF679AF203800
:105340004FF0000BCDF800B0A0E0D0F800B00BF5A6
:10535000004CD0F80880D0F8109081690CEB090A55
:10536000ACEB090BCDF808B0A8EB010B4FF4B55E20
:105370000BFB0EFB4FEA2B3741447F1A0AEB010C63
:10538000AAEB0101DDF808B007EB0B08DDF808B067
:10539000ABEB0709C56943684669C268A3EB050A18
:1053A0005F19A6EB020BCDF808B03244A7EB020B55
:1053B0000BFB0EFB4FEA2B333A44DDF808B0D34425
:1053C00041F6905E0BFB0EFB4FEA2B3BCDF804B091
:1053D00041F2511B0AFB0BFEDDF804B0ABEB2E359E
:1053E00042F6CF1EDDF808B00BFB0EFEDDF804B070
:1053F000ABEB2E3BABEB02069B1BED1A0CEB020B4F
:105400004FEA2B2B0FFA8BFBA4F800B0ACEB020B8E
:105410004FEA2B2B0FFA8BFBA4F80EB008EB060B10
:105420004FEA2B2B0FFA8BFBA4F802B0A8EB060B6C
:105430004FEA2B2B0FFA8BFBA4F80CB009EB030BF4
:105440004FEA2B2B0FFA8BFBA4F804B0A9EB030B4C
:105450004FEA2B2B0FFA8BFBA4F80AB001EB050BDC
:105460004FEA2B2B0FFA8BFBA4F806B0A1EB050B30
:105470004FEA2B2B0FFA8BFBA4F808B01034203026
:10548000DDF800B00BF1010BCDF800B0DDF800B095
:10549000BBF1080FFFF659AF07B0BDE8F08F000071
:1054A00035E00020FDF724FA0446032C0AD1FBF76F
:1054B00099FE05460DB9012100E000210846FBF7E1
:1054C000ADFE00BFFBF78EFE01280AD1022C08D1E9
:1054D000FFF75CFB012802D1FFF780FB01E0FFF73B
:1054E0008BFB10210A48FDF7BCF920B99FED090A92
:1054F000FBF7AEFE03E09FED080AFBF7A9FE042CC4
:1055000001D1FBF721FB142002F094FE00BFC8E795
:105510000010024000006A429A99993F86B04E20DE
:105520008DF8040005208DF8050000208DF8060098
:1055300001208DF8070001A8FDF7F6FA4A48006837
:1055400010B94A4848490860474800680068484917
:1055500008604FF40C5046490839086045494448F2
:105560000C38FCF72DF9012141480C38FCF75CF9A7
:105570000120FBF7ABFE75E04FF0FF31012002F098
:10558000DDFCFEF7D3FF002438480079032806D15C
:10559000354800683549884201D00C4609E0364854
:1055A0000079032805D1304800683349884200D08B
:1055B0000C46002C4FD0A068022815D9A16822689B
:1055C00000200DE04B1E1B1AD35CD92B07D18B1E7C
:1055D0001B1AD35CFF2B02D10B1AA36002E0401C04
:1055E0000828EFDB00BF00BF24480068401C2349A7
:1055F000086008460068052801D3012000E000206B
:1056000006461E480068052802D300201B49086092
:1056100001201B4908701B48046002A9304601F0B4
:105620004DFD18B916B102A8FBF732FE002503E0C4
:10563000022002F0FFFDAD1C1348007810B9B5F54B
:105640007A7FF5D3002020710E4908600E4908705A
:105650000B49087000BF282002F0ECFD0120FBF789
:1056600035FE00BF88E7000010010020E8000020A0
:1056700034640240400F0010FC0000203C00002079
:105680003800002014010020530000202DE9F74FBE
:105690008AB0074688461AE10C98112803D20620E2
:1056A0000DB0BDE8F08F0C9811380C9018F8010B74
:1056B0000790079800F0EE0008B10620F0E7079881
:1056C0000611079800F00F0910213846FFF72FFD4B
:1056D0008246BAF1000F01D10320E1E707F1200073
:1056E00000EBC90040F826A000200446089007E01F
:1056F00018F8011B0AF80410089808440890641C64
:10570000102CF5D3089841003846FFF710FD05909E
:10571000059808B90320C3E707F1300101EBC9017F
:10572000059841F82600002006900446099018E0EC
:105730001AF804500AE00998421C06990992059A41
:1057400022F810100698401C80B20690281EA5F181
:105750000105F0D14FF6FF71069801EA400006906E
:10576000641C102CE4D308990C98884201D20620BE
:1057700096E708990C98401A0C9038460899FFF75C
:10578000D6FC8346BBF1000F01D1032088E707F167
:10579000400000EBC90040F826B000240CE018F8E7
:1057A000010B079026B907980B2801DD062077E743
:1057B00007980BF80400641C08988442EFD300207B
:1057C00001900090AEB14FF400613846FFF7AFFC96
:1057D0000190019808B9032062E707F16C01019874
:1057E00041F82900FF224FF400610198FAF756FDB5
:1057F00014E04FF480613846FFF799FC0090009860
:1058000008B903204CE707F17401009841F829001A
:10581000FF224FF480610098FAF740FD0020054612
:1058200004464CE01AF80500099044E0059830F869
:105830001400C5F109018840C0F309000290E6B1E7
:105840002046641C1BF80010681C41EA00200390ED
:10585000C5F109010120884004900AE00498401E27
:105860000490039882B20298411C0291019921F898
:10587000102004980028F1D11AE02046641C1BF87F
:105880000010681C41EA00100390C5F109010120D5
:105890008840049009E00498401E04900398C2B226
:1058A0000298411C029100990A5404980028F2D1F0
:1058B0000998401E099009980028B7D16D1C0A2D3F
:1058C000B0D307F1650000EB4900845500BF0C9888
:1058D00000287FF4E1AE00BFE2E600002DE9F047CA
:1058E00082460C4616462BE0412E02D20620BDE829
:1058F000F087413E14F8019B09F0F00008B1062042
:10590000F5E709F003074FF480715046FFF70FFCED
:1059100005460DB90320EAE70AF1500040F8275088
:1059200000270BE0084810F8078014F8010B07491E
:1059300031F81810484345F828007F1C402FF1D358
:10594000002ED1D10020D2E7B6930008F6930008CC
:1059500010B504460420FEF785FC074804606FF08C
:105960007F404FF0E02148610020886108460069CF
:1059700040F00500086110BD4000002010B504464D
:1059800003F09EF8012804D014B1204602F052FC26
:1059900000242CB14FF47A7104FB01F000F002F8FE
:1059A00010BD000070B5034600224FF0E026756977
:1059B0000D4E366803FB06F44FF0E026B16910E0A7
:1059C0004FF0E026B06988420BD0884202D20E1A0E
:1059D000324402E02E1A0E4432440146A24200D361
:1059E00000E0EDE700BF70BD4000002000220C4841
:1059F0000378012109E00A48405C984203D0501C1A
:105A0000C2B20748435C481CC1B20A29F3DB05480F
:105A10008079904201DC012070470020FCE7000003
:105A200042830020DE00002038B5044624B110482F
:105A300021680160616841600E4800210160416099
:105A4000018100200C4908700CA0FFF7E3F808481A
:105A5000C078009006488378427801780FA0FFF75D
:105A6000D9F80348818817A0FFF7D4F838BD0000A3
:105A7000DE00002042830020E60000205B466972C1
:105A80006520446574656374696F6E5D20496E6955
:105A90007469616C697A65640D0A000020204853BE
:105AA000562052616E67653A20485B25642D256457
:105AB0005D2C20533E3D25642C20563E3D25640D33
:105AC0000A00000020204D696E20417265613A2075
:105AD000256420706978656C730D0A0001460878AA
