:020000040800F2
:10000000805E01209D01000849270008D7250008CF
:1000100015260008EF080008E3450008000000006E
:10002000000000000000000000000000B13C0008DB
:10003000750F0008000000005D310008453F000812
:10004000B7010008B7010008B7010008B7010008B0
:10005000B7010008B7010008B7010008B7010008A0
:10006000B7010008B7010008B7010008B701000890
:10007000B7010008B7010008B7010008B701000880
:10008000B7010008B7010008B7010008B701000870
:10009000B7010008B7010008B7010008B701000860
:1000A000B7010008B7010008B7010008B701000850
:1000B000B7010008B7010008B7010008B701000840
:1000C000B7010008B7010008B7010008B701000830
:1000D000B7010008BD3F0008854000081142000834
:1000E000B7010008B7010008B7010008B701000810
:1000F000B7010008B7010008B7010008B701000800
:10010000B7010008293B0008B7010008B701000843
:10011000B7010008B7010008B7010008B7010008DF
:10012000B7010008390C0008B7010008B701000842
:10013000B7010008B7010008B7010008B7010008BF
:10014000B7010008B7010008B7010008B7010008AF
:10015000B7010008B70100084D0C0008B7010008FE
:10016000B7010008B7010008B7010008B70100088F
:10017000B7010008B7010008550A0008B7010008D8
:10018000B7010008B7010008DFF80CD000F0FAFA58
:10019000004800471D660008805E01200648804731
:1001A00006480047FEE7FEE7FEE7FEE7FEE7FEE75C
:1001B000FEE7FEE7FEE7FEE7553F0008890100087D
:1001C00040EA01039B0703D009E008C9121F08C0D9
:1001D000042AFAD203E011F8013B00F8013B521E59
:1001E000F9D27047D2B201E000F8012B491EFBD2D0
:1001F00070470022F6E710B513460A460446194632
:10020000FFF7F0FF204610BD30B505462A460B46E5
:1002100012F8010B13F8014B08B1A042F8D01CB141
:10022000002802D06D1CF1E7284630BD421C10F8B2
:10023000011B0029FBD1801A704710B5002200E095
:10024000521C835C8C5CA34201D1002BF8D1D8B244
:10025000E1B2401A10BD034611F8012B00F8012B42
:10026000002AF9D1184670472DE9FE4F804681EAF1
:100270000300C00F0C46009021F0004123F0004520
:10028000B8EB0200A94105D24046214690461C46E3
:100290000B46024623F00040104347D0270DC7F31A
:1002A0000A00C3F30A510290401A019040286BDA09
:1002B000C3F3130040F4801B0098924620B1002342
:1002C000D2EB030A63EB0B0B01985946C0F14002D5
:1002D000504600F042F906460D4650465946019AEE
:1002E00000F05AF910EB08006141002487EA11522E
:1002F00084EAE7731A4340D0009A62B3019A012A54
:100300004FEA075215DC001B61EB02014FF000427F
:1003100002EA0752CDE90042001C41F58011324645
:100320002B4600F05AF903B0BDE8F08F4046214655
:10033000F9E7001B61EB0201001C41F58013001876
:100340005B412018A2F5001747EB030140EAD57086
:10035000B6196D4111E06D084FEA360645EAC075E1
:100360004FEA0752001B61EB0201001C41F58011AE
:1003700049084FEA30000019514132462B4603B07C
:10038000BDE8F04F00F01AB90098012240000023A8
:10039000D0EB020263EBE073009821464FEAE07471
:1003A000B8EB000061EB0401E9E783F000435BE791
:1003B00081F0004158E72DE9FE4F81EA030404F083
:1003C000004421F0004100944FF0000B23F0004363
:1003D00050EA01045ED052EA03045BD0C3F30A542E
:1003E000C1F30A552C44A4F2F3340194A0FB025447
:1003F000C1F3130141F48011C3F3130343F48013D9
:1004000001FB024400FB034E840A970A44EA81542C
:1004100047EA8357A4FB076802958D0A05FB078509
:100420004FEA932C04FB0C542705029D4FEA065813
:1004300047EA1637B5EB08056EEB070C870E920EF0
:1004400047EA811742EA8312A7FB0201B6EB0B01D0
:1004500064EB00042B0D43EA0C335E1844EB1C5094
:10046000DA465146E7FB0201C5F313044FEA0B33AA
:1004700043EA14534FEA0432019C43EA0603A4F111
:100480000C040294009CCDE900B400F0A6F803B07F
:10049000BDE8F08F00200146F9E7000030B5041EEA
:1004A00071F1000404DB4FF00044404264EB0101B1
:1004B000141E73F1000405DB1C464FF0004352424A
:1004C00063EB0403994208BF904230BD30B50B4640
:1004D000014600202022012409E021FA02F59D4274
:1004E00005D303FA02F5491B04FA02F52844151E48
:1004F000A2F10102F1DC30BD2DE9F05F05460020DC
:1005000092469B4688460646814640241BE0284684
:1005100041464746224600F02FF853465A46C01A35
:10052000914110D311461846224600F016F82D1AB4
:1005300067EB01084F4622460120002100F00DF82C
:1005400017EB00094E41201EA4F10104DFDC4846F0
:1005500031462A464346BDE8F09F202A04DB203A74
:1005600000FA02F1002070479140C2F1200320FA06
:1005700003F3194390407047202A04DB203A21FA04
:1005800002F00021704721FA02F3D040C2F12002AC
:100590009140084319467047202A06DBCB17203AC2
:1005A00041FA02F043EAE07306E041FA02F3D04078
:1005B000C2F12002914008431946704710B5141E3D
:1005C00073F1000408DA401C41F1000192185B410C
:1005D0001A4301D120F0010010BD2DE9F04D9246E3
:1005E0009B4611B1B1FA81F202E0B0FA80F22032FA
:1005F0009046FFF7B2FF04460F4640EA0A0041EA80
:100600000B0153465A46084313D0114653EA0100E2
:1006100019D0C8F140025046FFF7AEFF05460E461E
:10062000504659464246FFF798FF084305D001203F
:1006300004E020463946BDE8F08D0020054346EA37
:10064000E0762C4337430A986305E40AA0EB0800E0
:100650000022FD0A44EA47540A3002D50020014630
:10066000E9E7010510196941DDE90845001969410B
:10067000BDE8F04DA2E72DE9F04D81EA030404F056
:10068000004B21F0004514464FF0000A23F00041D2
:1006900050EA050220D054EA01021DD0C5F30A57E2
:1006A0000246C5F31303C1F31300C1F30A5640F425
:1006B000801543F48013A7EB0608101BD64608F2FA
:1006C000FD3873EB050002D308F1010801E0921830
:1006D0005B41B8F1000F03DA00200146BDE8F08D60
:1006E00000204FF48011064684460EE0171B73EB82
:1006F000050705D3121B63EB050306434CEA010C07
:1007000049084FEA300092185B4150EA0107EDD1E9
:1007100052EA030012D082EA040083EA050108438A
:1007200005D0101BAB4106D20122002306E00022B7
:100730004FF0004302E06FF0010253101AEB060085
:100740004CEB085110EB0A0041EB0B01BDE8F04DFA
:10075000FFF734BFC1F30A52C1F3130140F2FF3374
:1007600041F480119A4202DA00200146704740F2BB
:1007700033439A42A2F2334202DC5242FFF7FCBEFC
:10078000FFF7EBBE064C074D06E0E06840F00103C2
:1007900094E8070098471034AC42F6D3FFF7F8FC12
:1007A000C47E0008E47E000821B1826842F00102A4
:1007B000826003E0826822F0010282607047014695
:1007C000C86C80B270470246002013680B400BB122
:1007D000012000E00020704730B5024600200023D1
:1007E0005068104C20400D790C6844EA05242043E1
:1007F000506090680C4C2040D1E903542C438D6824
:100800002C434D7944EA450420439060D06A20F49B
:1008100070000C7D641EE4B2234340EA0350D062B2
:1008200030BD0000FFFEFFFCFDF7FFC0F0B5044641
:100830000D4600200021092D11DDE068A5F10A0612
:1008400006EB4607072606FA07F18843A5F10A06D4
:1008500006EB460603FA06F10843E0600CE0206967
:1008600005EB4507072606FA07F1884305EB450621
:1008700003FA06F108432061072A0FDA606B561E5F
:1008800006EB86071F2606FA07F18843561E06EB7D
:10089000860605FA06F10843606322E00D2A0FDAA6
:1008A000206BD61F06EB86071F2606FA07F1884342
:1008B000D61F06EB860605FA06F10843206310E012
:1008C000E06AA2F10D0606EB86071F2606FA07F17D
:1008D0008843A2F10D0606EB860605FA06F10843E9
:1008E000E062F0BD816841F080418160704700BFE7
:1008F000FEE7000070B5044605E01648056805F0FF
:10090000450000B100E0F8E700BF042003F000F963
:1009100020B1042003F0F6F8032070BD012003F09D
:10092000F7F820B1012003F0EDF80120F5E70948C0
:1009300024380068A04201D01020EEE740F2FF50BA
:1009400003F0E0F803482038006808210840C0B2EE
:10095000E3E70000342C014030B10749096841F059
:100960000101054A116005E00349096821F0010110
:10097000014A1160704700000000055001494861BC
:10098000704700000000055030B10749096841F484
:100990008041054A116005E00349096821F480415E
:1009A000014A11607047000000000550F0B58FB09B
:1009B00004460D4616461F460121880502F0D0FB6D
:1009C000144800F0A1F900BF124800F049FA0028CD
:1009D000FAD14FF0007000900F480190029400206F
:1009E0000390049505904FF4806006908000079076
:1009F00080000890002009904FF400300A900020F9
:100A00000B900C900D900E906946024800F086FA0B
:100A10000FB0F0BD286402402800055000200549B1
:100A20000860C8601F20486100208861C8610862B2
:100A30004862704700000550014600200022044B28
:100A40001B6903EA01020AB1012000E0002070479F
:100A50000000055070B53948007830B938A005F06D
:100A6000BBFD01203549087005E035A005F092FD79
:100A70000020324908700120FFF7DEFF00285CD01B
:100A800031480068401C3049086000212F4800F0C0
:100A90002FF92E4800F0EEF904464FF40040A0EB89
:100AA00084002B4909688860032029490968087176
:100AB000274800682749884201D1274800E0254897
:100AC0000546287910B92248056004E023480068EB
:100AD000401C2249086022480078401C20490870C8
:100AE0000978052901DB012100E00021084606F014
:100AF0007FF91B480078052802DB002018490870A0
:100B00000120184908701248006800680F490C312C
:100B100008604FF400500D49091D086012490B4848
:100B200000F0B2F81F20114948610121074800F088
:100B3000DFF80120FFF722FF00BF70BD2C0000206E
:100B40006C65643100000000280000202864024029
:100B500070000020480000205C0000209000002071
:100B60002D000020A0000020400F001000000550C4
:100B700029B1074AD2680243054BDA6006E0044A0D
:100B8000D268C3439BB21A40014BDA607047000041
:100B90000000055000210E4A126844F201039A43F6
:100BA0000B4B1A601A46116840F6F27291430288A4
:100BB00043881A4383881A43C3881A4303891A4314
:100BC00043891A4383891A431143014A11607047CC
:100BD0000000055010B5002013490870012013498A
:100BE000096808710021124800F082F800BF10481F
:100BF00000F036F90028FAD10C48006800680C496A
:100C00000C3108604FF400500949091D086009497A
:100C1000074800F039F80121054800F069F8012083
:100C2000FFF79AFE10BD0000890000207000002030
:100C300028640240400F001010B50249024800F03D
:100C40003DF810BD40FF00902864024010B50A49ED
:100C50000A4800F013F968B10749084800F02EF877
:100C60000021064800F044F80020054908700120E2
:100C70000449087010BD000000800028B8640240DC
:100C80001E0000201F0000200246094B9A4201D29C
:100C9000084801E00648103801F000531BB1064B2C
:100CA0000B40C36002E0044B0B40836070470000C0
:100CB00010640240006002407D0F7D0F0246094B28
:100CC0009A4201D2084801E00648103801F000536A
:100CD0001BB1064B0B40C36002E0044B0B4083602A
:100CE0007047000010640240006002407D0F7D0FDD
:100CF00021B1026842F00102026003E0026822F0C2
:100D00000102026070470000016821F001010160EA
:100D10000021016041608160C16001612121416168
:100D20004A49884204D13D21484A103A91608CE0FA
:100D300046491831884205D14FF47461434A103A4C
:100D4000916082E041493031884205D14FF47411FD
:100D50003E4A103A916078E03C494831884205D1DA
:100D60004FF07461394A103A91606EE03749603152
:100D7000884204D13649354A103AD16065E033499A
:100D80007831884204D13349304A103AD1605CE06E
:100D90002E499031884204D12F492C4A103AD16013
:100DA00053E02A49A831884205D14FF03D51274AE6
:100DB000103AD16049E02949884204D13D21274AAF
:100DC000083A116041E025491831884205D14FF4B5
:100DD0007461224A083A116037E020493031884274
:100DE00005D14FF474111D4A083A11602DE01B49DA
:100DF0004831884205D14FF07461184A083A1160B1
:100E000023E016496031884204D11149134A121F68
:100E100011601AE011497831884204D10D490F4A16
:100E2000121F116011E00D499031884204D10A4926
:100E30000A4A121F116008E00849A831884204D10B
:100E40004FF03D51054A121F11607047106002407B
:100E50003D000020400F002000003D2010640240B3
:100E6000014600200A6802F001020AB1012000E0F8
:100E7000002070470146486880B2704770B502464E
:100E8000002000240025124EB24201D2114B01E095
:100E90000F4B103B104E0E4036B11E2606EAD124F1
:100EA000166806EA040502E0566906F0800501F0BE
:100EB00000560EB15C6800E01C68084E344004EA3D
:100EC000010616B10DB1012000E0002070BD000048
:100ED00010640240006002403C0F3C0F7D0F7D0F0C
:100EE00010B501F080034BB122B1436943F0800398
:100EF000436103E0436923F08003436180290BD001
:100F00002AB1036801F01E042343036004E0036870
:100F100001F01E04A343036010BD000010B50022C1
:100F20000268134B1A40CC680B6823434C69234377
:100F30008C692343CC6923430C6A23434C6A2343C3
:100F40008C6A23434C6B23438C6B23431A4302600C
:100F5000426922F00702D1E90B3423431A4342616C
:100F60000B6943604B6883608B68C36010BD0000F1
:100F70003F801CF07047000010B54FF47A7202A158
:100F800002A000F093FF10BD4F4B000041540D0A2A
:100F900000000000F0B5A1B004460D4617463A46E1
:100FA000294613A003F020FB2B4622461AA101A8D4
:100FB000009703F041FB42F210721EA101A800F05D
:100FC00075FF0646002E0ED01CA12148FFF71CF924
:100FD00028B120A003F008FB002021B0F0BD27A01D
:100FE00003F002FB02E02FA003F0FEFA3046F4E724
:100FF0005B455350383236365D20436F6E6E656305
:1010000074696E6720746F207365727665723A201A
:1010100025733A25640D0A0041542B43495053541B
:101020004152543D222573222C222573222C256403
:101030000D0A0000434F4E4E45435400414C52456B
:1010400041445920434F4E4E45435445440000000F
:101050002C0200205B455350383236365D205365F4
:101060007276657220616C726561647920636F6E5F
:101070006E65637465640D0A000000005B455350A3
:10108000383236365D2053657276657220636F6E36
:101090006E656374696F6E206661696C65640D0AC4
:1010A000000000005B455350383236365D205365F2
:1010B0007276657220636F6E6E656374656420730B
:1010C00075636365737366756C6C790D0A00000057
:1010D000F0B5A1B004460D46214618A003F084FAED
:1010E0002846FFF7A3F8074639461DA003F07CFA0F
:1010F00000F0A4F84FF47A7004F080FA2B462246F0
:1011000021A101A803F098FA01A925A003F06CFA27
:1011100047F230522AA101A800F0C8FE06461EB9C7
:101120002BA003F061FA06E033A003F05DFA3B491F
:101130003BA003F059FA304621B0F0BD5B45535057
:10114000383236365D20436F6E6E656374696E6744
:1011500020746F20576946693A2025730D0A0000F4
:101160005B455350383236365D20576946692070EA
:10117000617373776F7264206C656E6774683A2070
:1011800025640D0A0000000041542B43574A41508A
:101190003D222573222C222573220D0A0000000017
:1011A0005B455350383236365D2053656E64696E48
:1011B0006720636F6D6D616E643A202573000000D7
:1011C0005749464920434F4E4E454354454400003D
:1011D0005B455350383236365D2057694669206387
:1011E0006F6E6E6563746564207375636365737396
:1011F00066756C6C790D0A005B4553503832363693
:101200005D205769466920636F6E6E656374696F10
:101210006E206661696C65640D0A00002C02002076
:101220005B455350383236365D20526573706F6EB1
:1012300073653A2025730D0A0000000010B54FF4C5
:10124000FA6202A102A000F031FE10BD4F4B000077
:1012500041542B43575141500D0A000010B50AA0CC
:1012600003F0C2F94FF4FA620FA110A000F01EFEC5
:1012700004461CB911A003F0B7F902E019A003F06D
:10128000B3F9204610BD00005B4553503832363666
:101290005D20456E61626C696E6720444843502E44
:1012A0002E2E0D0A000000004F4B000041542B432E
:1012B00057444843503D312C310D0A005B45535093
:1012C000383236365D204448435020656E61626C8A
:1012D0006564207375636365737366756C6C790DF3
:1012E0000A0000005B455350383236365D204661B7
:1012F000696C656420746F20656E61626C65204462
:101300004843500D0A00000010B505A003F06CF929
:101310004FF4FA620BA10CA000F0C8FD10BD000054
:101320005B455350383236365D2047657474696EBC
:101330006720495020616464726573732E2E2E0DF0
:101340000A0000004F4B000041542B4349465352C2
:101350000D0A000010B521A003F046F9264927A088
:1013600003F042F92F4801882FA003F03DF936A081
:1013700003F03AF9FFF700FE00280FD03DA003F07C
:1013800033F948A003F030F94DA003F02DF958A02F
:1013900003F02AF95FA003F027F910BD65A003F060
:1013A00023F9012000F0F8FD18B16DA003F01CF93D
:1013B000F3E773A003F018F94FF47A727AA17BA0D7
:1013C00000F074FD7BA003F00FF9002000F0FEFD9B
:1013D00086A003F009F900BFDFE700005B4553502A
:1013E000383236365D20496E697469616C697A6994
:1013F0006E672E2E2E0D0A002C0200205B455350E6
:10140000383236365D205258206275666665722025
:10141000616464726573733A203078253038580DF2
:101420000A000000220000205B4553503832363657
:101430005D205258207374617475733A203078259A
:101440003034580D0A0000005B45535038323636B0
:101450005D205374657020313A2054657374696E51
:101460006720415420636F6D6D616E642E2E2E0DCA
:101470000A0000005B455350383236365D20496E15
:10148000697469616C697A6174696F6E20666169FB
:101490006C6564202D204E6F20726573706F6E73C3
:1014A000650D0A005B455350383236365D20506C6E
:1014B0006561736520636865636B3A0D0A0000001F
:1014C0005B455350383236365D20312E20486172EC
:1014D000647761726520636F6E6E656374696F6EA9
:1014E0002028504231302F50423131290D0A00005E
:1014F0005B455350383236365D20322E20455350EE
:101500003832363620706F77657220737570706C64
:10151000790D0A005B455350383236365D20332E44
:101520002045535038323636206669726D776172C5
:10153000650D0A005B455350383236365D205374D2
:10154000657020323A2053657474696E6720537455
:101550006174696F6E206D6F64652E2E2E0D0A000A
:101560005B455350383236365D204661696C6564A0
:1015700020746F20736574206D6F64650D0A000020
:101580005B455350383236365D20537465702033D6
:101590003A2044697361626C696E67206563686FA5
:1015A0002E2E2E0D0A0000004F4B000041544530F6
:1015B0000D0A00005B455350383236365D205374B7
:1015C000657020343A20456E61626C696E672073E5
:1015D000696E676C6520636F6E6E656374696F6EAC
:1015E000206D6F64652E2E2E0D0A00005B45535052
:1015F000383236365D20496E697469616C697A618A
:1016000074696F6E20636F6D706C657465640D0A2C
:10161000000000000022002190F8343013B990F847
:10162000403013B103225A210AE090F82C3013B154
:1016300002224B2104E090F82D300BB101223C2115
:1016400080F8352080F836107047000010B5044649
:10165000204600F051FB48F2C4602084002084F84A
:10166000220084F834009FED130A84ED0C0A12A1C5
:101670002046FEF7F0FD15480078383420721348F4
:101680004078607211484088608110488088A0814D
:101690000E48C088E0810D48007A207404F032FEC4
:1016A000206004F029FE6060383C2046FFF7B2FF5E
:1016B00010BD00000000CC41323032362D30312DCB
:1016C00030312030303A30303A303000203A01208A
:1016D00070B500244B480021016041608160C16009
:1016E00049A002F081FF53A002F07EFFFFF7B6FD94
:1016F000054615B158A002F077FF4FF47A7003F059
:101700007DFF60A163A002F06FFF13E06CA15DA0FC
:10171000FFF7DEFC05461DB96DA002F065FF0BE08A
:10172000601CC4B2214673A002F05EFF4FF4FA6061
:1017300003F064FF032CE9DB00BF032C03DB7BA079
:1017400002F052FF70BDFFF7DFFD4FF47A7003F037
:1017500055FF85A002F048FF002000F037FC054649
:101760001DB18FA002F040FFECE74FF4FA7003F0D8
:1017700045FF41F6907298A19BA002F035FF00242E
:1017800015E041F6907294A1A3A0FFF703FC054673
:101790001DB9A2A002F028FF0BE0601CC4B22146D4
:1017A000A7A002F021FF4FF4FA6003F027FF032CFB
:1017B000E7DB00BF032C03DBAFA002F015FFC1E79E
:1017C000BCA002F011FF4FF47A72C7A1CBA000F0C9
:1017D0006DFB054675B1CDA002F006FF41F6907293
:1017E0007DA18DA0FFF7D6FB05461DB1D4A002F068
:1017F000FBFEA7E7DCA002F0F7FEE7A002F0F4FE94
:1018000000BF9FE7203A01205B45535038323636FF
:10181000205265706F72745D204D6F64756C652029
:10182000696E697469616C697A696E672E2E2E0D16
:101830000A0000005B45535038323636205265703E
:101840006F72745D20456E61626C696E67204448FA
:1018500043502E2E2E0D0A005B455350383236363B
:10186000205265706F72745D204661696C656420FA
:10187000746F20656E61626C6520444843500D0AA8
:101880000000000054502D4C494E4B5F46463939FC
:10189000000000005B4553503832363620526570E8
:1018A0006F72745D20436F6E6E656374696E67203E
:1018B000746F20576946693A2025730D0A000000AD
:1018C00070713138373832393735393932000000E4
:1018D0005B45535038323636205265706F72745DF6
:1018E000205769466920636F6E6E65637465640D89
:1018F0000A0000005B45535038323636205265707E
:101900006F72745D205769466920636F6E6E656300
:1019100074696F6E206661696C65642C20726574F1
:1019200072792025642F330D0A0000005B45535067
:1019300038323636205265706F72745D20576946B2
:101940006920636F6E6E656374696F6E206661698E
:101950006C656420616674657220332072657472F0
:101960006965730D0A0000005B4553503832363606
:10197000205265706F72745D2053657474696E6770
:101980002073696E676C6520636F6E6E6563746942
:101990006F6E206D6F64652E2E2E0D0A0000000004
:1019A0005B45535038323636205265706F72745D25
:1019B000204661696C656420746F207365742073C0
:1019C000696E676C6520636F6E6E656374696F6EB8
:1019D000206D6F64650D0A003139322E3136382E94
:1019E000302E3130320000005B45535038323636ED
:1019F000205265706F72745D20436F6E6E65637404
:101A0000696E6720746F207365727665723A20255F
:101A1000733A25640D0A0000544350005B4553504F
:101A200038323636205265706F72745D205365729D
:101A300076657220636F6E6E65637465640D0A006F
:101A40005B45535038323636205265706F72745D84
:101A50002053657276657220636F6E6E656374697C
:101A60006F6E206661696C65642C20726574727992
:101A70002025642F330D0A005B455350383236362B
:101A8000205265706F72745D2053657276657220A6
:101A9000636F6E6E656374696F6E206661696C65F5
:101AA00064206166746572203320726574726965A2
:101AB000730D0A005B45535038323636205265703C
:101AC0006F72745D205573696E6720726567756CFF
:101AD000617220415420636F6D6D616E64206D6F83
:101AE00064650D0A000000005354415455533A43B5
:101AF0004F4E4E45435445440000000041542B4393
:101B000049505354415455530D0A00005B455350FE
:101B100038323636205265706F72745D20436F6EB6
:101B20006E656374696F6E2073746174757320637E
:101B30006865636B206661696C65640D0A0000006E
:101B40005B45535038323636205265706F72745D83
:101B5000205265636F6E6E656374696F6E20666197
:101B6000696C65640D0A00005B45535038323636A7
:101B7000205265706F72745D20436F6E6E65637482
:101B8000696F6E207374617475732076657269660F
:101B90006965640D0A0000005B45535038323636E3
:101BA000205265706F72745D204D6F64756C652096
:101BB000696E697469616C697A65642073756363C1
:101BC00065737366756C6C790D0A00002DE9F04140
:101BD0002DED028B94B004460E4694ED0A0ABDEE3C
:101BE000C00AF0EE408A94ED0A0AF8EEE80A30EEF8
:101BF000600ADFED3B0A20EE200ABDEEC00A10EEBF
:101C0000108AB8F1000F01DAC8F1000894ED0C0A4F
:101C1000BDEEC08A94ED0C0AF8EEC80A30EE600AF8
:101C2000F2EE040A20EE200ABDEEC00A10EE105AB1
:101C3000002D00DA6D424FF480613046FEF7D9FA8C
:101C4000383414F8022C14F8033CD4E90010CDE920
:101C50001032CDE91210207CE189A2896389CDE997
:101C60000C32CDE90E10607A217A383C09B11DA200
:101C700000E01EA294F8341009B11AA300E01BA3DF
:101C800094F82D10CDE9093208910B9094F82C00AE
:101C900008B114A000E015A0CDE904808DED068AFE
:101CA0000795A18C94F82200228CCDE900200291A6
:101CB000CDED038A23460F4A4FF48061304602F08F
:101CC000A3FC0746002F02DDA6F8007402E0002006
:101CD000A6F8000414B0BDEC028BBDE8F081000052
:101CE0000000C842747275650000000066616C7384
:101CF000650000001C7D000810B52DED028B044628
:101D000002F0B0F8B0EE408A02F080F8A08484EDD2
:101D10000A8A9FED070AB4EEC08AF1EE10FA01DDDF
:101D2000012000E0002084F82C00BDEC028B10BDE7
:101D30000000484210B588B00446B4F8002412A14F
:101D4000684602F079FC0020134908804FF4807146
:101D50001248FEF74EFA684602F03AFB322003F0D2
:101D60004DFCB4F80014204602F014FB642003F08C
:101D700045FC0020084908804FF480710748FEF7B1
:101D800038FA002008B010BD41542B434950534548
:101D90004E443D25640D0A00220000202C02002044
:101DA00010B50DA002F020FC1748FFF74FFC17A05C
:101DB00002F01AFC1F491448FFF708FF1D48B0F84D
:101DC00000141DA002F010FC1A48FFF7B3FF26A074
:101DD00002F00AFC10BD00005B4553503832363625
:101DE000205265706F72745D20436F6C6C65637414
:101DF000696E672073656E736F7220646174612E03
:101E00002E2E0D0A00000000303A01205B45535091
:101E100038323636205265706F72745D20506163BF
:101E20006B6167696E67204A534F4E2E2E2E0D0A46
:101E3000000000007C3A01205B45535038323636B2
:101E4000205265706F72745D2053656E64696E67B1
:101E5000204A534F4E2028256420627974657329E7
:101E60002E2E2E0D0A0000005B45535038323636B8
:101E7000205265706F72745D2053656E736F7220AF
:101E8000646174612073656E7420636F6D706C653E
:101E90007465640D0A00000030B518B1024990E87D
:101EA0003C003CC130BD0000203A01202DE9F0414A
:101EB00004460F461546214623A002F095FB00205C
:101EC000274908804FF480712648FEF792F9204692
:101ED00002F07EFA002626E02148008800281EDD58
:101EE00039462048FEF790F950B100201C4908807F
:101EF0004FF480711B48FEF77CF90020BDE8F081AB
:101F000019A11848FEF780F948B10020144908804B
:101F10004FF480711348FEF76CF90120EEE70A20B8
:101F200003F06CFB0A36AE42D6D30E4910A002F085
:101F30005BFB00200A4908804FF480710948FEF7D6
:101F400058F90220DAE700005B4553503832363644
:101F50005D2053656E64696E673A2025730000004A
:101F6000220000202C0200204552524F5200000057
:101F70005B455350383236365D2054696D656F7558
:101F80007421204C617374206275666665723A2014
:101F900025730D0A0000000010B588B004462246E3
:101FA00005A1684602F048FB4FF47A7206A1684624
:101FB000FFF77CFF08B010BD41542B43574D4F44F1
:101FC000453D25640D0A00004F4B000010B588B058
:101FD0000446224607A1684602F02EFB214609A0CE
:101FE00002F002FB4FF4FA6210A16846FFF75EFFB1
:101FF00008B010BD41542B4349504D55583D256400
:102000000D0A00005B455350383236365D2053656B
:102010007474696E67204D5558206D6F6465207427
:102020006F2025642E2E2E0D0A0000004F4B00005D
:1020300000B599B0B2A002F0D7FA01217A2001F0E0
:102040008FF80121084601F0ABF84FF400401790DB
:1020500001208DF8600000208DF8620002208DF8CC
:10206000610001208DF8630017A9AD4800F044FA23
:102070004FF63370179002208DF8600000208DF825
:10208000620003208DF8610001208DF8630017A91C
:10209000A44800F031FA4FF68370179002208DF8B3
:1020A000600000208DF8620003208DF8610001209F
:1020B0008DF8630017A99C4800F01EFA4FF23F000C
:1020C000179002208DF8600000208DF86200032038
:1020D0008DF8610001208DF8630017A9934800F086
:1020E0000BFA40F23F40179002208DF8600000206C
:1020F0008DF8620003208DF8610001208DF86300E7
:1021000017A98B4800F0F8F90C220021854800F04F
:102110003BFA0C220121834800F036FA0C220421FC
:10212000804800F031FA0C2205217E4800F02CFA9C
:102130000C2208217B4800F027FA0C22092179485B
:1021400000F022FA0C220A21764800F01DFA0C2237
:102150000B21744800F018FA0C221146714800F067
:1021600013FA0C220D216F4800F00EFA0C220E21FA
:102170006C4800F009FA0C220F216A4800F004FABA
:102180000C220021684800F0FFF90C22012166486A
:1021900000F0FAF90C220721634800F0F5F90C224F
:1021A0000821614800F0F0F90C2209215E4800F096
:1021B000EBF90C220A215C4800F0E6F90C220B2115
:1021C000594800F0E1F90C221146574800F0DCF9BB
:1021D0000C220D21544800F0D7F90C220E21524850
:1021E00000F0D2F90C220F214F4800F0CDF90C225B
:1021F00000214E4800F0C8F90C2201214B4800F0A4
:10220000C3F90C220221494800F0BEF90C22032137
:10221000464800F0B9F90C220421444800F0B4F912
:102220000C220521414800F0AFF90C2211463F482D
:1022300000F0AAF90C220D213C4800F0A5F90C226F
:102240000E213A4800F0A0F90C220F21374800F087
:102250009BF90C220021364800F096F90C2201214E
:10226000334800F091F90C220221314800F08CF93A
:102270000C2203212E4800F087F90C2204212C485F
:1022800000F082F90C220521294800F07DF90C228A
:102290000A21274800F078F90020019002900820D8
:1022A0000390002004900590069007900420089069
:1022B000002009900A9010200B9000200C900E90A6
:1022C0000D900F9010904FF48050119000201290BC
:1022D0001390149001A81590169016A002F084F99E
:1022E00008A800F077F81CA002F07EF90121042074
:1022F00000F056F820A002F077F919B000BD0000F8
:102300005B4578747372616D5D20456E61626C69C6
:102310006E6720636C6F636B732E2E2E0D0A0000A8
:1023200000040240000C0240001002400014024071
:10233000001802405B4578747372616D5D20496ED0
:10234000697469616C697A696E672046534D432EE2
:102350002E2E0D0A000000005B4578747372616DCB
:102360005D20456E61626C696E672046534D432E59
:102370002E2E0D0A000000005B4578747372616DAB
:102380005D20496E697469616C697A6174696F6E08
:1023900020636F6D706C657465210D0A000000008C
:1023A00051B18200A2F1C042126842F001038200E2
:1023B000A2F1C042136009E08200A2F1C04212689B
:1023C000034B1A408300A3F1C0431A60704700001A
:1023D000FEFF0F0030B50021002200230468A40096
:1023E000A4F1C0442168424C2140D0E901452C436E
:1023F000C5682C4305692C4345692C4385692C43EA
:10240000C5692C43056A2C43456A2C43856A2C43D5
:10241000C56A2C43056B2C4321430468A400A4F136
:10242000C04421608468082C0BD10468A400A4F186
:10243000C044246844F040050468A400A4F1C044EA
:1024400025600468641CA400A4F1C044226802F062
:102450004042446B2468456B6D6844EA0514456B43
:10246000AD6844EA0524456BAD8944EA0544456BF3
:102470002D8A44EA0554456B2D7D44EA0564456B7D
:10248000AD692C4322430468641CA400A4F1C04439
:102490002260C46AB4F5804F20D10468A400A4F17E
:1024A000C044D4F80431134C2340846B2468856BFA
:1024B0006D6844EA0514856BAD6844EA0524856BB4
:1024C000AD8944EA0544856BAD692C432343046818
:1024D000A400A4F1C044C4F8043107E06FF07045D3
:1024E0000468A400A4F1C044C4F8045130BD000045
:1024F0008000F7FF0000F0CFF0B50A46002100236E
:10250000002400BF3DE0012505FA01F3156805EA46
:1025100003049C4234D105684F000326BE40B543F6
:10252000056015794E00B54006683543056015799C
:10253000012D02D01579022D16D185684F00032692
:10254000BE40B543856055794E00B5408668354339
:102550008560456801268E40B5434560456896799B
:102560008E40B6B235434560C5684F000326BE4075
:10257000B543C560D5794E00B540C6683543C560E2
:10258000491C1029BFD3F0BDF0B5002300244D072E
:10259000ED0E02FA05F3CE1000F1200555F8265095
:1025A0004E07F70E0F26BE40B543CF1000F12006B0
:1025B00046F82750CE1000F1200555F8265045EA80
:1025C0000304CE1000F1200545F82640F0BD4183FC
:1025D00070470183704700BFFEE700001CB5012172
:1025E000202000F0BDFD01208DF8040000208DF8B2
:1025F00006004FF4C060009002208DF80500002016
:102600008DF8070069460248FFF776FF1CBD000001
:102610000014024000BFFEE70EB50121172000F0B4
:102620009FFD0121084600F0ABFD502001900220E3
:102630008DF8080000208DF80A0003208DF80900AD
:1026400001208DF80B0001A93A48FFF755FFC02083
:10265000019001A93848FFF74FFF4FF43C6001900B
:1026600001A93648FFF748FF6020019001A93448CE
:10267000FFF742FF0D2204212E48FFF785FF0D22B0
:1026800006212C48FFF780FF0D2207212A48FFF77B
:102690007BFF0D2206212948FFF776FF0D22072137
:1026A0002648FFF771FF0D2208212448FFF76CFF31
:1026B0000D2209212148FFF767FF0D220B211F483A
:1026C000FFF762FF0D2206211B48FFF75DFF0D2279
:1026D00005211B48FFF758FF0D2206211848FFF778
:1026E00053FFFEF79BF90020164908804881888136
:1026F000088120208880002048808020C8800846EB
:10270000FEF748FA0120FEF73FF901210846FEF7DF
:102710002FFA4E208DF8000002208DF801000320D2
:102720008DF8020001208DF80300684600F00EF8D5
:102730000EBD0000000002400004024000080240FC
:10274000001002402C0300207047000070B50021EB
:1027500000230F22C4781CB3174C246804F4E064EF
:10276000C4F5E064C4F30721C1F10404E3B20A41F3
:1027700044789C40E1B28478144021430C07210E38
:102780000E4C05786155047804F01F050124AC4017
:1027900005786D11AD0005F1E025C5F8004109E0AF
:1027A000047804F01F050124AC40054D067876112D
:1027B00045F8264070BD00000CED00E000E400E0AC
:1027C00080E100E002490143024A116070470000C5
:1027D0000000FA050CED00E070B50446042C03DAA5
:1027E000C4F10400C5B201E0201FC5B2032143F2C9
:1027F000122000F085FC2807010E45F2875000F0FA
:102800007FFC042C05DA092145F2885000F078FCA1
:1028100004E0012145F2885000F072FC132143F2DC
:10282000122000F06DFCA32143F2122000F068FC9E
:1028300070BD000070B50546062D00DD062503219C
:1028400043F2122000F05CFC1E2145F2813000F0C2
:1028500057FC5B2145F2823000F052FC082145F222
:10286000833000F04DFC00240CE005EB4502114BD9
:1028700003EB4202115D45F28432A01800F040FCE7
:10288000601CC4B2062CF0DB982145F28B3000F0BE
:1028900037FC012145F28A3000F032FC132143F26B
:1028A000122000F02DFCA32143F2122000F028FC9E
:1028B00070BD00009077000870B504460025202602
:1028C000072C1AD2DFE804F004080C1910131600C4
:1028D00014200546064610E01820054606460CE082
:1028E0001C200546064608E01025242605E018258C
:1028F000282602E01C252C2600BF00BF032143F23E
:10290000122000F0FDFB294645F2855000F0F8FB4F
:10291000314645F2865000F0F3FB132143F21220BA
:1029200000F0EEFBA32143F2122000F0E9FB70BDA2
:1029300010B50446022143F2160000F0E1FB02212B
:1029400043F21C0000F0DCFB2CB1022143F2190021
:1029500000F0D6FB04E0002143F2190000F0D0FBA8
:1029600010BD00001CB50121402000F0F9FB012042
:102970008DF8040002208DF8050000208DF8060077
:1029800001208DF807004FF40240009069460E4880
:10299000FFF7B2FD4FF400410B48FFF718FE14207B
:1029A00002F02CFE4FF400710748FFF710FE0520DF
:1029B00002F024FE4FF400410348FFF70AFE142002
:1029C00002F01CFE1CBD00000018024010B50446B9
:1029D000072C7DD2DFE804F0041E38526C88A20078
:1029E000FF2145F2010000F08BFB01214FF4AB40C9
:1029F00000F086FB802145F2815000F081FB002130
:102A000045F2825000F07CFB012145F2885000F035
:102A100077FB9EE0FF2145F2010000F071FB0121F0
:102A20004FF4AB4000F06CFB6F2145F2815000F099
:102A300067FB402145F2825000F062FB012145F224
:102A4000885000F05DFB84E0FF2145F2010000F0BA
:102A500057FB01214FF4AB4000F052FB402145F2FF
:102A6000815000F04DFB6F2145F2825000F048FB91
:102A7000012145F2885000F043FB6AE0FF2145F256
:102A8000010000F03DFB01214FF4AB4000F038FBAA
:102A9000002145F2815000F033FB802145F2825045
:102AA00000F02EFB012145F2885000F029FB50E098
:102AB000FF2145F2010000F023FB01214FF4AB4060
:102AC00000F01EFB6F2145F2815000F019FB00E081
:102AD0003EE0402145F2825000F012FB022145F217
:102AE000885000F00DFB34E0FF2145F2010000F0BA
:102AF00007FB01214FF4AB4000F002FB402145F2FF
:102B0000815000F0FDFA6F2145F2825000F0F8FA92
:102B1000022145F2885000F0F3FA1AE0FF2145F255
:102B2000010000F0EDFA01214FF4AB4000F0E8FAAB
:102B3000002145F2815000F0E3FA802145F28250F5
:102B400000F0DEFA022145F2885000F0D9FA00E0E8
:102B500000BF00BF10BD000070B558A001F044FDDB
:102B600062A001F041FD69A001F03EFD73A001F0FB
:102B70003BFDFFF7F7FE77A001F036FD00F0B8FE51
:102B8000052002F03BFD7BA001F02EFD00F076FA5F
:102B9000054629467EA001F027FD45F240608542AA
:102BA00004D081A001F020FD012070BD86A001F0BD
:102BB0001BFD112143F2031000F0A2FA822143F21F
:102BC000080000F09DFA322002F018FD84A001F008
:102BD0000BFD00240DE08D4A02EB840291788B4AB4
:102BE00032F8240000F08CFA642002F023FD601C0F
:102BF00084B2CF2CEFD386A001F0F6FC0120FFF7C2
:102C000097FE322002F0FAFC89A001F0EDFC04F0FE
:102C1000BDF8322002F0F2FC8FA001F0E5FC0020AC
:102C200000F0A8F90020FFF705FE0420FFF7D4FD0F
:102C30000320FFF741FE0F2000F02FFA322002F0B0
:102C4000DDFC90A001F0D0FC4FF4F0734FF4207243
:102C50000021042000F0A5F994A001F0C5FC022198
:102C600043F2080000F04CFA322002F0C7FC96A0B4
:102C700001F0BAFC44F2407000F0D3F90646314648
:102C800099A001F0B1FC4FF4864000F0CAF9064665
:102C900031469EA001F0A8FC43F2080000F0C1F903
:102CA00006463146A1A001F09FFCA8A001F09CFCC3
:102CB00016A001F099FC002077E700000D0A3D3DC9
:102CC0003D3D3D3D3D3D3D3D3D3D3D3D3D3D3D3D34
:102CD0003D3D3D3D3D3D3D3D3D3D3D3D3D3D3D3D24
:102CE0003D3D3D3D3D3D0D0A000000004F5635364F
:102CF00034302043616D65726120496E6974696189
:102D00006C697A6174696F6E0D0A00003D3D3D3D4E
:102D10003D3D3D3D3D3D3D3D3D3D3D3D3D3D3D3DE3
:102D20003D3D3D3D3D3D3D3D3D3D3D3D3D3D3D3DD3
:102D30003D3D3D3D0D0A0D0A000000005B315D2068
:102D400048617264776172652072657365742E2EB6
:102D50002E0D0A005B325D205343434220696E69A9
:102D60007469616C697A6174696F6E2E2E2E0D0A1A
:102D7000000000005B335D2052656164696E67206E
:102D800063616D6572612049442E2E2E0D0A00008C
:102D90002020202043616D6572612049443A203033
:102DA00078253034580D0A005B4552524F525D2051
:102DB00043616D657261204944206D69736D617472
:102DC0006368210D0A0000005B345D20536F667458
:102DD000776172652072657365742E2E2E0D0A0060
:102DE0005B355D2057726974696E6720696E69741E
:102DF00069616C697A6174696F6E20726567697365
:102E0000746572732E2E2E0D0A000000FC730008EC
:102E10005B365D20456E61626C696E6720666C6131
:102E20007368206C696768742E2E2E0D0A000000EE
:102E30005B385D2053657474696E67204A5045475E
:102E4000206D6F6465202836343078343830292E70
:102E50002E2E0D0A000000005B395D20536574744E
:102E6000696E6720696D616765207175616C697451
:102E70007920706172616D65746572732E2E2E0DEE
:102E80000A0000005B31305D2053657474696E6721
:102E9000206F75747075742073697A6520283634D4
:102EA0003078343830292E2E2E0D0A005B31315DFA
:102EB00020456E61626C696E67206F757470757401
:102EC0002E2E2E0D0A0000005B31325D20566572F9
:102ED000696679696E672073657474696E67732EAD
:102EE0002E2E0D0A000000002020202030783437DC
:102EF00034302028706F6C617269747929203D200C
:102F00003078253032580D0A0000000020202020A3
:102F10003078343330302028666F726D6174292028
:102F20003D203078253032580D0A00002020202026
:102F30003078333030382028636F6E74726F6C29AC
:102F4000203D203078253032580D0A000D0A5B4FA5
:102F500056353634305D20496E697469616C697A22
:102F60006174696F6E207375636365737366756CE6
:102F7000210D0A0010B50446032143F2122000F08F
:102F8000BFF8214645F28F5000F0BAF8132143F202
:102F9000122000F0B5F8A32143F2122000F0B0F89F
:102FA00010BD2DE9F04104460D4616461F4603218B
:102FB00043F2122000F0A4F8311243F6080000F0AA
:102FC0009FF8F1B243F6090000F09AF8391243F67F
:102FD0000A0000F095F8F9B243F60B0000F090F803
:102FE000211243F6100000F08BF8E1B243F6110015
:102FF00000F086F8291243F6120000F081F8E9B2D9
:1030000043F6130000F07CF8132143F2122000F085
:1030100077F8A32143F2122000F072F80020BDE8F7
:10302000F08170B50446002500F0E4FC782000F043
:1030300015FD642002F0FEFA201200F00FFD64205E
:1030400002F0F8FAE0B200F009FD642002F0F2FAB2
:1030500000F0EAFC642002F0EDFA00F0CBFC7920ED
:1030600000F0FCFC642002F0E5FA00F08BFC054661
:1030700000F068FC00F0D8FC284670BD70B543F243
:103080000A00FFF7CEFF044643F20B00FFF7C9FF2B
:10309000054645EA0426304670BD10B50446212C8D
:1030A0000ADA652145F2083000F02AF8214645F297
:1030B000023000F025F822E0252145F2083000F02A
:1030C0001FF808214FF4A64000F01AF8302145F20D
:1030D000013000F015F8102145F2023000F010F830
:1030E000002145F2033000F00BF8082145F20930C9
:1030F00000F006F8302145F20A3000F001F810BD6A
:1031000070B504460D46002600F074FC782000F0EF
:10311000A5FC00B10126642002F08CFA201200F018
:103120009DFC00B10126642002F084FAE0B200F0B8
:1031300095FC00B10126642002F07CFA284600F0DC
:103140008DFC00B1012600F06FFC304670BD000020
:10315000014908627047000000000E4270470000FD
:1031600029B1064A12680243044B1A6004E0034A7C
:1031700012688243014B1A607047000030380240E9
:1031800029B1064A12680243044B1A6004E0034A5C
:1031900012688243014B1A607047000034380240C5
:1031A00029B1064A12680243044B1A6004E0034A3C
:1031B00012688243014B1A607047000038380240A1
:1031C00029B1064A12680243044B1A6004E0034A1C
:1031D00012688243014B1A60704700004038024079
:1031E00029B1064A12680243044B1A6004E0034AFC
:1031F00012688243014B1A60704700004438024055
:10320000F0B5002100220024022500260223324FBF
:103210003F6807F00C0121B1042905D0082937D1F6
:1032200005E02E4F076036E02D4F076033E02A4F50
:103230003F1F3F68C7F38056274F3F1F3F6807F087
:103240003F036EB1264FB7FBF3F7DFF88CC0ACF14C
:10325000040CDCF800C0CCF3881C07FB0CF40CE079
:103260001E4FB7FBF3F7DFF870C0ACF1040CDCF8CD
:1032700000C0CCF3881C07FB0CF4174F3F1F3F68BE
:10328000C7F301477F1C7D00B4FBF5F7076002E040
:10329000124F076000BF00BF0F4F3F6807F0F001FB
:1032A0000909104F7A5C0768D74047600A4F3F68AA
:1032B00007F4E051890A0B4F7A5C4768D740876072
:1032C000054F3F6807F46041490B064F7A5C476839
:1032D000D740C760F0BD0000083802400024F40069
:1032E00000127A000000002010B5014600220023E1
:1032F00000204A11012A02D10A4C236808E0022A60
:1033000003D1084C7034236802E0064C74342368FF
:1033100001F01F02012494401C400CB1012000E088
:10332000002010BD003802400149086070470000CD
:10333000800E474201490860704700003C0E47423A
:10334000002100F44072B2F5407F08D1094A1168AB
:1033500021F4F811084A02401143064A1160054A57
:1033600068321268C0F30B031A43024B68331A60C9
:103370007047000008380240FFFCFF0F014600BF05
:10338000080900EB8000420001F00F001044C0B2B9
:1033900070470146002204E0501CC2B2A1F10A00AD
:1033A000C1B20A29F8DA100741EA1060704700003C
:1033B00008B50022009200200021104A126802F095
:1033C0004002CAB9421E0D4B1A6000BF0B4A126878
:1033D00002F04001009A521C0092009AB2F5803F20
:1033E00001D00029F2D0054A126802F040020AB169
:1033F000012002E0002000E0012008BD0C28004070
:103400000348006820F08000014908607047000010
:103410000C28004070B506460C4600250E48006892
:103420000E4900EA0105280CE070C5F30420607025
:1034300005F03F00A070C5F3423020705EB9E0781F
:10344000FFF79CFFE0706078FFF798FF6070A0784E
:10345000FFF794FFA07070BD042800403FFFFF00FD
:1034600070B506460C4600250F4800680F4900EA73
:103470000105C5F305402070C5F30620607005F016
:103480007F00A07005F48000000CE0705EB9207829
:10349000FFF774FF20706078FFF770FF6070A0780E
:1034A000FFF76CFFA07070BD002800407F7F7F0099
:1034B00030B504460025CA2015490860532008602D
:1034C000FFF776FF00B91DE011481C38006820F0B6
:1034D00040000F491C39086008460068216808430D
:1034E0000B491C3908600A491439A068086008466D
:1034F0000068A18840EA0140054914390860FFF7D7
:103500007FFF0125FF2002490860284630BD0000EA
:103510002428004000B587B035A001F065F80121EE
:103520000807FFF74DFE0120FFF712FE36A001F05D
:103530005BF80120FFF7F8FE00BF6120FFF7D4FE23
:103540000028FAD03AA001F04FF84FF40070FFF7CE
:10355000F7FE0120FFF7EEFE3AA001F045F800F07B
:1035600097F940A001F040F87F200590FF200690D9
:103570000020049004A8FFF79BFF41A001F034F85D
:103580000020454908704870887000F019F91A2029
:103590004249C870012048708870042008700020DB
:1035A00000F0AAF83EA001F01FF800F071F93A49C6
:1035B0000020FFF755FF39490020FFF72BFF364861
:1035C000807835494978344A1278CDE90021029053
:1035D000324883784278C1783D4801F005F80020F0
:1035E000FFF7B6FD3BA000F0FFFF07B000BD0000F5
:1035F0005B5254435D20496E697469616C697A69F4
:103600006E672E2E2E0D0A005B5254435D205057DC
:103610005220616E64204261636B75702061636348
:1036200065737320656E61626C65640D0A0000004D
:103630005B5254435D204C53492072656164790D9F
:103640000A0000005B5254435D2052544320636CD7
:103650006F636B20656E61626C656420284C534516
:10366000290D0A005B5254435D2052544320737964
:103670006E6368726F6E697A65640D0A00000000FF
:103680005B5254435D2052544320696E69746961F2
:103690006C697A65640D0A00400000204400002037
:1036A0005B5254435D2044656661756C7420746997
:1036B0006D65207365743A20323032362D30312DED
:1036C00030312030303A30303A30300D0A000000CE
:1036D000CC7C00085B5254435D20496E697469617B
:1036E0006C697A6174696F6E20636F6D706C65745C
:1036F00065640D0A000000002DE9F04105460C4606
:10370000002600274DB9607800F01000102804D181
:10371000607820F010000A30607005B908E0607829
:10372000FFF72CFE0646A078FFF728FE064600BFEE
:1037300055B1E0780004617840EA0120A17808439F
:10374000217840EA413611E0E078FFF722FE4FEAA7
:1037500000486078FFF71DFE48EA0028A078FFF7D0
:1037600018FE48EA0008207848EA4036CA20124984
:10377000086053200860FFF71BFE08B9002714E01B
:103780000E4830400C4920390860FFF739FE0A48DE
:103790001C38006800F0200030B900F079F808B952
:1037A000002702E0012700E00127FF20024908600E
:1037B0003846BDE8F0810000242800403FFFFF00AC
:1037C0002DE9F04105460C46002600274DB92E484C
:1037D000006800F0400000B102E00020E07000BF8F
:1037E0000DE02948006800F0400020B12078FFF784
:1037F000C5FD064602E00020E07000BF00BF55B1E5
:1038000020780004617840EA0120A1780843E1783B
:1038100040EA014611E02078FFF7BBFD4FEA00487F
:103820006078FFF7B6FD48EA0028A078FFF7B1FD01
:1038300048EA0008E07848EA0046CA2012491C31EC
:10384000086053200860FFF7B3FD08B9002713E0B4
:103850000E4830400C4908390860FFF7D1FD0A488E
:10386000006800F0200030B900F012F808B9002715
:1038700002E0012700E00127FF2003491C31086016
:103880003846BDE8F0810000082800407F7F7F00B7
:1038900008B50022009200200021CA22134B1A60B2
:1038A00053221A60114A183A126822F0A0020F4BF4
:1038B000183B1A6000BF0D4A183A126802F0200146
:1038C000009A521C0092009AB2F5003F01D00029E4
:1038D000F1D0064A183A126802F020020AB101201B
:1038E00000E00020FF22014B1A6008BD24280040A0
:1038F0001CB501210820FFF733FCC02000900120F7
:103900008DF8040000208DF8060002208DF80500D7
:1039100001208DF8070069460948FEF7EDFDC0213A
:103920000748FEF756FE0648006820F44040044968
:1039300008600846006840F4804008601CBD000034
:10394000000C024010B5022001F074FE01200B496A
:1039500008600B49C1F89802022001F06BFE0020BC
:103960000649091F0860022001F064FE0020044996
:10397000C1F89C02022001F05DFE10BD9C82414214
:103980000080414270B500241748006820F4404090
:1039900015490860084600680860082515E00220FF
:1039A00001F048FE0120114908606006040E10482D
:1039B000D0F81C0208B1601CC4B2022001F03AFE2B
:1039C00000200A490860681EC5B2002DE7DC0648E1
:1039D000006820F44040044908600846006840F44C
:1039E00080400860204670BD000C02409882414231
:1039F0000080414210B50120094908600949C1F819
:103A00009802022001F016FE0020054908600220FD
:103A100001F010FE00200349C1F8980210BD00001B
:103A20009C8241420080414210B500200949086053
:103A3000022001F0FFFD01200749C1F89802022091
:103A400001F0F8FD012003490860022001F0F2FDB9
:103A500010BD00009C8241420080414270B5044686
:103A600000261BE004F0800018B101202249086004
:103A700002E00020204908606006040E022001F0E8
:103A8000D9FD01201C49091F0860022001F0D2FD68
:103A900000201A49C1F89802701CC6B2082EE1DB5A
:103AA0001748006820F4404015490860084600683F
:103AB0000860022001F0BEFD01200F49091F0860C7
:103AC000022001F0B7FD0D48D0F81C0208B1012515
:103AD00000E0002500200849091F08600848006828
:103AE00020F44040064908600846006840F48040E1
:103AF0000860284670BD00009C824142008041421F
:103B0000000C02400149086070470000382C014059
:103B100001460020034A12680A400AB1012000E071
:103B200000207047342C014010B500F017F810BD8C
:103B30000021094B02681A601A1D11686FF30A010F
:103B4000D0E901231A43C3681A4303691A43114396
:103B5000014A121D11607047082C014010B54FF446
:103B60008070FFF7D5FF78B34C480078012814D156
:103B700000204B4908600C204860402088600020ED
:103B8000C8604FF4806008610846FFF7D1FF0C2041
:103B9000FCF7B0FE4349087002E00020414908707C
:103BA0004148006840F480703F490860081D006883
:103BB0004CF23A3188433C49091D086001203B49D9
:103BC00008703848007810BDFFE70220FFF7A0FF1B
:103BD00078B10220FFF796FF3348001D00684CF2D1
:103BE0003A3188433049091D086002202D49087088
:103BF000E9E70820FFF78CFF78B10820FFF782FF84
:103C00002948001D00684CF23A3188432649091DB5
:103C10000860042023490870D5E72020FFF778FFCB
:103C200078B12020FFF76EFF1F48001D00684CF29E
:103C30003A3188431C49091D08600620194908705B
:103C4000C1E71020FFF764FF78B11020FFF75AFF9B
:103C50001548001D00684CF23A3188431249091D8D
:103C6000086005200F490870ADE74FF40070FFF7BA
:103C70004FFF80B14FF40070FFF744FF0A48001D6A
:103C800000684CF23A3188430749091D0860072053
:103C90000449087097E7002095E7000039000020EC
:103CA000580300203A000020382C01403B0000203F
:103CB000704700000CB50020019000903448006867
:103CC00040F480303249086000BF3148006800F499
:103CD000003000900198401C0190009818B901989C
:103CE000B0F5A04FF1D12A48006800F4003010B1BF
:103CF0000120009001E0002000900098012846D1AA
:103D000023484030006840F080502149403108602D
:103D10002048006840F440401E4908601C480830B4
:103D200000681B49083108600846006840F40040FC
:103D300008600846006840F4A05008601648091F53
:103D40000860081F006840F08070091F086000BF0D
:103D50000F48006800F000700028F9D040F20570AC
:103D60000E4908600A480830006820F0030008493E
:103D7000083108600846006840F00200086000BF93
:103D800003480830006800F00C000828F8D10CBD8A
:103D9000003802400070004008544007003C0240D8
:103DA00000B589B001210846FFF7DAF90121480280
:103DB000FFF716FA0220079003208DF8200000205C
:103DC0008DF8230007A90F48FEF796FB002001900D
:103DD0008DF808008DF809000390059001208DF8FA
:103DE000180001A90848FCF7F7FC07230122114637
:103DF0000548FCF71BFD01210348FCF7D5FC09B081
:103E000000BD0000000002400021014010B5002468
:103E10000B48FCF767FD09E0641C42F21070844215
:103E200004D908A000F0E0FB002010BD02210448E6
:103E3000FCF7C9FC0028EFD00148FCF7C0FCF4E710
:103E4000002101405B536D6F6B655D204144432051
:103E500054696D656F7574204572726F72210D0A19
:103E60000000000010B52DED048BFFF7CFFF09EE29
:103E7000900AB8EE690ADFED210A20EE200ADFED94
:103E8000200A80EE201AF0EE418A9FED1E0AF4EE21
:103E9000C08AF1EE10FA04D89FED1B0ABDEC048B2A
:103EA00010BD9FED160A30EE680A80EE288A9FED5D
:103EB000169A9FED160AB4EEC08AF1EE10FA19DDDB
:103EC000B2EE040AB4EEC08AF1EE10FA12D2B6EEE7
:103ED000000A38EE400ADFED0E0A20EE200AB0EEAE
:103EE000409AB5EEC09AF1EE10FA03D29FED060AA1
:103EF000B0EE409AB0EE490AD0E7000033335340A9
:103F000000F07F45CDCC4C3D00000000CDCCCC3D39
:103F10000000C84210B5FFF743FF10BD042808D1C8
:103F20004FF0E021096941F004014FF0E0221161F6
:103F300007E04FF0E021096921F004014FF0E02291
:103F40001161704702480068401C014908607047D1
:103F50001000002010B51548006840F470001349A7
:103F600008601348006840F0010011490860002013
:103F70000F49083108600E4800680E4908400C4996
:103F800008600D48091D0860081F006820F48020A3
:103F9000091F0860002006490C310860FFF78AFEFF
:103FA0004FF0006001498039086010BD88ED00E0E5
:103FB00000380240FFFFF6FE1030002410B540F23A
:103FC0002551214800F04BFA10B31F4800F000FBC8
:103FD000C4B21E48008800F40040C8B91B480088DD
:103FE00000F4804060B10A2C03D0002017490880FB
:103FF00020E01648008840F400401449088019E089
:104000000D2C06D11148008840F480400F490880EB
:1040100010E00E480088C0F30D000D490C540B4809
:104020000088401C0949088008460088C72801DD2F
:10403000002008800821044800F004FA10B102486A
:1040400000F0C6FA10BD0000001001401C00002066
:10405000E400002008B5012240F22551084800F094
:1040600028FA26208DF8000002208DF801008DF836
:10407000020001208DF803006846FEF767FB08BDCB
:104080000044004010B540F22551264800F0E7F901
:1040900000283DD0234800F09BFAC4B22248008893
:1040A00000F4004010BB0A2C06D11F48008840F4E1
:1040B00000401D4908802BE01B48008800F4804028
:1040C00060B10A2C06D11848008840F40040164917
:1040D00008801DE000201449088019E00D2C06D14D
:1040E0001148008840F480400F49088010E00E48D5
:1040F0000088C0F30D000D490C540B480088401C8B
:1041000009490880084600887F2801DD00200880D2
:104110000821044800F096F910B1024800F058FA5E
:1041200010BD00000044004020000020AC01002031
:1041300010B586B0044601214804FFF741F801217B
:104140000846FFF70DF8072202211A48FEF71CFA6D
:10415000072203211748FEF717FA0C2004900220CB
:104160008DF8140003208DF8150000208DF816003E
:1041700001208DF8170004A90E48FEF7BDF9009440
:104180000020ADF80400ADF80600ADF80800ADF869
:104190000C000C20ADF80A006946074800F0AEF9A3
:1041A0000121054800F039F94021034800F02CF9BD
:1041B00006B010BD000002400044004008B50122D6
:1041C00040F22551094800F074F927208DF80000CD
:1041D00001208DF801008DF802008DF8030068467B
:1041E000FEF7B4FA02A000F0FFF908BD0048004055
:1041F0005B5553415254335D20E4B8ADE696ADE9CA
:10420000858DE7BDAEE5AE8CE688900D0A00000016
:1042100010B540F22551114800F021F9A8B10F481E
:1042200000F0D6F9C4B20E480088FF280DDA0D4818
:104230000B49098844540A480088401C08490880F2
:1042400000200849064A128888540821034800F0D3
:10425000F9F810B1014800F0BBF910BD004800406A
:10426000220000202C02002010B586B00446012157
:104270000220FEF775FF01218804FEF7A1FF4FF42D
:104280004060049002208DF814008DF81500002085
:104290008DF8160001208DF8170004A91648FEF7C6
:1042A0002BF907220A211448FEF76EF907220B2189
:1042B0001148FEF769F900940020ADF80400ADF84C
:1042C0000600ADF80800ADF80C000C20ADF80A00AF
:1042D00069460A4800F012F90121084800F09DF8EB
:1042E000214607A000F080F910A000F07DF91CA085
:1042F00000F07AF906B010BD00040240004800400A
:104300005B5553415254335D20E5889DE5A78BE50D
:104310008C96E5AE8CE68890EFBC8CE6B3A2E7897C
:10432000B9E78E873A20256C750D0A005B5553411D
:104330005254335D20E8BF9EE68EA53A2053544D7B
:10434000333220504231302028545829202D3E202D
:10435000455350383236362052580D0A00000000BE
:104360005B5553415254335D20E8BF9EE68EA53A1B
:104370002053544D33322050423131202852582995
:10438000202D3E20455350383236362054580D0AE1
:104390000000000070B505460E4600240CE000BF8A
:1043A00040210A4800F04EF80028F9D0295D07485E
:1043B00000F013F9601C84B2B442F0DB00BF40216E
:1043C000024800F03FF80028F9D070BD00480040D6
:1043D00010B504460BE000BF40210A4800F032F857
:1043E0000028F9D014F8011B064800F0F6F82078F0
:1043F0000028F0D100BF4021024800F023F8002837
:10440000F9D010BD0048004001F40072B2F5007F01
:1044100000D100BFCA430280704721B1828942F4B3
:104420000052828104E082894DF6FF731A40828136
:1044300070471AB1838A0B43838202E0838A8B43DD
:104440008382704702460020B1F5007F00D100BF93
:1044500013880B400BB1012000E00020704770B5BD
:104460000246002400230025002040F66A16B142CF
:1044700000D100BFC1F3421501F01F03012606FA67
:1044800003F3012D02D19689334006E0022D02D1BB
:10449000168A334001E0968A33400C12012606FA50
:1044A00004F41688344013B10CB1012000E0002060
:1044B00070BDF0B50346002400260025002040F61C
:1044C0006A17B94200D100BF1846C1F3421401F087
:1044D0001F06012707FA06F5012C01D10C3004E074
:1044E000022C01D1103000E014301AB107682F43BC
:1044F000076002E00768AF430760F0BD2DE9FF47A2
:1045000005460E460024A14600BFA046B08900B172
:1045100000BF2C8A24F44054F08804432C82AC89D8
:1045200041F20C608443B0883189084371890843A3
:104530000443AC81AC8A24F44074B0890443AC8257
:104540006846FEF75DFE2048854202D01F4885423E
:1045500002D1DDF80C9001E0DDF80890A88900F4A4
:10456000004040B109EBC90000EB09103168490077
:10457000B0FBF1F707E009EBC90000EB0910316867
:104580008900B0FBF1F76420B7FBF0F004012009CB
:10459000642101FB1078A88900F4004040B132206A
:1045A00000EBC800B0FBF1F000F00700044308E0A6
:1045B000322000EB08106421B0FBF1F000F00F0096
:1045C00004432C81BDE8FF87001001400014014026
:1045D00001468888C0F308007047C1F30802828052
:1045E000704700BFFEE700000FB4054B10B503A9EC
:1045F000044A029800F006F910BC5DF814FB0000B4
:1046000041590008180000200FB41CB502460020D4
:1046100007AC00290BD0491ECDE90021054B6A46A5
:104620002146069800F0EEF8009A002111701CBC9B
:104630005DF814FB334F00080FB4084B10B504A904
:1046400002AA039800F0DEF8044602A9002000F058
:104650007BFC204610BC5DF814FB0000494F0008AD
:1046600002E008C8121F08C1002AFAD1704770473B
:10467000002001E001C1121F002AFBD17047000099
:104680002DE9FF5F82B00021DDE90430020DDDF885
:1046900040B0034318D044F61050A2F2FF32424318
:1046A0001514119801281FD0A5EB0B00401C5FEAE0
:1046B000000A4FF000064E4FDFF83891B0465046E2
:1046C00015D5CAF1000413E0119801244AA301286A
:1046D00001D16FEA0B010298119AC0E90031C0E9DB
:1046E000024206B0BDE8F09FCBF10000DFE70446D0
:1046F0000021404A491842EB0450CDE9001012E075
:10470000E00707D032463B4640464946FBF753FE9A
:104710008046894632463B4610461946FBF74BFE1B
:1047200006460F466410002CEAD1DDE90401DDE9FC
:104730000023BAF1000F06DAFBF73DFE42464B4676
:10474000FBF739FE05E0FBF796FF42464B46FBF7C9
:1047500092FF04460E460022284BFBF79FFE03D82B
:104760004FF0FF30014607E00022254B204631463E
:10477000FBF77AFDFBF7EEFF102409E0002C0ADBC3
:104780000A220023FBF7B8FE039B30321A55641E41
:1047900050EA0102F2D1641C039AC4F111031444DB
:1047A000119A012A03D0012208430DD10AE00843DF
:1047B00004D000204FF0110B119072E7A3EB0B0512
:1047C0006D1E0DE05B4504DD4FF0000205F10105B3
:1047D00004E003DA4FF00002A5F10105002AECD055
:1047E00002981199C0E90231C0E9004579E700005B
:1047F000000014400000F03F300000000000F043D3
:104800000000E03F2DE9FF4F95B09B4689460646E4
:1048100000250FE2252877D100242746F84A0121F8
:10482000059400E0044316F8013F203B01FA03F031
:104830001042F7D130782A2811D06FF02F0330784A
:10484000A0F13002092A16D8059A44F0020402EBBE
:10485000820203EB42021044761C0590EFE759F800
:10486000042B0592002A03DA504244F400540590C8
:1048700044F00204761C30782E2816D116F8010F69
:1048800044F004042A280DD06FF02F023078A0F1F4
:104890003003092B09D807EB870302EB4303C71842
:1048A000761CF3E759F8047B761C30786C280FD01F
:1048B00006DC4C2817D068280DD06A2814D104E0F3
:1048C000742810D07A280FD10DE044F400140AE0C7
:1048D00044F4801401E044F440147278824202D11E
:1048E00004F58014761C761C307866280BD013DC17
:1048F000582877D009DC002875D04528F6D04628FE
:10490000F4D047281AD19DE118E0632835D06428F7
:1049100079D0652812D195E1702873D008DC67281A
:10492000F1D069286FD06E280DD06F2806D1B5E080
:1049300073282CD0752875D0782874D05A461799CA
:1049400090476D1C75E1C4F30250022809D003287A
:104950000DD0D9F8001004280DD00D6009F104091C
:1049600067E1D9F80010EA17C1E90052F6E7D9F873
:1049700000100D80F2E70D70F0E719F8041B8DF8B8
:10498000001000208DF80100EA46012003E059F8EC
:1049900004AB4FF0FF3061074FF0000102D40DE08F
:1049A00008F101018846B9420FDA8045F8DB1AF8B0
:1049B00008100029F4D108E008F10101884681427D
:1049C000FADB1AF808100029F6D105985B46A0EB2F
:1049D000080721463846179A00F094FA284400EB5D
:1049E000080507E04DE029E10DE01AF8010B5A46F1
:1049F00017999047B8F10108F7D25B46214638462F
:104A0000179A13E142E00A220092C4F302524FF0D7
:104A1000000A022A08D059F804CB032A4FEAEC71A5
:104A20000AD00DE029E02AE009F1070121F0070290
:104A3000F2E802C1914609E00FFA8CFC4FEAEC71F2
:104A4000042A03D14FFA8CFC4FEAEC71002907DAF3
:104A50000A460021DCF1000C61EB02012D2202E08C
:104A6000220504D52B228DF80420012203E0E20761
:104A700001D02022F7E7904659E00A2102E01022F7
:104A80000DE010214FF0000A00910BE010224FF0D2
:104A9000000A44F004040827009203E008224FF0C3
:104AA000000A0092C4F30252022A05D059F804CB3E
:104AB0000021032A08D009E009F1070121F00702CB
:104AC000F2E802C1914605E01FFA8CFC042A01D1EC
:104AD0000CF0FF0C4FF00008220728D5702806D0F4
:104AE000009B83F0100353EA0A0305D00EE0402236
:104AF0008DF80420012208E05CEA010206D0302291
:104B00008DF804208DF8050002229046009B83F06A
:104B1000080353EA0A030AD15CEA010201D16207E1
:104B200005D530228DF804204FF001087F1E58284B
:104B300004D034A003900EA802900DE036A0F9E74F
:104B400053466046009AFBF7D7FC84460398825C84
:104B50000298401E029002705CEA0100F0D10298B7
:104B600006A9081A00F1200A600702D524F480344F
:104B700000E00127574502DDA7EB0A0000E0002016
:104B800000EB0A01009005984144401A0590E003AB
:104B900006D45B462146179A059800F0B3F9054400
:104BA000002706E001A85A46C05D179990476D1C82
:104BB0007F1C4745F6DBE0030CD55B462146179A80
:104BC000059800F09FF9054404E030205A461799F3
:104BD00090476D1C0099481E00900029F5DC08E004
:104BE000029802995A460078491C029117999047F9
:104BF0006D1CBAF10001AAF1010AF1DC65E10000C7
:104C000009280100303132333435363738396162A2
:104C10006364656600000000303132333435363766
:104C200038394142434445460000000000F058F93D
:104C30000544761C307800287FF4ECAD19B0284686
:104C4000BDE8F08F620700D4062709F1070222F0C1
:104C5000070CFCE80223E14603F000485FEA080C79
:104C600002D00FF2702C0DE05FEA045C02D50FF267
:104C7000682C07E05FEAC47C02D00FF2602C01E0F0
:104C8000AFF2700C4FF0FF3823F00043CDF850C066
:104C900065280CD006DC452809D046281DD04728B9
:104CA0003DD13DE0662818D067287ED138E000214C
:104CB000112F01DB112000E0781CCDE9000106A9CD
:104CC0000EA8FFF7DDFCDDE90F010E9A039100212C
:104CD000009207F1010A04914DE04FF00040009767
:104CE000CDE9011006A90EA8FFF7CAFCDDE90F0205
:104CF00003920E9B11990022DDF80CA00093049200
:104D000011B9791C00EB010AB7EB0A0004D4C0F119
:104D1000FF3007F1010A0490AAEB0700019044E07C
:104D2000012F00DA01270021112F01DD112000E001
:104D30003846CDE9000106A90EA8FFF7A1FCDDE980
:104D40000F010E9A0391002104910092BA462107A7
:104D50000CD40399514500DA8A46BAF1010F05DDFA
:104D6000009AAAF10101515C302908D0B84202DA58
:104D700010F1040F06DA0121CDE9011015E0AAF1C6
:104D80000101E9E7002805DC049901440491AAEB3C
:104D9000000102E0411C514500DD8A460499401A99
:104DA000401C01904FF000400290200704D401986D
:104DB000504501DBCDF8048000208DF84F000298AB
:104DC0000DF14F07B0F1004F25D02B200E90029827
:104DD0004FF0020800280CDA404202902D200E907D
:104DE00007E00A210298FBF771FB3031029007F8C7
:104DF000011DB8F10001A8F10108F2DC02980028B9
:104E0000EFD1791E0E980870307800F0200040F045
:104E1000450007F8020D12A8C01B00F107081498FE
:104E2000007800B1012000EB0A01019801EBE0716C
:104E300005984144401A401E0590E00306D45B46A5
:104E40002146179A059800F05DF8054414980078FB
:104E500018B15A46179990476D1CE00324D55B465C
:104E60002146179A059800F04DF805441CE0049877
:104E7000002807DBDDE90301884203DD0098405C80
:104E8000179901E0179930205A469047049805F188
:104E90000105401C04900198401E019004D12E2071
:104EA0005A46179990476D1CBAF10001AAF1010A00
:104EB000DDDC05E017F8010B5A46179990476D1C89
:104EC000B8F10001A8F10108F4DC5B462146179A0D
:104ED0000598ABE62D0000002B000000200000002C
:104EE0002DE9F041044600251E461746880404D4E7
:104EF00005E039462020B0476D1C641EF9D52846D0
:104F0000BDE8F0812DE9F041044600251E4690469B
:104F1000C80301D5302700E02027880404D505E028
:104F200041463846B0476D1C641EF9D52846BDE899
:104F3000F0814A68002A06D00A68531C0B60107082
:104F40004868401E486070470A68531C0B60107028
:104F5000704702460020CB1C23F00301D2F88830B2
:104F60008B4207D3843253685B1A5360106843182E
:104F700042F8843970472DE9F05F04460E462768F1
:104F8000D4F804804FF0000B207BC11700EBD161F7
:104F90004911A0EB41150120A840401E216E01EAF5
:104FA000000A2FE094F8640010B14FF0FF0925E0EB
:104FB00077B9D4F808804FF4007241462046D4F8FF
:104FC0008C30984707461FB96FF00100BDE8F09F8D
:104FD00018F8019B7F1EBBF1000F09D04FF0000BAA
:104FE000B9F1000F01D084F864904FF0FF0905E09B
:104FF000B9F1FF0F02D14FF0010B03E049EA0A2A91
:10500000083500BFB542CDD3C4F860A0A81B2073FB
:105010002760C4F80480A81B00F01F012AFA01F0E1
:10502000D4E72DE9F04F87B00C464FF4B55BCDF8CF
:1050300018B041F2511BCDF814B042F6CF1BCDF899
:1050400010B041F6905BCDF80CB04FF0000BCDF8EE
:1050500000B080E0D0F800C0D0F84080D0F8809058
:10506000D0F8C0100CEB090AACEB090BCDF808B076
:10507000A8EB010B4FF4B55E0BFB0EFB4FEA2B3791
:1050800041447F1A0AEB010CAAEB0101DDF808B0DC
:1050900007EB0B08DDF808B0ABEB0709D0F8E050E0
:1050A000036AD0F8A060026EA3EB050A5F19A6EBB5
:1050B000020BCDF808B03244A7EB020B0BFB0EFB42
:1050C0004FEA2B333A44DDF808B0D34441F6905E02
:1050D0000BFB0EFB4FEA2B3BCDF804B041F2511B0A
:1050E0000AFB0BFEDDF804B0ABEB2E3542F6CF1E0B
:1050F000DDF808B00BFB0EFEDDF804B0ABEB2E3B89
:10510000ABEB02069B1BED1A0CEB020BC0F800B0D8
:10511000ACEB020BC0F8E0B008EB060BC0F820B017
:10512000A8EB060BC0F8C0B009EB030BC0F840B009
:10513000A9EB030BC0F8A0B001EB050BC0F860B001
:10514000A1EB050BC0F880B0001DDDF800B00BF13D
:10515000010BCDF800B0DDF800B0BBF1080FFFF691
:1051600079AF20384FF0000BCDF800B0A0E0D0F8B8
:1051700000B00BF5004CD0F80880D0F81090816991
:105180000CEB090AACEB090BCDF808B0A8EB010B4E
:105190004FF4B55E0BFB0EFB4FEA2B3741447F1AF1
:1051A0000AEB010CAAEB0101DDF808B007EB0B08D4
:1051B000DDF808B0ABEB0709C56943684669C2680A
:1051C000A3EB050A5F19A6EB020BCDF808B0324439
:1051D000A7EB020B0BFB0EFB4FEA2B333A44DDF837
:1051E00008B0D34441F6905E0BFB0EFB4FEA2B3B1D
:1051F000CDF804B041F2511B0AFB0BFEDDF804B000
:10520000ABEB2E3542F6CF1EDDF808B00BFB0EFEE1
:10521000DDF804B0ABEB2E3BABEB02069B1BED1AAB
:105220000CEB020B4FEA2B2B0FFA8BFBA4F800B010
:10523000ACEB020B4FEA2B2B0FFA8BFBA4F80EB052
:1052400008EB060B4FEA2B2B0FFA8BFBA4F802B0EE
:10525000A8EB060B4FEA2B2B0FFA8BFBA4F80CB034
:1052600009EB030B4FEA2B2B0FFA8BFBA4F804B0CE
:10527000A9EB030B4FEA2B2B0FFA8BFBA4F80AB018
:1052800001EB050B4FEA2B2B0FFA8BFBA4F806B0B2
:10529000A1EB050B4FEA2B2B0FFA8BFBA4F808B000
:1052A00010342030DDF800B00BF1010BCDF800B068
:1052B000DDF800B0BBF1080FFFF659AF07B0BDE84D
:1052C000F08F2DE9F74F8AB0074688461AE10C980F
:1052D000112803D206200DB0BDE8F08F0C981138CC
:1052E0000C9018F8010B0790079800F0EE0008B139
:1052F0000620F0E707980611079800F00F09102123
:105300003846FFF726FE8246BAF1000F01D103208E
:10531000E1E707F1200000EBC90040F826A00020DB
:105320000446089007E018F8011B0AF804100898D2
:1053300008440890641C102CF5D3089841003846A6
:10534000FFF707FE0590059808B90320C3E707F1AA
:10535000300101EBC901059841F8260000200690B4
:105360000446099018E01AF804500AE00998421C13
:1053700006990992059A22F810100698401C80B2EE
:105380000690281EA5F10105F0D14FF6FF71069891
:1053900001EA40000690641C102CE4D308990C9894
:1053A000884201D2062096E708990C98401A0C9082
:1053B00038460899FFF7CDFD8346BBF1000F01D1B8
:1053C000032088E707F1400000EBC90040F826B051
:1053D00000240CE018F8010B079026B907980B2859
:1053E00001DD062077E707980BF80400641C089895
:1053F0008442EFD3002001900090AEB14FF40061E1
:105400003846FFF7A6FD0190019808B9032062E72E
:1054100007F16C01019841F82900FF224FF4006167
:105420000198FAF7DFFE14E04FF480613846FFF789
:1054300090FD0090009808B903204CE707F1740133
:10544000009841F82900FF224FF480610098FAF794
:10545000C9FE0020054604464CE01AF805000990F4
:1054600044E0059830F81400C5F109018840C0F304
:1054700009000290E6B12046641C1BF80010681C6D
:1054800041EA00200390C5F1090101208840049001
:105490000AE00498401E0490039882B20298411CCE
:1054A0000291019921F8102004980028F1D11AE006
:1054B0002046641C1BF80010681C41EA0010039091
:1054C000C5F1090101208840049009E00498401EBC
:1054D00004900398C2B20298411C029100990A54A8
:1054E00004980028F2D10998401E099009980028D4
:1054F000B7D16D1C0A2DB0D307F1650000EB490050
:10550000845500BF0C9800287FF4E1AE00BFE2E6AE
:105510002DE9F04782460C4616462BE0412E02D27A
:105520000620BDE8F087413E14F8019B09F0F00029
:1055300008B10620F5E709F003074FF480715046E3
:10554000FFF707FD05460DB90320EAE70AF1500011
:1055500040F8275000270BE0084810F8078014F89F
:10556000010B074931F81810484345F828007F1C03
:10557000402FF1D3002ED1D10020D2E7BA77000816
:10558000FA77000810B504466FF00400FEF7C6FC79
:10559000E11704EB5171C1F3C701154A11701046B0
:1055A000007800EB4001C1EBC0104FF6FF7101EA3B
:1055B000C000104908801046007800EB4001C1EBA4
:1055C000C0100121C1EBC0004FF0E0214861002074
:1055D00088610846006940F00200086108460069D9
:1055E00040F00100086100200349086010BD000080
:1055F00014000020160000201000002070B50446A2
:105600004FF4077094FBF0F0C6B24FF4077094FBB0
:10561000F0F100FB114085B205E04FF4077000F097
:105620002FF8701EC6B2002EF7D115B1284600F033
:1056300027F870BD0146114A12784A434FF0E02323
:105640005A6100229A611A46126942F001021A61F7
:1056500000BF4FF0E022106900F001021AB100F41F
:105660008032002AF5D04FF0E022126922F00102C8
:105670004FF0E0231A6100229A6170471400002065
:105680000146114A12884A434FF0E0235A61002232
:105690009A611A46126942F001021A6100BF4FF086
:1056A000E022106900F001021AB100F48032002AF1
:1056B000F5D04FF0E022126922F001024FF0E02312
:1056C0001A6100229A6170471600002000220C48DF
:1056D0000378012109E00A48405C984203D0501C3D
:1056E000C2B20748435C481CC1B20A29F3DB054833
:1056F0008079904201DC012070470020FCE7000027
:10570000143A0120AE00002038B5044624B11048F8
:1057100021680160616841600E48002101604160BC
:10572000018100200C4908700CA0FEF75DFF0848BD
:10573000C078009006488378427801780FA0FEF781
:1057400053FF0348818817A0FEF74EFF38BD0000C5
:10575000AE000020143A0120B60000205B466972BA
:105760006520446574656374696F6E5D20496E6978
:105770007469616C697A65640D0A000020204853E1
:10578000562052616E67653A20485B25642D25647A
:105790005D2C20533E3D25642C20563E3D25640D56
:1057A0000A00000020204D696E20417265613A2098
:1057B000256420706978656C730D0A0001460878CD
:1057C0000B4A1278904210DB0878094A52789042CE
:1057D0000BDC4878064A9278904206DB8878044AC7
:1057E000D278904201DB012070470020FCE70000E6
:1057F000AE0000202DE9FF4F82B00F4692461C46B6
:105800000025AB46002001900026009020606060DB
:10581000A060E060814620E04FF0000817E009FB3F
:10582000078000EB400102980B181846FFF7C6FFEF
:1058300048B16D1C987808FB00BB019909FB001169
:105840000191064400BF08F101001FFA80F8B84535
:10585000E5DB09F101001FFA80F9D145DCDB2D48B9
:105860008088A84244D80123009323706580E660B5
:105870003EB1BBFBF6F3A380019BB3FBF6F3E380E1
:1058800006E0BBFBF5F3A380019BB3FBF5F3E380DC
:1058900007FB0AF264236B43B3FBF2F3D8B264282C
:1058A00001DD642300E00346637063780A2B0ADAA3
:1058B000184B9B88B5FBF3F30A3363706378642B52
:1058C00001DD64236370B6FBF5F399B2C8290EDDE0
:1058D00063784FF06E0C13FB0CF34FF0640C93FBEA
:1058E000FCF363706378642B01DD6423637000BF95
:1058F000009800F011F8FFF7E9FE2072207A28B135
:1059000060785A2802DA60780A30607006B0BDE824
:10591000F08F0000AE0000200749084A1278885432
:1059200006490978491C0A2291FBF2F302FB131184
:10593000024A117070470000143A0120B60000209E
:1059400000BF054A128802F04002002AF9D0C2B214
:10595000014B9A8070470000001001402DE9F04F84
:1059600087B004460E469046D4F800A0D4F804B0A0
:1059700000200690207BC11700EBD1614911A0EBFC
:1059800041170120B840401E216E0140019131E0D5
:1059900094F8640008B1FF2526E0BAF1000F11D198
:1059A000D4F808B04FF4007259462046D4F88C3031
:1059B00098478246BAF1000F04D16FF0010007B09A
:1059C000BDE8F08F1BF8015BAAF1010A069830B11F
:1059D000002006900DB184F86450FF2504E0FF2DEF
:1059E00002D10120069005E0019845EA00200190CF
:1059F000083700BF102FCBD3C4F800A0C4F804B000
:105A000001982066A7F10A01019820FA01F5B8F182
:105A1000000F0ED004F16C0050F8260030F815503D
:105A20004FF6FF70854211D0A7EB15202073E8B226
:105A3000C5E704F1740050F82600455DFF2D05D040
:105A4000A7EB1510207305F00F00B8E704F1200054
:105A500000EBC60050F828000A30059004F1300031
:105A600000EBC60050F8281004F1650000EB46007A
:105A700010F8080001EB4000039004F1400000EB37
:105A8000C60050F8281004F1650000EB460010F83D
:105A90000800084404904FF00B0923E005980078B3
:105AA00002900598401C05900298C8B1A7EB090127
:105AB000019820FA01F500BF039830F8021B03900B
:105AC000A94205D1A7EB090020730498007876E776
:105AD0000498401C04900298401E02900028EBD1CC
